{"contracts/Factory.sol":{"Factory":{"abi":[{"inputs":[{"internalType":"uint256","name":"_fee","type":"uint256"}],"stateMutability":"nonpayable","type":"constructor"},{"anonymous":false,"inputs":[{"indexed":true,"internalType":"address","name":"token","type":"address"},{"indexed":false,"internalType":"address","name":"buyer","type":"address"},{"indexed":false,"internalType":"uint256","name":"amount","type":"uint256"},{"indexed":false,"internalType":"uint256","name":"cost","type":"uint256"}],"name":"Buy","type":"event"},{"anonymous":false,"inputs":[{"indexed":true,"internalType":"address","name":"token","type":"address"},{"indexed":false,"internalType":"string","name":"name","type":"string"},{"indexed":false,"internalType":"string","name":"symbol","type":"string"},{"indexed":false,"internalType":"address","name":"creator","type":"address"}],"name":"Created","type":"event"},{"anonymous":false,"inputs":[{"indexed":true,"internalType":"address","name":"token","type":"address"},{"indexed":false,"internalType":"uint256","name":"liquidityAdded","type":"uint256"}],"name":"Graduated","type":"event"},{"anonymous":false,"inputs":[{"indexed":true,"internalType":"address","name":"token","type":"address"},{"indexed":false,"internalType":"address","name":"seller","type":"address"},{"indexed":false,"internalType":"uint256","name":"amount","type":"uint256"},{"indexed":false,"internalType":"uint256","name":"refund","type":"uint256"}],"name":"Sell","type":"event"},{"inputs":[],"name":"TARGET","outputs":[{"internalType":"uint256","name":"","type":"uint256"}],"stateMutability":"view","type":"function"},{"inputs":[],"name":"TOKEN_LIMIT","outputs":[{"internalType":"uint256","name":"","type":"uint256"}],"stateMutability":"view","type":"function"},{"inputs":[],"name":"VIRTUAL_ETH_RESERVE","outputs":[{"internalType":"uint256","name":"","type":"uint256"}],"stateMutability":"view","type":"function"},{"inputs":[],"name":"VIRTUAL_TOKEN_RESERVE","outputs":[{"internalType":"uint256","name":"","type":"uint256"}],"stateMutability":"view","type":"function"},{"inputs":[{"internalType":"address","name":"_token","type":"address"},{"internalType":"uint256","name":"_amount","type":"uint256"}],"name":"buy","outputs":[],"stateMutability":"payable","type":"function"},{"inputs":[{"internalType":"string","name":"_name","type":"string"},{"internalType":"string","name":"_symbol","type":"string"},{"internalType":"string","name":"_description","type":"string"},{"internalType":"string","name":"_imageUrl","type":"string"}],"name":"create","outputs":[],"stateMutability":"payable","type":"function"},{"inputs":[{"internalType":"address","name":"_token","type":"address"}],"name":"emergencyClose","outputs":[],"stateMutability":"nonpayable","type":"function"},{"inputs":[],"name":"fee","outputs":[{"internalType":"uint256","name":"","type":"uint256"}],"stateMutability":"view","type":"function"},{"inputs":[],"name":"getAllTokens","outputs":[{"components":[{"internalType":"address","name":"token","type":"address"},{"internalType":"string","name":"name","type":"string"},{"internalType":"string","name":"symbol","type":"string"},{"internalType":"string","name":"description","type":"string"},{"internalType":"string","name":"imageUrl","type":"string"},{"internalType":"address","name":"creator","type":"address"},{"internalType":"uint256","name":"sold","type":"uint256"},{"internalType":"uint256","name":"raised","type":"uint256"},{"internalType":"uint256","name":"marketCap","type":"uint256"},{"internalType":"bool","name":"isOpen","type":"bool"},{"internalType":"bool","name":"graduated","type":"bool"},{"internalType":"uint256","name":"createdAt","type":"uint256"},{"internalType":"uint256","name":"replies","type":"uint256"}],"internalType":"struct Factory.TokenSale[]","name":"","type":"tuple[]"}],"stateMutability":"view","type":"function"},{"inputs":[{"internalType":"address","name":"_token","type":"address"},{"internalType":"uint256","name":"_amount","type":"uint256"}],"name":"getBuyPrice","outputs":[{"internalType":"uint256","name":"","type":"uint256"}],"stateMutability":"view","type":"function"},{"inputs":[{"internalType":"address","name":"_token","type":"address"}],"name":"getMarketCap","outputs":[{"internalType":"uint256","name":"","type":"uint256"}],"stateMutability":"view","type":"function"},{"inputs":[{"internalType":"address","name":"_token","type":"address"},{"internalType":"uint256","name":"_amount","type":"uint256"}],"name":"getSellPrice","outputs":[{"internalType":"uint256","name":"","type":"uint256"}],"stateMutability":"view","type":"function"},{"inputs":[{"internalType":"uint256","name":"_index","type":"uint256"}],"name":"getTokenSale","outputs":[{"components":[{"internalType":"address","name":"token","type":"address"},{"internalType":"string","name":"name","type":"string"},{"internalType":"string","name":"symbol","type":"string"},{"internalType":"string","name":"description","type":"string"},{"internalType":"string","name":"imageUrl","type":"string"},{"internalType":"address","name":"creator","type":"address"},{"internalType":"uint256","name":"sold","type":"uint256"},{"internalType":"uint256","name":"raised","type":"uint256"},{"internalType":"uint256","name":"marketCap","type":"uint256"},{"internalType":"bool","name":"isOpen","type":"bool"},{"internalType":"bool","name":"graduated","type":"bool"},{"internalType":"uint256","name":"createdAt","type":"uint256"},{"internalType":"uint256","name":"replies","type":"uint256"}],"internalType":"struct Factory.TokenSale","name":"","type":"tuple"}],"stateMutability":"view","type":"function"},{"inputs":[{"internalType":"address","name":"_token","type":"address"},{"internalType":"address","name":"_user","type":"address"}],"name":"getUserBalance","outputs":[{"internalType":"uint256","name":"","type":"uint256"}],"stateMutability":"view","type":"function"},{"inputs":[{"internalType":"address","name":"_token","type":"address"}],"name":"graduateToken","outputs":[],"stateMutability":"nonpayable","type":"function"},{"inputs":[],"name":"owner","outputs":[{"internalType":"address","name":"","type":"address"}],"stateMutability":"view","type":"function"},{"inputs":[{"internalType":"address","name":"_token","type":"address"},{"internalType":"uint256","name":"_amount","type":"uint256"}],"name":"sell","outputs":[],"stateMutability":"nonpayable","type":"function"},{"inputs":[{"internalType":"address","name":"","type":"address"}],"name":"tokenToSale","outputs":[{"internalType":"address","name":"token","type":"address"},{"internalType":"string","name":"name","type":"string"},{"internalType":"string","name":"symbol","type":"string"},{"internalType":"string","name":"description","type":"string"},{"internalType":"string","name":"imageUrl","type":"string"},{"internalType":"address","name":"creator","type":"address"},{"internalType":"uint256","name":"sold","type":"uint256"},{"internalType":"uint256","name":"raised","type":"uint256"},{"internalType":"uint256","name":"marketCap","type":"uint256"},{"internalType":"bool","name":"isOpen","type":"bool"},{"internalType":"bool","name":"graduated","type":"bool"},{"internalType":"uint256","name":"createdAt","type":"uint256"},{"internalType":"uint256","name":"replies","type":"uint256"}],"stateMutability":"view","type":"function"},{"inputs":[{"internalType":"uint256","name":"","type":"uint256"}],"name":"tokens","outputs":[{"internalType":"address","name":"","type":"address"}],"stateMutability":"view","type":"function"},{"inputs":[],"name":"totalTokens","outputs":[{"internalType":"uint256","name":"","type":"uint256"}],"stateMutability":"view","type":"function"},{"inputs":[{"internalType":"address","name":"","type":"address"},{"internalType":"address","name":"","type":"address"}],"name":"userTokenBalance","outputs":[{"internalType":"uint256","name":"","type":"uint256"}],"stateMutability":"view","type":"function"},{"inputs":[{"internalType":"uint256","name":"_amount","type":"uint256"}],"name":"withdraw","outputs":[],"stateMutability":"nonpayable","type":"function"}],"evm":{"bytecode":{"linkReferences":{},"object":"60a034607057601f612e1938819003918201601f19168301916001600160401b0383118484101760755780849260209460405283398101031260705751600080546001600160a01b03191633179055608052604051612d8d908161008c823960805181818161012901526109780152f35b600080fd5b634e487b7160e01b600052604160045260246000fdfe608080604052600436101561001357600080fd5b60003560e01c908163031bd4c41461172a575080631fbc147b1461160c5780632a5c792a1461143b5780632e1a7d4d146113f25780634635256e146113cb5780634f64b2be146113895780636805d6ad146104c95780636c197ff51461118e57806378ff6ee3146108eb5780637e1c0c09146108cd5780637e309b92146108a65780638da5cb5b1461087d57806397f548f7146106735780639ae717811461064c5780639c0ad5ed1461051a578063b47064c8146104c9578063b575e12314610477578063cb24a72f14610453578063cc1f2afa1461042f578063cce7ec131461017c578063d146d31d146101515763ddca3f431461011157600080fd5b3461014c57600036600319011261014c5760206040517f00000000000000000000000000000000000000000000000000000000000000008152f35b600080fd5b3461014c57602036600319011261014c57602061017461016f61185e565b611f97565b604051908152f35b604036600319011261014c5761019061185e565b60243560018060a01b038216918260005260036020526040600020600981016101cb60ff82546101c1828216611d60565b60081c1615611dac565b6101d6841515611df8565b60068201928354926b0295be96e6406697200000006101f58786611bcf565b116103de576102048683611c1c565b9485341061039957610217878996611bcf565b90556008610235600783019361022e888654611bcf565b8555611f97565b910155826000526004602052604060002060018060a01b0333166000526020526040600020610265868254611bcf565b9055549068014d1120d7b1600000821015610358575b505060405163a9059cbb60e01b81523360048201526024810184905290506020816044816000885af180156103165761032b575b508034116102f7575b6040805133815260208101939093528201527f89f5adc174562e07c9c9b1cae7109bbecb21cf9d1b2847e550042b8653c54a0e9080606081015b0390a2005b60008080806103068534611bdc565b818115610322575b3390f16102b8575b6040513d6000823e3d90fd5b506108fc61030e565b61034c9060203d602011610351575b61034481836118d7565b810190611e43565b6102af565b503d61033a565b805461ffff19166101001790556040519081527f3a11b9c0ca38b86101cb9e6e1dd2f752c31467c6eaa353f931b801a338406de690602090a282848061027b565b60405162461bcd60e51b815260206004820152601960248201527f466163746f72793a20496e73756666696369656e7420455448000000000000006044820152606490fd5b60405162461bcd60e51b8152602060048201526024808201527f466163746f72793a204578636565647320626f6e64696e67206375727665206c6044820152631a5b5a5d60e21b6064820152608490fd5b3461014c57600036600319011261014c57602060405168014d1120d7b16000008152f35b3461014c57600036600319011261014c5760206040516801a055690d9db800008152f35b3461014c57602036600319011261014c5761049061185e565b6104a560018060a01b03600054163314611ac6565b6001600160a01b03166000908152600360205260409020600901805460ff19169055005b3461014c57604036600319011261014c576104e261185e565b6104ea611874565b6001600160a01b039182166000908152600460209081526040808320949093168252928352819020549051908152f35b3461014c57602036600319011261014c576001600160a01b0361053b61185e565b16600090815260036020526040902080546001600160a01b031661056160018301611994565b9161056e60028201611994565b61057a60038301611994565b9161058760048201611994565b92600160a01b60019003600583015416936006830154600784015490600885015492600986015494600a87015496600b0154976040519b8c9b8c5260208c016101a090526101a08c016105d99161174f565b8b810360408d01526105ea9161174f565b8a810360608c01526105fb9161174f565b89810360808b015261060c9161174f565b9660a089015260c088015260e087015261010086015260ff8116151561012086015260081c60ff1615156101408501526101608401526101808301520390f35b3461014c57604036600319011261014c57602061017461066a61185e565b60243590611e5b565b3461014c57602036600319011261014c576001600160a01b0361069461185e565b1680600052600360205260406000209060ff600983015460081c161561082857600582019160018060a01b03835416918233036107d8576040516370a0823160e01b815230600482015292602084602481855afa938415610316576000946107a4575b508361073b575b505060079150018054918261070f57005b546000926107389184918291829182916001600160a01b03165af1610732611b53565b50611b83565b55005b60405163a9059cbb60e01b81526001600160a01b039190911660048201526024810193909352602090839060449082906000905af191821561031657600792610785575b806106fe565b61079d9060203d6020116103515761034481836118d7565b508361077f565b9093506020813d6020116107d0575b816107c0602093836118d7565b8101031261014c575192856106f7565b3d91506107b3565b60405162461bcd60e51b815260206004820152602260248201527f466163746f72793a204f6e6c792063726561746f722063616e20677261647561604482015261746560f01b6064820152608490fd5b60405162461bcd60e51b815260206004820152602760248201527f466163746f72793a20546f6b656e206e6f7420726561647920666f7220677261604482015266323ab0ba34b7b760c91b6064820152608490fd5b3461014c57600036600319011261014c576000546040516001600160a01b039091168152602090f35b3461014c57600036600319011261014c5760206040516b037790968dc8efffd10000008152f35b3461014c57600036600319011261014c576020600154604051908152f35b608036600319011261014c576004356001600160401b03811161014c57610916903690600401611913565b6024356001600160401b03811161014c57610935903690600401611913565b906044356001600160401b03811161014c57610955903690600401611913565b916064356001600160401b03811161014c57610975903690600401611913565b927f000000000000000000000000000000000000000000000000000000000000000034106111495782511561110b578151156110c657604051610b3e8082018281106001600160401b03821117610e5157829161221a8339338152608060208201526b033b2e3c9fd0803ce80000006060610a046109f6608085018a61174f565b84810360408601528861174f565b92015203906000f080156103165760018060a01b03169360025468010000000000000000811015610e5157806001610a3f920160025561188a565b81546001600160a01b0360039290921b91821b19169087901b17905560015460001981146110b05760010160015560405190610a7a826118bb565b85825260208201928584526040830185815260608401918252608084019283523360a0850152600060c0850152600060e085015260006101008501526001610120850152600061014085015242610160850152600061018085015287600052600360205260406000209460018060a01b0360018060a01b03865116166bffffffffffffffffffffffff60a01b8754161786556001860190518051906001600160401b038211610e51578190610b2f845461195a565b601f811161105d575b50602090601f8311600114610ff857600092610fed575b50508160011b916000199060031b1c19161790555b51805160028601916001600160401b038211610e51578190610b86845461195a565b601f8111610f9a575b50602090601f8311600114610f3557600092610f2a575b50508160011b916000199060031b1c19161790555b51805160038501916001600160401b038211610e51578190610bdd845461195a565b601f8111610ed7575b50602090601f8311600114610e7257600092610e67575b50508160011b916000199060031b1c19161790555b518051906001600160401b038211610e5157610c31600485015461195a565b601f8111610e06575b50602090601f8311600114610d6757610180610d519484610d4398957fe0154c2812457c3175eafd0218aac83e6cdb6230a1ac0105a405e547dc20f4929a9895600b95600092610d5c575b50508160011b916000199060031b1c19161760048501555b60018060a01b0360a082015116600585019060018060a01b03166bffffffffffffffffffffffff60a01b82541617905560c0810151600685015560e08101516007850155610100810151600885015560098401610120820151151560ff80198354169116178155610140820151151561ff0082549160081b169061ff001916179055610160810151600a850155015191015560405193849360608552606085019061174f565b90838203602085015261174f565b3360408301520390a2005b015190508c80610c85565b9060048501600052806000209160005b601f1985168110610dee5750610d51946001857fe0154c2812457c3175eafd0218aac83e6cdb6230a1ac0105a405e547dc20f4929a9895600b9561018095610d439c99601f19811610610dd5575b505050811b016004850155610c9d565b015160001960f88460031b161c191690558c8080610dc5565b91926020600181928685015181550194019201610d77565b600485016000526020600020601f840160051c81019160208510610e47575b601f0160051c01905b818110610e3b5750610c3a565b60008155600101610e2e565b9091508190610e25565b634e487b7160e01b600052604160045260246000fd5b015190508980610bfd565b60008581528281209350601f198516905b818110610ebf5750908460019594939210610ea6575b505050811b019055610c12565b015160001960f88460031b161c19169055898080610e99565b92936020600181928786015181550195019301610e83565b909150836000526020600020601f840160051c81019160208510610f20575b90601f859493920160051c01905b818110610f115750610be6565b60008155849350600101610f04565b9091508190610ef6565b015190508a80610ba6565b60008581528281209350601f198516905b818110610f825750908460019594939210610f69575b505050811b019055610bbb565b015160001960f88460031b161c191690558a8080610f5c565b92936020600181928786015181550195019301610f46565b909150836000526020600020601f840160051c81019160208510610fe3575b90601f859493920160051c01905b818110610fd45750610b8f565b60008155849350600101610fc7565b9091508190610fb9565b015190508b80610b4f565b60008581528281209350601f198516905b818110611045575090846001959493921061102c575b505050811b019055610b64565b015160001960f88460031b161c191690558b808061101f565b92936020600181928786015181550195019301611009565b909150836000526020600020601f840160051c810191602085106110a6575b90601f859493920160051c01905b8181106110975750610b38565b6000815584935060010161108a565b909150819061107c565b634e487b7160e01b600052601160045260246000fd5b60405162461bcd60e51b815260206004820152601860248201527f466163746f72793a2053796d626f6c20726571756972656400000000000000006044820152606490fd5b60405162461bcd60e51b8152602060048201526016602482015275119858dd1bdc9e4e8813985b59481c995c5d5a5c995960521b6044820152606490fd5b60405162461bcd60e51b815260206004820152601c60248201527f466163746f72793a2043726561746f7220666565206e6f74206d6574000000006044820152606490fd5b3461014c57604036600319011261014c576111a761185e565b60243560018060a01b0382169182600052600360205260406000206111d760ff60098301546101c1828216611d60565b6111e2831515611df8565b836000526004602052604060002060018060a01b033316600052602052611210836040600020541015611b07565b61121a8383611e5b565b918247106113355761124f60089160068401611237878254611bdc565b905560078401611248868254611bdc565b9055611f97565b910155826000526004602052604060002060018060a01b033316600052602052604060002061127f838254611bdc565b90556040516323b872dd60e01b8152336004820152306024820152604481018390526020816064816000885af1801561031657611318575b50806000811561130f575b600080809381933390f115610316576040805133815260208101939093528201527fa082022e93cfcd9f1da5f9236718053910f7e840da080c789c7845698dc032ff9080606081016102f2565b506108fc6112c2565b6113309060203d6020116103515761034481836118d7565b6112b7565b60405162461bcd60e51b815260206004820152602660248201527f466163746f72793a20496e73756666696369656e7420636f6e74726163742062604482015265616c616e636560d01b6064820152608490fd5b3461014c57602036600319011261014c5760043560025481101561014c576113b260209161188a565b905460405160039290921b1c6001600160a01b03168152f35b3461014c57604036600319011261014c5760206101746113e961185e565b60243590611c1c565b3461014c57602036600319011261014c57611439600080808060043560018060a01b03825416611423813314611ac6565b61142f47831115611b07565b5af1610732611b53565b005b3461014c57600036600319011261014c5760015461145881611a9b565b9061146660405192836118d7565b808252601f1961147582611a9b565b0160005b8181106115f557505060005b8181106114f457826040518091602082016020835281518091526040830190602060408260051b8601019301916000905b8282106114c557505050500390f35b919360019193955060206114e48192603f198a82030186528851611790565b96019201920185949391926114b6565b8061150060019261188a565b838060a01b0391549060031b1c1660005260036020526040600020600b6040519161152a836118bb565b848060a01b038154168352611540858201611994565b602084015261155160028201611994565b604084015261156260038201611994565b606084015261157360048201611994565b6080840152848060a01b0360058201541660a0840152600681015460c0840152600781015460e0840152600881015461010084015260ff6009820154818116151561012086015260081c161515610140840152600a81015461016084015201546101808201526115e38286611ab2565b526115ee8185611ab2565b5001611485565b602090611600611a38565b82828701015201611479565b3461014c57602036600319011261014c57611625611a38565b5061163160043561188a565b60018060a01b0391549060031b1c1660005260036020526117266040600020600b6040519161165f836118bb565b80546001600160a01b0316835261167860018201611994565b602084015261168960028201611994565b604084015261169a60038201611994565b60608401526116ab60048201611994565b608084015260018060a01b0360058201541660a0840152600681015460c0840152600781015460e0840152600881015461010084015260ff6009820154818116151561012086015260081c161515610140840152600a8101546101608401520154610180820152604051918291602083526020830190611790565b0390f35b3461014c57600036600319011261014c57806b0295be96e64066972000000060209252f35b919082519283825260005b84811061177b575050826000602080949584010152601f8019910116010190565b8060208092840101518282860101520161175a565b9060018060a01b038251168152610180806117fb6117e96117d76117c560208801516101a060208901526101a088019061174f565b6040880151878203604089015261174f565b6060870151868203606088015261174f565b6080860151858203608087015261174f565b9360018060a01b0360a08201511660a085015260c081015160c085015260e081015160e085015261010081015161010085015261012081015115156101208501526101408101511515610140850152610160810151610160850152015191015290565b600435906001600160a01b038216820361014c57565b602435906001600160a01b038216820361014c57565b6002548110156118a557600260005260206000200190600090565b634e487b7160e01b600052603260045260246000fd5b6101a081019081106001600160401b03821117610e5157604052565b90601f801991011681019081106001600160401b03821117610e5157604052565b6001600160401b038111610e5157601f01601f191660200190565b81601f8201121561014c5780359061192a826118f8565b9261193860405194856118d7565b8284526020838301011161014c57816000926020809301838601378301015290565b90600182811c9216801561198a575b602083101461197457565b634e487b7160e01b600052602260045260246000fd5b91607f1691611969565b90604051918260008254926119a88461195a565b8084529360018116908115611a1657506001146119cf575b506119cd925003836118d7565b565b90506000929192526020600020906000915b8183106119fa5750509060206119cd92820101386119c0565b60209193508060019154838589010152019101909184926119e1565b9050602092506119cd94915060ff191682840152151560051b820101386119c0565b60405190611a45826118bb565b6000610180838281526060602082015260606040820152606080820152606060808201528260a08201528260c08201528260e0820152826101008201528261012082015282610140820152826101608201520152565b6001600160401b038111610e515760051b60200190565b80518210156118a55760209160051b010190565b15611acd57565b60405162461bcd60e51b81526020600482015260126024820152712330b1ba37b93c9d102737ba1037bbb732b960711b6044820152606490fd5b15611b0e57565b60405162461bcd60e51b815260206004820152601d60248201527f466163746f72793a20496e73756666696369656e742062616c616e63650000006044820152606490fd5b3d15611b7e573d90611b64826118f8565b91611b7260405193846118d7565b82523d6000602084013e565b606090565b15611b8a57565b60405162461bcd60e51b815260206004820152601c60248201527f466163746f72793a20455448207472616e73666572206661696c6564000000006044820152606490fd5b919082018092116110b057565b919082039182116110b057565b818102929181159184041417156110b057565b8115611c06570490565b634e487b7160e01b600052601260045260246000fd5b60018060a01b03166000526003602052604060002060405190611c3e826118bb565b80546001600160a01b03168252611c5760018201611994565b6020830152611c6860028201611994565b6040830152611c7960038201611994565b6060830152611c8a60048201611994565b608083015260018060a01b0360058201541660a083015260068101549160c08101928352610180600b6007840154938460e0850152600881015461010085015260ff6009820154818116151561012087015260081c161515610140850152600a81015461016085015201549101526801a055690d9db800000190816801a055690d9db80000116110b057516b037790968dc8efffd100000003916b037790968dc8efffd100000083116110b05782611d52611d5892611d4c611d5d9686611be9565b92611bdc565b90611bfc565b611bdc565b90565b15611d6757565b60405162461bcd60e51b815260206004820152601a60248201527f466163746f72793a20546f6b656e2073616c6520636c6f7365640000000000006044820152606490fd5b15611db357565b60405162461bcd60e51b815260206004820152601f60248201527f466163746f72793a20546f6b656e2067726164756174656420746f20444558006044820152606490fd5b15611dff57565b606460405162461bcd60e51b815260206004820152602060248201527f466163746f72793a20416d6f756e74206d75737420626520706f7369746976656044820152fd5b9081602091031261014c5751801515810361014c5790565b60018060a01b03166000526003602052604060002060405190611e7d826118bb565b80546001600160a01b03168252611e9660018201611994565b6020830152611ea760028201611994565b6040830152611eb860038201611994565b6060830152611ec960048201611994565b608083015260018060a01b0360058201541660a083015260068101549160c08101928352610180600b6007840154938460e0850152600881015461010085015260ff6009820154818116151561012087015260081c161515610140850152600a81015461016085015201549101526801a055690d9db800000190816801a055690d9db80000116110b057516b037790968dc8efffd100000003916b037790968dc8efffd100000083116110b05782611d52611f9192611f8b611d5d9686611be9565b92611bcf565b90611bdc565b6001600160a01b0316600081815260036020526040908190209051611fbb816118bb565b81546001600160a01b03168152611fd460018301611994565b6020820152611fe560028301611994565b6040820152611ff660038301611994565b606082015261200760048301611994565b608082015260018060a01b0360058301541660a0820152610180600b6006840154938460c0850152600781015460e0850152600881015461010085015260ff6009820154818116151561012087015260081c161515610140850152600a8101546101608501520154910152156122135760009081526003602052604081209060405191612093836118bb565b80546001600160a01b031683526120ac60018201611994565b60208401526120bd60028201611994565b60408401526120ce60038201611994565b60608401526120df60048201611994565b608084015260018060a01b0360058201541660a084015260068101549260c08101938452610180600b6007840154938460e0850152600881015461010085015260ff6009820154818116151561012087015260081c161515610140850152600a81015461016085015201549101526801a055690d9db800000191826801a055690d9db80000116121ff57516b037790968dc8efffd100000003906b037790968dc8efffd100000082116121eb576121968284611be9565b90670de0b6b3a763ffff1983019283116121eb57506121b99291611d5891611bfc565b806b033b2e3c9fd0803ce800000002906b033b2e3c9fd0803ce80000008204036110b057670de0b6b3a7640000900490565b634e487b7160e01b81526011600452602490fd5b634e487b7160e01b82526011600452602482fd5b5060009056fe6080604052346103ee57610b3e80380380610019816103f3565b9283398101906080818303126103ee5780516001600160a01b038116908190036103ee5760208201516001600160401b0381116103ee578361005c918401610418565b60408301519093906001600160401b0381116103ee57606091610080918501610418565b92015183519091906001600160401b0381116102f757600354600181811c911680156103e4575b60208210146102d757601f811161037f575b50602094601f82116001146103185794819293949560009261030d575b50508160011b916000199060031b1c1916176003555b82516001600160401b0381116102f757600454600181811c911680156102ed575b60208210146102d757601f8111610272575b506020601f821160011461020b5781929394600092610200575b50508160011b916000199060031b1c1916176004555b3360018060a01b0319600554161760055560018060a01b0319600654161760065533156101ea576002548181018091116101d457600255600033815280602052604081208281540190556040519182527fddf252ad1be2c89b69c2b068fc378daa952ba7f163c4a11628f55a4df523b3ef60203393a36040516106ba90816104848239f35b634e487b7160e01b600052601160045260246000fd5b63ec442f0560e01b600052600060045260246000fd5b015190503880610139565b601f198216906004600052806000209160005b81811061025a57509583600195969710610241575b505050811b0160045561014f565b015160001960f88460031b161c19169055388080610233565b9192602060018192868b01518155019401920161021e565b60046000527f8a35acfbc15ff81a39ae7d344fd709f28e8600b4aa8c65c6b64bfe7fe36bd19b601f830160051c810191602084106102cd575b601f0160051c01905b8181106102c1575061011f565b600081556001016102b4565b90915081906102ab565b634e487b7160e01b600052602260045260246000fd5b90607f169061010d565b634e487b7160e01b600052604160045260246000fd5b0151905038806100d6565b601f198216956003600052806000209160005b8881106103675750836001959697981061034e575b505050811b016003556100ec565b015160001960f88460031b161c19169055388080610340565b9192602060018192868501518155019401920161032b565b60036000527fc2575a0e9e593c00f959f8c92f12db2869c3395a3b0502d05e2516446f71f85b601f830160051c810191602084106103da575b601f0160051c01905b8181106103ce57506100b9565b600081556001016103c1565b90915081906103b8565b90607f16906100a7565b600080fd5b6040519190601f01601f191682016001600160401b038111838210176102f757604052565b81601f820112156103ee578051906001600160401b0382116102f757610447601f8301601f19166020016103f3565b92828452602083830101116103ee5760005b82811061046e57505060206000918301015290565b8060208092840101518282870101520161045956fe608080604052600436101561001357600080fd5b60003560e01c90816302d05d3f146105265750806306fdde0314610450578063095ea7b3146103ca57806318160ddd146103ac57806323b872dd146102bf578063313ce567146102a357806370a08231146102695780638da5cb5b1461024057806395d89b411461011f578063a9059cbb146100ee5763dd62ed3e1461009857600080fd5b346100e95760403660031901126100e9576100b1610593565b6100b96105a9565b6001600160a01b039182166000908152600160209081526040808320949093168252928352819020549051908152f35b600080fd5b346100e95760403660031901126100e95761011461010a610593565b60243590336105bf565b602060405160018152f35b346100e95760003660031901126100e95760405160006004548060011c90600181168015610236575b6020831081146102225782855290811561020657506001146101af575b50819003601f01601f191681019067ffffffffffffffff821181831017610199576101958291826040528261054a565b0390f35b634e487b7160e01b600052604160045260246000fd5b905060046000527f8a35acfbc15ff81a39ae7d344fd709f28e8600b4aa8c65c6b64bfe7fe36bd19b6000905b8282106101f057506020915082010182610165565b60018160209254838588010152019101906101db565b90506020925060ff191682840152151560051b82010182610165565b634e487b7160e01b84526022600452602484fd5b91607f1691610148565b346100e95760003660031901126100e9576005546040516001600160a01b039091168152602090f35b346100e95760203660031901126100e9576001600160a01b0361028a610593565b1660005260006020526020604060002054604051908152f35b346100e95760003660031901126100e957602060405160128152f35b346100e95760603660031901126100e9576102d8610593565b6102e06105a9565b6001600160a01b0382166000818152600160208181526040808420338552909152909120549193604435939290918101610320575b5061011493506105bf565b83811061038f57841561037957331561036357610114946000526001602052604060002060018060a01b0333166000526020528360406000209103905584610315565b634a1406b160e11b600052600060045260246000fd5b63e602df0560e01b600052600060045260246000fd5b8390637dc7a0d960e11b6000523360045260245260445260646000fd5b346100e95760003660031901126100e9576020600254604051908152f35b346100e95760403660031901126100e9576103e3610593565b602435903315610379576001600160a01b031690811561036357336000526001602052604060002082600052602052806040600020556040519081527f8c5be1e5ebec7d5bd14f71427d1e84f3dd0314c0f7b2291e5b200ac8c7c3b92560203392a3602060405160018152f35b346100e95760003660031901126100e95760405160006003548060011c9060018116801561051c575b6020831081146102225782855290811561020657506001146104c55750819003601f01601f191681019067ffffffffffffffff821181831017610199576101958291826040528261054a565b905060036000527fc2575a0e9e593c00f959f8c92f12db2869c3395a3b0502d05e2516446f71f85b6000905b82821061050657506020915082010182610165565b60018160209254838588010152019101906104f1565b91607f1691610479565b346100e95760003660031901126100e9576006546001600160a01b03168152602090f35b91909160208152825180602083015260005b81811061057d575060409293506000838284010152601f8019910116010190565b806020809287010151604082860101520161055c565b600435906001600160a01b03821682036100e957565b602435906001600160a01b03821682036100e957565b6001600160a01b031690811561066e576001600160a01b031691821561065857600082815280602052604081205482811061063e5791604082827fddf252ad1be2c89b69c2b068fc378daa952ba7f163c4a11628f55a4df523b3ef958760209652828652038282205586815280845220818154019055604051908152a3565b916064928463391434e360e21b8452600452602452604452fd5b63ec442f0560e01b600052600060045260246000fd5b634b637e8f60e11b600052600060045260246000fdfea26469706673582212208d91e63fabfafad95826757a5f90706118a2e0a59a1954ef0d5c8870b0d7af6f64736f6c634300081b0033a26469706673582212202b7c1adf4d973645e158982f53eae422cfb0fc51409e7102bcacfc255ade7af764736f6c634300081b0033","opcodes":"PUSH1 0xA0 CALLVALUE PUSH1 0x70 JUMPI PUSH1 0x1F PUSH2 0x2E19 CODESIZE DUP2 SWAP1 SUB SWAP2 DUP3 ADD PUSH1 0x1F NOT AND DUP4 ADD SWAP2 PUSH1 0x1 PUSH1 0x1 PUSH1 0x40 SHL SUB DUP4 GT DUP5 DUP5 LT OR PUSH1 0x75 JUMPI DUP1 DUP5 SWAP3 PUSH1 0x20 SWAP5 PUSH1 0x40 MSTORE DUP4 CODECOPY DUP2 ADD SUB SLT PUSH1 0x70 JUMPI MLOAD PUSH1 0x0 DUP1 SLOAD PUSH1 0x1 PUSH1 0x1 PUSH1 0xA0 SHL SUB NOT AND CALLER OR SWAP1 SSTORE PUSH1 0x80 MSTORE PUSH1 0x40 MLOAD PUSH2 0x2D8D SWAP1 DUP2 PUSH2 0x8C DUP3 CODECOPY PUSH1 0x80 MLOAD DUP2 DUP2 DUP2 PUSH2 0x129 ADD MSTORE PUSH2 0x978 ADD MSTORE RETURN JUMPDEST PUSH1 0x0 DUP1 REVERT JUMPDEST PUSH4 0x4E487B71 PUSH1 0xE0 SHL PUSH1 0x0 MSTORE PUSH1 0x41 PUSH1 0x4 MSTORE PUSH1 0x24 PUSH1 0x0 REVERT INVALID PUSH1 0x80 DUP1 PUSH1 0x40 MSTORE PUSH1 0x4 CALLDATASIZE LT ISZERO PUSH2 0x13 JUMPI PUSH1 0x0 DUP1 REVERT JUMPDEST PUSH1 0x0 CALLDATALOAD PUSH1 0xE0 SHR SWAP1 DUP2 PUSH4 0x31BD4C4 EQ PUSH2 0x172A JUMPI POP DUP1 PUSH4 0x1FBC147B EQ PUSH2 0x160C JUMPI DUP1 PUSH4 0x2A5C792A EQ PUSH2 0x143B JUMPI DUP1 PUSH4 0x2E1A7D4D EQ PUSH2 0x13F2 JUMPI DUP1 PUSH4 0x4635256E EQ PUSH2 0x13CB JUMPI DUP1 PUSH4 0x4F64B2BE EQ PUSH2 0x1389 JUMPI DUP1 PUSH4 0x6805D6AD EQ PUSH2 0x4C9 JUMPI DUP1 PUSH4 0x6C197FF5 EQ PUSH2 0x118E JUMPI DUP1 PUSH4 0x78FF6EE3 EQ PUSH2 0x8EB JUMPI DUP1 PUSH4 0x7E1C0C09 EQ PUSH2 0x8CD JUMPI DUP1 PUSH4 0x7E309B92 EQ PUSH2 0x8A6 JUMPI DUP1 PUSH4 0x8DA5CB5B EQ PUSH2 0x87D JUMPI DUP1 PUSH4 0x97F548F7 EQ PUSH2 0x673 JUMPI DUP1 PUSH4 0x9AE71781 EQ PUSH2 0x64C JUMPI DUP1 PUSH4 0x9C0AD5ED EQ PUSH2 0x51A JUMPI DUP1 PUSH4 0xB47064C8 EQ PUSH2 0x4C9 JUMPI DUP1 PUSH4 0xB575E123 EQ PUSH2 0x477 JUMPI DUP1 PUSH4 0xCB24A72F EQ PUSH2 0x453 JUMPI DUP1 PUSH4 0xCC1F2AFA EQ PUSH2 0x42F JUMPI DUP1 PUSH4 0xCCE7EC13 EQ PUSH2 0x17C JUMPI DUP1 PUSH4 0xD146D31D EQ PUSH2 0x151 JUMPI PUSH4 0xDDCA3F43 EQ PUSH2 0x111 JUMPI PUSH1 0x0 DUP1 REVERT JUMPDEST CALLVALUE PUSH2 0x14C JUMPI PUSH1 0x0 CALLDATASIZE PUSH1 0x3 NOT ADD SLT PUSH2 0x14C JUMPI PUSH1 0x20 PUSH1 0x40 MLOAD PUSH32 0x0 DUP2 MSTORE RETURN JUMPDEST PUSH1 0x0 DUP1 REVERT JUMPDEST CALLVALUE PUSH2 0x14C JUMPI PUSH1 0x20 CALLDATASIZE PUSH1 0x3 NOT ADD SLT PUSH2 0x14C JUMPI PUSH1 0x20 PUSH2 0x174 PUSH2 0x16F PUSH2 0x185E JUMP JUMPDEST PUSH2 0x1F97 JUMP JUMPDEST PUSH1 0x40 MLOAD SWAP1 DUP2 MSTORE RETURN JUMPDEST PUSH1 0x40 CALLDATASIZE PUSH1 0x3 NOT ADD SLT PUSH2 0x14C JUMPI PUSH2 0x190 PUSH2 0x185E JUMP JUMPDEST PUSH1 0x24 CALLDATALOAD PUSH1 0x1 DUP1 PUSH1 0xA0 SHL SUB DUP3 AND SWAP2 DUP3 PUSH1 0x0 MSTORE PUSH1 0x3 PUSH1 0x20 MSTORE PUSH1 0x40 PUSH1 0x0 KECCAK256 PUSH1 0x9 DUP2 ADD PUSH2 0x1CB PUSH1 0xFF DUP3 SLOAD PUSH2 0x1C1 DUP3 DUP3 AND PUSH2 0x1D60 JUMP JUMPDEST PUSH1 0x8 SHR AND ISZERO PUSH2 0x1DAC JUMP JUMPDEST PUSH2 0x1D6 DUP5 ISZERO ISZERO PUSH2 0x1DF8 JUMP JUMPDEST PUSH1 0x6 DUP3 ADD SWAP3 DUP4 SLOAD SWAP3 PUSH12 0x295BE96E640669720000000 PUSH2 0x1F5 DUP8 DUP7 PUSH2 0x1BCF JUMP JUMPDEST GT PUSH2 0x3DE JUMPI PUSH2 0x204 DUP7 DUP4 PUSH2 0x1C1C JUMP JUMPDEST SWAP5 DUP6 CALLVALUE LT PUSH2 0x399 JUMPI PUSH2 0x217 DUP8 DUP10 SWAP7 PUSH2 0x1BCF JUMP JUMPDEST SWAP1 SSTORE PUSH1 0x8 PUSH2 0x235 PUSH1 0x7 DUP4 ADD SWAP4 PUSH2 0x22E DUP9 DUP7 SLOAD PUSH2 0x1BCF JUMP JUMPDEST DUP6 SSTORE PUSH2 0x1F97 JUMP JUMPDEST SWAP2 ADD SSTORE DUP3 PUSH1 0x0 MSTORE PUSH1 0x4 PUSH1 0x20 MSTORE PUSH1 0x40 PUSH1 0x0 KECCAK256 PUSH1 0x1 DUP1 PUSH1 0xA0 SHL SUB CALLER AND PUSH1 0x0 MSTORE PUSH1 0x20 MSTORE PUSH1 0x40 PUSH1 0x0 KECCAK256 PUSH2 0x265 DUP7 DUP3 SLOAD PUSH2 0x1BCF JUMP JUMPDEST SWAP1 SSTORE SLOAD SWAP1 PUSH9 0x14D1120D7B1600000 DUP3 LT ISZERO PUSH2 0x358 JUMPI JUMPDEST POP POP PUSH1 0x40 MLOAD PUSH4 0xA9059CBB PUSH1 0xE0 SHL DUP2 MSTORE CALLER PUSH1 0x4 DUP3 ADD MSTORE PUSH1 0x24 DUP2 ADD DUP5 SWAP1 MSTORE SWAP1 POP PUSH1 0x20 DUP2 PUSH1 0x44 DUP2 PUSH1 0x0 DUP9 GAS CALL DUP1 ISZERO PUSH2 0x316 JUMPI PUSH2 0x32B JUMPI JUMPDEST POP DUP1 CALLVALUE GT PUSH2 0x2F7 JUMPI JUMPDEST PUSH1 0x40 DUP1 MLOAD CALLER DUP2 MSTORE PUSH1 0x20 DUP2 ADD SWAP4 SWAP1 SWAP4 MSTORE DUP3 ADD MSTORE PUSH32 0x89F5ADC174562E07C9C9B1CAE7109BBECB21CF9D1B2847E550042B8653C54A0E SWAP1 DUP1 PUSH1 0x60 DUP2 ADD JUMPDEST SUB SWAP1 LOG2 STOP JUMPDEST PUSH1 0x0 DUP1 DUP1 DUP1 PUSH2 0x306 DUP6 CALLVALUE PUSH2 0x1BDC JUMP JUMPDEST DUP2 DUP2 ISZERO PUSH2 0x322 JUMPI JUMPDEST CALLER SWAP1 CALL PUSH2 0x2B8 JUMPI JUMPDEST PUSH1 0x40 MLOAD RETURNDATASIZE PUSH1 0x0 DUP3 RETURNDATACOPY RETURNDATASIZE SWAP1 REVERT JUMPDEST POP PUSH2 0x8FC PUSH2 0x30E JUMP JUMPDEST PUSH2 0x34C SWAP1 PUSH1 0x20 RETURNDATASIZE PUSH1 0x20 GT PUSH2 0x351 JUMPI JUMPDEST PUSH2 0x344 DUP2 DUP4 PUSH2 0x18D7 JUMP JUMPDEST DUP2 ADD SWAP1 PUSH2 0x1E43 JUMP JUMPDEST PUSH2 0x2AF JUMP JUMPDEST POP RETURNDATASIZE PUSH2 0x33A JUMP JUMPDEST DUP1 SLOAD PUSH2 0xFFFF NOT AND PUSH2 0x100 OR SWAP1 SSTORE PUSH1 0x40 MLOAD SWAP1 DUP2 MSTORE PUSH32 0x3A11B9C0CA38B86101CB9E6E1DD2F752C31467C6EAA353F931B801A338406DE6 SWAP1 PUSH1 0x20 SWAP1 LOG2 DUP3 DUP5 DUP1 PUSH2 0x27B JUMP JUMPDEST PUSH1 0x40 MLOAD PUSH3 0x461BCD PUSH1 0xE5 SHL DUP2 MSTORE PUSH1 0x20 PUSH1 0x4 DUP3 ADD MSTORE PUSH1 0x19 PUSH1 0x24 DUP3 ADD MSTORE PUSH32 0x466163746F72793A20496E73756666696369656E742045544800000000000000 PUSH1 0x44 DUP3 ADD MSTORE PUSH1 0x64 SWAP1 REVERT JUMPDEST PUSH1 0x40 MLOAD PUSH3 0x461BCD PUSH1 0xE5 SHL DUP2 MSTORE PUSH1 0x20 PUSH1 0x4 DUP3 ADD MSTORE PUSH1 0x24 DUP1 DUP3 ADD MSTORE PUSH32 0x466163746F72793A204578636565647320626F6E64696E67206375727665206C PUSH1 0x44 DUP3 ADD MSTORE PUSH4 0x1A5B5A5D PUSH1 0xE2 SHL PUSH1 0x64 DUP3 ADD MSTORE PUSH1 0x84 SWAP1 REVERT JUMPDEST CALLVALUE PUSH2 0x14C JUMPI PUSH1 0x0 CALLDATASIZE PUSH1 0x3 NOT ADD SLT PUSH2 0x14C JUMPI PUSH1 0x20 PUSH1 0x40 MLOAD PUSH9 0x14D1120D7B1600000 DUP2 MSTORE RETURN JUMPDEST CALLVALUE PUSH2 0x14C JUMPI PUSH1 0x0 CALLDATASIZE PUSH1 0x3 NOT ADD SLT PUSH2 0x14C JUMPI PUSH1 0x20 PUSH1 0x40 MLOAD PUSH9 0x1A055690D9DB80000 DUP2 MSTORE RETURN JUMPDEST CALLVALUE PUSH2 0x14C JUMPI PUSH1 0x20 CALLDATASIZE PUSH1 0x3 NOT ADD SLT PUSH2 0x14C JUMPI PUSH2 0x490 PUSH2 0x185E JUMP JUMPDEST PUSH2 0x4A5 PUSH1 0x1 DUP1 PUSH1 0xA0 SHL SUB PUSH1 0x0 SLOAD AND CALLER EQ PUSH2 0x1AC6 JUMP JUMPDEST PUSH1 0x1 PUSH1 0x1 PUSH1 0xA0 SHL SUB AND PUSH1 0x0 SWAP1 DUP2 MSTORE PUSH1 0x3 PUSH1 0x20 MSTORE PUSH1 0x40 SWAP1 KECCAK256 PUSH1 0x9 ADD DUP1 SLOAD PUSH1 0xFF NOT AND SWAP1 SSTORE STOP JUMPDEST CALLVALUE PUSH2 0x14C JUMPI PUSH1 0x40 CALLDATASIZE PUSH1 0x3 NOT ADD SLT PUSH2 0x14C JUMPI PUSH2 0x4E2 PUSH2 0x185E JUMP JUMPDEST PUSH2 0x4EA PUSH2 0x1874 JUMP JUMPDEST PUSH1 0x1 PUSH1 0x1 PUSH1 0xA0 SHL SUB SWAP2 DUP3 AND PUSH1 0x0 SWAP1 DUP2 MSTORE PUSH1 0x4 PUSH1 0x20 SWAP1 DUP2 MSTORE PUSH1 0x40 DUP1 DUP4 KECCAK256 SWAP5 SWAP1 SWAP4 AND DUP3 MSTORE SWAP3 DUP4 MSTORE DUP2 SWAP1 KECCAK256 SLOAD SWAP1 MLOAD SWAP1 DUP2 MSTORE RETURN JUMPDEST CALLVALUE PUSH2 0x14C JUMPI PUSH1 0x20 CALLDATASIZE PUSH1 0x3 NOT ADD SLT PUSH2 0x14C JUMPI PUSH1 0x1 PUSH1 0x1 PUSH1 0xA0 SHL SUB PUSH2 0x53B PUSH2 0x185E JUMP JUMPDEST AND PUSH1 0x0 SWAP1 DUP2 MSTORE PUSH1 0x3 PUSH1 0x20 MSTORE PUSH1 0x40 SWAP1 KECCAK256 DUP1 SLOAD PUSH1 0x1 PUSH1 0x1 PUSH1 0xA0 SHL SUB AND PUSH2 0x561 PUSH1 0x1 DUP4 ADD PUSH2 0x1994 JUMP JUMPDEST SWAP2 PUSH2 0x56E PUSH1 0x2 DUP3 ADD PUSH2 0x1994 JUMP JUMPDEST PUSH2 0x57A PUSH1 0x3 DUP4 ADD PUSH2 0x1994 JUMP JUMPDEST SWAP2 PUSH2 0x587 PUSH1 0x4 DUP3 ADD PUSH2 0x1994 JUMP JUMPDEST SWAP3 PUSH1 0x1 PUSH1 0xA0 SHL PUSH1 0x1 SWAP1 SUB PUSH1 0x5 DUP4 ADD SLOAD AND SWAP4 PUSH1 0x6 DUP4 ADD SLOAD PUSH1 0x7 DUP5 ADD SLOAD SWAP1 PUSH1 0x8 DUP6 ADD SLOAD SWAP3 PUSH1 0x9 DUP7 ADD SLOAD SWAP5 PUSH1 0xA DUP8 ADD SLOAD SWAP7 PUSH1 0xB ADD SLOAD SWAP8 PUSH1 0x40 MLOAD SWAP12 DUP13 SWAP12 DUP13 MSTORE PUSH1 0x20 DUP13 ADD PUSH2 0x1A0 SWAP1 MSTORE PUSH2 0x1A0 DUP13 ADD PUSH2 0x5D9 SWAP2 PUSH2 0x174F JUMP JUMPDEST DUP12 DUP2 SUB PUSH1 0x40 DUP14 ADD MSTORE PUSH2 0x5EA SWAP2 PUSH2 0x174F JUMP JUMPDEST DUP11 DUP2 SUB PUSH1 0x60 DUP13 ADD MSTORE PUSH2 0x5FB SWAP2 PUSH2 0x174F JUMP JUMPDEST DUP10 DUP2 SUB PUSH1 0x80 DUP12 ADD MSTORE PUSH2 0x60C SWAP2 PUSH2 0x174F JUMP JUMPDEST SWAP7 PUSH1 0xA0 DUP10 ADD MSTORE PUSH1 0xC0 DUP9 ADD MSTORE PUSH1 0xE0 DUP8 ADD MSTORE PUSH2 0x100 DUP7 ADD MSTORE PUSH1 0xFF DUP2 AND ISZERO ISZERO PUSH2 0x120 DUP7 ADD MSTORE PUSH1 0x8 SHR PUSH1 0xFF AND ISZERO ISZERO PUSH2 0x140 DUP6 ADD MSTORE PUSH2 0x160 DUP5 ADD MSTORE PUSH2 0x180 DUP4 ADD MSTORE SUB SWAP1 RETURN JUMPDEST CALLVALUE PUSH2 0x14C JUMPI PUSH1 0x40 CALLDATASIZE PUSH1 0x3 NOT ADD SLT PUSH2 0x14C JUMPI PUSH1 0x20 PUSH2 0x174 PUSH2 0x66A PUSH2 0x185E JUMP JUMPDEST PUSH1 0x24 CALLDATALOAD SWAP1 PUSH2 0x1E5B JUMP JUMPDEST CALLVALUE PUSH2 0x14C JUMPI PUSH1 0x20 CALLDATASIZE PUSH1 0x3 NOT ADD SLT PUSH2 0x14C JUMPI PUSH1 0x1 PUSH1 0x1 PUSH1 0xA0 SHL SUB PUSH2 0x694 PUSH2 0x185E JUMP JUMPDEST AND DUP1 PUSH1 0x0 MSTORE PUSH1 0x3 PUSH1 0x20 MSTORE PUSH1 0x40 PUSH1 0x0 KECCAK256 SWAP1 PUSH1 0xFF PUSH1 0x9 DUP4 ADD SLOAD PUSH1 0x8 SHR AND ISZERO PUSH2 0x828 JUMPI PUSH1 0x5 DUP3 ADD SWAP2 PUSH1 0x1 DUP1 PUSH1 0xA0 SHL SUB DUP4 SLOAD AND SWAP2 DUP3 CALLER SUB PUSH2 0x7D8 JUMPI PUSH1 0x40 MLOAD PUSH4 0x70A08231 PUSH1 0xE0 SHL DUP2 MSTORE ADDRESS PUSH1 0x4 DUP3 ADD MSTORE SWAP3 PUSH1 0x20 DUP5 PUSH1 0x24 DUP2 DUP6 GAS STATICCALL SWAP4 DUP5 ISZERO PUSH2 0x316 JUMPI PUSH1 0x0 SWAP5 PUSH2 0x7A4 JUMPI JUMPDEST POP DUP4 PUSH2 0x73B JUMPI JUMPDEST POP POP PUSH1 0x7 SWAP2 POP ADD DUP1 SLOAD SWAP2 DUP3 PUSH2 0x70F JUMPI STOP JUMPDEST SLOAD PUSH1 0x0 SWAP3 PUSH2 0x738 SWAP2 DUP5 SWAP2 DUP3 SWAP2 DUP3 SWAP2 DUP3 SWAP2 PUSH1 0x1 PUSH1 0x1 PUSH1 0xA0 SHL SUB AND GAS CALL PUSH2 0x732 PUSH2 0x1B53 JUMP JUMPDEST POP PUSH2 0x1B83 JUMP JUMPDEST SSTORE STOP JUMPDEST PUSH1 0x40 MLOAD PUSH4 0xA9059CBB PUSH1 0xE0 SHL DUP2 MSTORE PUSH1 0x1 PUSH1 0x1 PUSH1 0xA0 SHL SUB SWAP2 SWAP1 SWAP2 AND PUSH1 0x4 DUP3 ADD MSTORE PUSH1 0x24 DUP2 ADD SWAP4 SWAP1 SWAP4 MSTORE PUSH1 0x20 SWAP1 DUP4 SWAP1 PUSH1 0x44 SWAP1 DUP3 SWAP1 PUSH1 0x0 SWAP1 GAS CALL SWAP2 DUP3 ISZERO PUSH2 0x316 JUMPI PUSH1 0x7 SWAP3 PUSH2 0x785 JUMPI JUMPDEST DUP1 PUSH2 0x6FE JUMP JUMPDEST PUSH2 0x79D SWAP1 PUSH1 0x20 RETURNDATASIZE PUSH1 0x20 GT PUSH2 0x351 JUMPI PUSH2 0x344 DUP2 DUP4 PUSH2 0x18D7 JUMP JUMPDEST POP DUP4 PUSH2 0x77F JUMP JUMPDEST SWAP1 SWAP4 POP PUSH1 0x20 DUP2 RETURNDATASIZE PUSH1 0x20 GT PUSH2 0x7D0 JUMPI JUMPDEST DUP2 PUSH2 0x7C0 PUSH1 0x20 SWAP4 DUP4 PUSH2 0x18D7 JUMP JUMPDEST DUP2 ADD SUB SLT PUSH2 0x14C JUMPI MLOAD SWAP3 DUP6 PUSH2 0x6F7 JUMP JUMPDEST RETURNDATASIZE SWAP2 POP PUSH2 0x7B3 JUMP JUMPDEST PUSH1 0x40 MLOAD PUSH3 0x461BCD PUSH1 0xE5 SHL DUP2 MSTORE PUSH1 0x20 PUSH1 0x4 DUP3 ADD MSTORE PUSH1 0x22 PUSH1 0x24 DUP3 ADD MSTORE PUSH32 0x466163746F72793A204F6E6C792063726561746F722063616E20677261647561 PUSH1 0x44 DUP3 ADD MSTORE PUSH2 0x7465 PUSH1 0xF0 SHL PUSH1 0x64 DUP3 ADD MSTORE PUSH1 0x84 SWAP1 REVERT JUMPDEST PUSH1 0x40 MLOAD PUSH3 0x461BCD PUSH1 0xE5 SHL DUP2 MSTORE PUSH1 0x20 PUSH1 0x4 DUP3 ADD MSTORE PUSH1 0x27 PUSH1 0x24 DUP3 ADD MSTORE PUSH32 0x466163746F72793A20546F6B656E206E6F7420726561647920666F7220677261 PUSH1 0x44 DUP3 ADD MSTORE PUSH7 0x323AB0BA34B7B7 PUSH1 0xC9 SHL PUSH1 0x64 DUP3 ADD MSTORE PUSH1 0x84 SWAP1 REVERT JUMPDEST CALLVALUE PUSH2 0x14C JUMPI PUSH1 0x0 CALLDATASIZE PUSH1 0x3 NOT ADD SLT PUSH2 0x14C JUMPI PUSH1 0x0 SLOAD PUSH1 0x40 MLOAD PUSH1 0x1 PUSH1 0x1 PUSH1 0xA0 SHL SUB SWAP1 SWAP2 AND DUP2 MSTORE PUSH1 0x20 SWAP1 RETURN JUMPDEST CALLVALUE PUSH2 0x14C JUMPI PUSH1 0x0 CALLDATASIZE PUSH1 0x3 NOT ADD SLT PUSH2 0x14C JUMPI PUSH1 0x20 PUSH1 0x40 MLOAD PUSH12 0x37790968DC8EFFFD1000000 DUP2 MSTORE RETURN JUMPDEST CALLVALUE PUSH2 0x14C JUMPI PUSH1 0x0 CALLDATASIZE PUSH1 0x3 NOT ADD SLT PUSH2 0x14C JUMPI PUSH1 0x20 PUSH1 0x1 SLOAD PUSH1 0x40 MLOAD SWAP1 DUP2 MSTORE RETURN JUMPDEST PUSH1 0x80 CALLDATASIZE PUSH1 0x3 NOT ADD SLT PUSH2 0x14C JUMPI PUSH1 0x4 CALLDATALOAD PUSH1 0x1 PUSH1 0x1 PUSH1 0x40 SHL SUB DUP2 GT PUSH2 0x14C JUMPI PUSH2 0x916 SWAP1 CALLDATASIZE SWAP1 PUSH1 0x4 ADD PUSH2 0x1913 JUMP JUMPDEST PUSH1 0x24 CALLDATALOAD PUSH1 0x1 PUSH1 0x1 PUSH1 0x40 SHL SUB DUP2 GT PUSH2 0x14C JUMPI PUSH2 0x935 SWAP1 CALLDATASIZE SWAP1 PUSH1 0x4 ADD PUSH2 0x1913 JUMP JUMPDEST SWAP1 PUSH1 0x44 CALLDATALOAD PUSH1 0x1 PUSH1 0x1 PUSH1 0x40 SHL SUB DUP2 GT PUSH2 0x14C JUMPI PUSH2 0x955 SWAP1 CALLDATASIZE SWAP1 PUSH1 0x4 ADD PUSH2 0x1913 JUMP JUMPDEST SWAP2 PUSH1 0x64 CALLDATALOAD PUSH1 0x1 PUSH1 0x1 PUSH1 0x40 SHL SUB DUP2 GT PUSH2 0x14C JUMPI PUSH2 0x975 SWAP1 CALLDATASIZE SWAP1 PUSH1 0x4 ADD PUSH2 0x1913 JUMP JUMPDEST SWAP3 PUSH32 0x0 CALLVALUE LT PUSH2 0x1149 JUMPI DUP3 MLOAD ISZERO PUSH2 0x110B JUMPI DUP2 MLOAD ISZERO PUSH2 0x10C6 JUMPI PUSH1 0x40 MLOAD PUSH2 0xB3E DUP1 DUP3 ADD DUP3 DUP2 LT PUSH1 0x1 PUSH1 0x1 PUSH1 0x40 SHL SUB DUP3 GT OR PUSH2 0xE51 JUMPI DUP3 SWAP2 PUSH2 0x221A DUP4 CODECOPY CALLER DUP2 MSTORE PUSH1 0x80 PUSH1 0x20 DUP3 ADD MSTORE PUSH12 0x33B2E3C9FD0803CE8000000 PUSH1 0x60 PUSH2 0xA04 PUSH2 0x9F6 PUSH1 0x80 DUP6 ADD DUP11 PUSH2 0x174F JUMP JUMPDEST DUP5 DUP2 SUB PUSH1 0x40 DUP7 ADD MSTORE DUP9 PUSH2 0x174F JUMP JUMPDEST SWAP3 ADD MSTORE SUB SWAP1 PUSH1 0x0 CREATE DUP1 ISZERO PUSH2 0x316 JUMPI PUSH1 0x1 DUP1 PUSH1 0xA0 SHL SUB AND SWAP4 PUSH1 0x2 SLOAD PUSH9 0x10000000000000000 DUP2 LT ISZERO PUSH2 0xE51 JUMPI DUP1 PUSH1 0x1 PUSH2 0xA3F SWAP3 ADD PUSH1 0x2 SSTORE PUSH2 0x188A JUMP JUMPDEST DUP2 SLOAD PUSH1 0x1 PUSH1 0x1 PUSH1 0xA0 SHL SUB PUSH1 0x3 SWAP3 SWAP1 SWAP3 SHL SWAP2 DUP3 SHL NOT AND SWAP1 DUP8 SWAP1 SHL OR SWAP1 SSTORE PUSH1 0x1 SLOAD PUSH1 0x0 NOT DUP2 EQ PUSH2 0x10B0 JUMPI PUSH1 0x1 ADD PUSH1 0x1 SSTORE PUSH1 0x40 MLOAD SWAP1 PUSH2 0xA7A DUP3 PUSH2 0x18BB JUMP JUMPDEST DUP6 DUP3 MSTORE PUSH1 0x20 DUP3 ADD SWAP3 DUP6 DUP5 MSTORE PUSH1 0x40 DUP4 ADD DUP6 DUP2 MSTORE PUSH1 0x60 DUP5 ADD SWAP2 DUP3 MSTORE PUSH1 0x80 DUP5 ADD SWAP3 DUP4 MSTORE CALLER PUSH1 0xA0 DUP6 ADD MSTORE PUSH1 0x0 PUSH1 0xC0 DUP6 ADD MSTORE PUSH1 0x0 PUSH1 0xE0 DUP6 ADD MSTORE PUSH1 0x0 PUSH2 0x100 DUP6 ADD MSTORE PUSH1 0x1 PUSH2 0x120 DUP6 ADD MSTORE PUSH1 0x0 PUSH2 0x140 DUP6 ADD MSTORE TIMESTAMP PUSH2 0x160 DUP6 ADD MSTORE PUSH1 0x0 PUSH2 0x180 DUP6 ADD MSTORE DUP8 PUSH1 0x0 MSTORE PUSH1 0x3 PUSH1 0x20 MSTORE PUSH1 0x40 PUSH1 0x0 KECCAK256 SWAP5 PUSH1 0x1 DUP1 PUSH1 0xA0 SHL SUB PUSH1 0x1 DUP1 PUSH1 0xA0 SHL SUB DUP7 MLOAD AND AND PUSH12 0xFFFFFFFFFFFFFFFFFFFFFFFF PUSH1 0xA0 SHL DUP8 SLOAD AND OR DUP7 SSTORE PUSH1 0x1 DUP7 ADD SWAP1 MLOAD DUP1 MLOAD SWAP1 PUSH1 0x1 PUSH1 0x1 PUSH1 0x40 SHL SUB DUP3 GT PUSH2 0xE51 JUMPI DUP2 SWAP1 PUSH2 0xB2F DUP5 SLOAD PUSH2 0x195A JUMP JUMPDEST PUSH1 0x1F DUP2 GT PUSH2 0x105D JUMPI JUMPDEST POP PUSH1 0x20 SWAP1 PUSH1 0x1F DUP4 GT PUSH1 0x1 EQ PUSH2 0xFF8 JUMPI PUSH1 0x0 SWAP3 PUSH2 0xFED JUMPI JUMPDEST POP POP DUP2 PUSH1 0x1 SHL SWAP2 PUSH1 0x0 NOT SWAP1 PUSH1 0x3 SHL SHR NOT AND OR SWAP1 SSTORE JUMPDEST MLOAD DUP1 MLOAD PUSH1 0x2 DUP7 ADD SWAP2 PUSH1 0x1 PUSH1 0x1 PUSH1 0x40 SHL SUB DUP3 GT PUSH2 0xE51 JUMPI DUP2 SWAP1 PUSH2 0xB86 DUP5 SLOAD PUSH2 0x195A JUMP JUMPDEST PUSH1 0x1F DUP2 GT PUSH2 0xF9A JUMPI JUMPDEST POP PUSH1 0x20 SWAP1 PUSH1 0x1F DUP4 GT PUSH1 0x1 EQ PUSH2 0xF35 JUMPI PUSH1 0x0 SWAP3 PUSH2 0xF2A JUMPI JUMPDEST POP POP DUP2 PUSH1 0x1 SHL SWAP2 PUSH1 0x0 NOT SWAP1 PUSH1 0x3 SHL SHR NOT AND OR SWAP1 SSTORE JUMPDEST MLOAD DUP1 MLOAD PUSH1 0x3 DUP6 ADD SWAP2 PUSH1 0x1 PUSH1 0x1 PUSH1 0x40 SHL SUB DUP3 GT PUSH2 0xE51 JUMPI DUP2 SWAP1 PUSH2 0xBDD DUP5 SLOAD PUSH2 0x195A JUMP JUMPDEST PUSH1 0x1F DUP2 GT PUSH2 0xED7 JUMPI JUMPDEST POP PUSH1 0x20 SWAP1 PUSH1 0x1F DUP4 GT PUSH1 0x1 EQ PUSH2 0xE72 JUMPI PUSH1 0x0 SWAP3 PUSH2 0xE67 JUMPI JUMPDEST POP POP DUP2 PUSH1 0x1 SHL SWAP2 PUSH1 0x0 NOT SWAP1 PUSH1 0x3 SHL SHR NOT AND OR SWAP1 SSTORE JUMPDEST MLOAD DUP1 MLOAD SWAP1 PUSH1 0x1 PUSH1 0x1 PUSH1 0x40 SHL SUB DUP3 GT PUSH2 0xE51 JUMPI PUSH2 0xC31 PUSH1 0x4 DUP6 ADD SLOAD PUSH2 0x195A JUMP JUMPDEST PUSH1 0x1F DUP2 GT PUSH2 0xE06 JUMPI JUMPDEST POP PUSH1 0x20 SWAP1 PUSH1 0x1F DUP4 GT PUSH1 0x1 EQ PUSH2 0xD67 JUMPI PUSH2 0x180 PUSH2 0xD51 SWAP5 DUP5 PUSH2 0xD43 SWAP9 SWAP6 PUSH32 0xE0154C2812457C3175EAFD0218AAC83E6CDB6230A1AC0105A405E547DC20F492 SWAP11 SWAP9 SWAP6 PUSH1 0xB SWAP6 PUSH1 0x0 SWAP3 PUSH2 0xD5C JUMPI JUMPDEST POP POP DUP2 PUSH1 0x1 SHL SWAP2 PUSH1 0x0 NOT SWAP1 PUSH1 0x3 SHL SHR NOT AND OR PUSH1 0x4 DUP6 ADD SSTORE JUMPDEST PUSH1 0x1 DUP1 PUSH1 0xA0 SHL SUB PUSH1 0xA0 DUP3 ADD MLOAD AND PUSH1 0x5 DUP6 ADD SWAP1 PUSH1 0x1 DUP1 PUSH1 0xA0 SHL SUB AND PUSH12 0xFFFFFFFFFFFFFFFFFFFFFFFF PUSH1 0xA0 SHL DUP3 SLOAD AND OR SWAP1 SSTORE PUSH1 0xC0 DUP2 ADD MLOAD PUSH1 0x6 DUP6 ADD SSTORE PUSH1 0xE0 DUP2 ADD MLOAD PUSH1 0x7 DUP6 ADD SSTORE PUSH2 0x100 DUP2 ADD MLOAD PUSH1 0x8 DUP6 ADD SSTORE PUSH1 0x9 DUP5 ADD PUSH2 0x120 DUP3 ADD MLOAD ISZERO ISZERO PUSH1 0xFF DUP1 NOT DUP4 SLOAD AND SWAP2 AND OR DUP2 SSTORE PUSH2 0x140 DUP3 ADD MLOAD ISZERO ISZERO PUSH2 0xFF00 DUP3 SLOAD SWAP2 PUSH1 0x8 SHL AND SWAP1 PUSH2 0xFF00 NOT AND OR SWAP1 SSTORE PUSH2 0x160 DUP2 ADD MLOAD PUSH1 0xA DUP6 ADD SSTORE ADD MLOAD SWAP2 ADD SSTORE PUSH1 0x40 MLOAD SWAP4 DUP5 SWAP4 PUSH1 0x60 DUP6 MSTORE PUSH1 0x60 DUP6 ADD SWAP1 PUSH2 0x174F JUMP JUMPDEST SWAP1 DUP4 DUP3 SUB PUSH1 0x20 DUP6 ADD MSTORE PUSH2 0x174F JUMP JUMPDEST CALLER PUSH1 0x40 DUP4 ADD MSTORE SUB SWAP1 LOG2 STOP JUMPDEST ADD MLOAD SWAP1 POP DUP13 DUP1 PUSH2 0xC85 JUMP JUMPDEST SWAP1 PUSH1 0x4 DUP6 ADD PUSH1 0x0 MSTORE DUP1 PUSH1 0x0 KECCAK256 SWAP2 PUSH1 0x0 JUMPDEST PUSH1 0x1F NOT DUP6 AND DUP2 LT PUSH2 0xDEE JUMPI POP PUSH2 0xD51 SWAP5 PUSH1 0x1 DUP6 PUSH32 0xE0154C2812457C3175EAFD0218AAC83E6CDB6230A1AC0105A405E547DC20F492 SWAP11 SWAP9 SWAP6 PUSH1 0xB SWAP6 PUSH2 0x180 SWAP6 PUSH2 0xD43 SWAP13 SWAP10 PUSH1 0x1F NOT DUP2 AND LT PUSH2 0xDD5 JUMPI JUMPDEST POP POP POP DUP2 SHL ADD PUSH1 0x4 DUP6 ADD SSTORE PUSH2 0xC9D JUMP JUMPDEST ADD MLOAD PUSH1 0x0 NOT PUSH1 0xF8 DUP5 PUSH1 0x3 SHL AND SHR NOT AND SWAP1 SSTORE DUP13 DUP1 DUP1 PUSH2 0xDC5 JUMP JUMPDEST SWAP2 SWAP3 PUSH1 0x20 PUSH1 0x1 DUP2 SWAP3 DUP7 DUP6 ADD MLOAD DUP2 SSTORE ADD SWAP5 ADD SWAP3 ADD PUSH2 0xD77 JUMP JUMPDEST PUSH1 0x4 DUP6 ADD PUSH1 0x0 MSTORE PUSH1 0x20 PUSH1 0x0 KECCAK256 PUSH1 0x1F DUP5 ADD PUSH1 0x5 SHR DUP2 ADD SWAP2 PUSH1 0x20 DUP6 LT PUSH2 0xE47 JUMPI JUMPDEST PUSH1 0x1F ADD PUSH1 0x5 SHR ADD SWAP1 JUMPDEST DUP2 DUP2 LT PUSH2 0xE3B JUMPI POP PUSH2 0xC3A JUMP JUMPDEST PUSH1 0x0 DUP2 SSTORE PUSH1 0x1 ADD PUSH2 0xE2E JUMP JUMPDEST SWAP1 SWAP2 POP DUP2 SWAP1 PUSH2 0xE25 JUMP JUMPDEST PUSH4 0x4E487B71 PUSH1 0xE0 SHL PUSH1 0x0 MSTORE PUSH1 0x41 PUSH1 0x4 MSTORE PUSH1 0x24 PUSH1 0x0 REVERT JUMPDEST ADD MLOAD SWAP1 POP DUP10 DUP1 PUSH2 0xBFD JUMP JUMPDEST PUSH1 0x0 DUP6 DUP2 MSTORE DUP3 DUP2 KECCAK256 SWAP4 POP PUSH1 0x1F NOT DUP6 AND SWAP1 JUMPDEST DUP2 DUP2 LT PUSH2 0xEBF JUMPI POP SWAP1 DUP5 PUSH1 0x1 SWAP6 SWAP5 SWAP4 SWAP3 LT PUSH2 0xEA6 JUMPI JUMPDEST POP POP POP DUP2 SHL ADD SWAP1 SSTORE PUSH2 0xC12 JUMP JUMPDEST ADD MLOAD PUSH1 0x0 NOT PUSH1 0xF8 DUP5 PUSH1 0x3 SHL AND SHR NOT AND SWAP1 SSTORE DUP10 DUP1 DUP1 PUSH2 0xE99 JUMP JUMPDEST SWAP3 SWAP4 PUSH1 0x20 PUSH1 0x1 DUP2 SWAP3 DUP8 DUP7 ADD MLOAD DUP2 SSTORE ADD SWAP6 ADD SWAP4 ADD PUSH2 0xE83 JUMP JUMPDEST SWAP1 SWAP2 POP DUP4 PUSH1 0x0 MSTORE PUSH1 0x20 PUSH1 0x0 KECCAK256 PUSH1 0x1F DUP5 ADD PUSH1 0x5 SHR DUP2 ADD SWAP2 PUSH1 0x20 DUP6 LT PUSH2 0xF20 JUMPI JUMPDEST SWAP1 PUSH1 0x1F DUP6 SWAP5 SWAP4 SWAP3 ADD PUSH1 0x5 SHR ADD SWAP1 JUMPDEST DUP2 DUP2 LT PUSH2 0xF11 JUMPI POP PUSH2 0xBE6 JUMP JUMPDEST PUSH1 0x0 DUP2 SSTORE DUP5 SWAP4 POP PUSH1 0x1 ADD PUSH2 0xF04 JUMP JUMPDEST SWAP1 SWAP2 POP DUP2 SWAP1 PUSH2 0xEF6 JUMP JUMPDEST ADD MLOAD SWAP1 POP DUP11 DUP1 PUSH2 0xBA6 JUMP JUMPDEST PUSH1 0x0 DUP6 DUP2 MSTORE DUP3 DUP2 KECCAK256 SWAP4 POP PUSH1 0x1F NOT DUP6 AND SWAP1 JUMPDEST DUP2 DUP2 LT PUSH2 0xF82 JUMPI POP SWAP1 DUP5 PUSH1 0x1 SWAP6 SWAP5 SWAP4 SWAP3 LT PUSH2 0xF69 JUMPI JUMPDEST POP POP POP DUP2 SHL ADD SWAP1 SSTORE PUSH2 0xBBB JUMP JUMPDEST ADD MLOAD PUSH1 0x0 NOT PUSH1 0xF8 DUP5 PUSH1 0x3 SHL AND SHR NOT AND SWAP1 SSTORE DUP11 DUP1 DUP1 PUSH2 0xF5C JUMP JUMPDEST SWAP3 SWAP4 PUSH1 0x20 PUSH1 0x1 DUP2 SWAP3 DUP8 DUP7 ADD MLOAD DUP2 SSTORE ADD SWAP6 ADD SWAP4 ADD PUSH2 0xF46 JUMP JUMPDEST SWAP1 SWAP2 POP DUP4 PUSH1 0x0 MSTORE PUSH1 0x20 PUSH1 0x0 KECCAK256 PUSH1 0x1F DUP5 ADD PUSH1 0x5 SHR DUP2 ADD SWAP2 PUSH1 0x20 DUP6 LT PUSH2 0xFE3 JUMPI JUMPDEST SWAP1 PUSH1 0x1F DUP6 SWAP5 SWAP4 SWAP3 ADD PUSH1 0x5 SHR ADD SWAP1 JUMPDEST DUP2 DUP2 LT PUSH2 0xFD4 JUMPI POP PUSH2 0xB8F JUMP JUMPDEST PUSH1 0x0 DUP2 SSTORE DUP5 SWAP4 POP PUSH1 0x1 ADD PUSH2 0xFC7 JUMP JUMPDEST SWAP1 SWAP2 POP DUP2 SWAP1 PUSH2 0xFB9 JUMP JUMPDEST ADD MLOAD SWAP1 POP DUP12 DUP1 PUSH2 0xB4F JUMP JUMPDEST PUSH1 0x0 DUP6 DUP2 MSTORE DUP3 DUP2 KECCAK256 SWAP4 POP PUSH1 0x1F NOT DUP6 AND SWAP1 JUMPDEST DUP2 DUP2 LT PUSH2 0x1045 JUMPI POP SWAP1 DUP5 PUSH1 0x1 SWAP6 SWAP5 SWAP4 SWAP3 LT PUSH2 0x102C JUMPI JUMPDEST POP POP POP DUP2 SHL ADD SWAP1 SSTORE PUSH2 0xB64 JUMP JUMPDEST ADD MLOAD PUSH1 0x0 NOT PUSH1 0xF8 DUP5 PUSH1 0x3 SHL AND SHR NOT AND SWAP1 SSTORE DUP12 DUP1 DUP1 PUSH2 0x101F JUMP JUMPDEST SWAP3 SWAP4 PUSH1 0x20 PUSH1 0x1 DUP2 SWAP3 DUP8 DUP7 ADD MLOAD DUP2 SSTORE ADD SWAP6 ADD SWAP4 ADD PUSH2 0x1009 JUMP JUMPDEST SWAP1 SWAP2 POP DUP4 PUSH1 0x0 MSTORE PUSH1 0x20 PUSH1 0x0 KECCAK256 PUSH1 0x1F DUP5 ADD PUSH1 0x5 SHR DUP2 ADD SWAP2 PUSH1 0x20 DUP6 LT PUSH2 0x10A6 JUMPI JUMPDEST SWAP1 PUSH1 0x1F DUP6 SWAP5 SWAP4 SWAP3 ADD PUSH1 0x5 SHR ADD SWAP1 JUMPDEST DUP2 DUP2 LT PUSH2 0x1097 JUMPI POP PUSH2 0xB38 JUMP JUMPDEST PUSH1 0x0 DUP2 SSTORE DUP5 SWAP4 POP PUSH1 0x1 ADD PUSH2 0x108A JUMP JUMPDEST SWAP1 SWAP2 POP DUP2 SWAP1 PUSH2 0x107C JUMP JUMPDEST PUSH4 0x4E487B71 PUSH1 0xE0 SHL PUSH1 0x0 MSTORE PUSH1 0x11 PUSH1 0x4 MSTORE PUSH1 0x24 PUSH1 0x0 REVERT JUMPDEST PUSH1 0x40 MLOAD PUSH3 0x461BCD PUSH1 0xE5 SHL DUP2 MSTORE PUSH1 0x20 PUSH1 0x4 DUP3 ADD MSTORE PUSH1 0x18 PUSH1 0x24 DUP3 ADD MSTORE PUSH32 0x466163746F72793A2053796D626F6C2072657175697265640000000000000000 PUSH1 0x44 DUP3 ADD MSTORE PUSH1 0x64 SWAP1 REVERT JUMPDEST PUSH1 0x40 MLOAD PUSH3 0x461BCD PUSH1 0xE5 SHL DUP2 MSTORE PUSH1 0x20 PUSH1 0x4 DUP3 ADD MSTORE PUSH1 0x16 PUSH1 0x24 DUP3 ADD MSTORE PUSH22 0x119858DD1BDC9E4E8813985B59481C995C5D5A5C9959 PUSH1 0x52 SHL PUSH1 0x44 DUP3 ADD MSTORE PUSH1 0x64 SWAP1 REVERT JUMPDEST PUSH1 0x40 MLOAD PUSH3 0x461BCD PUSH1 0xE5 SHL DUP2 MSTORE PUSH1 0x20 PUSH1 0x4 DUP3 ADD MSTORE PUSH1 0x1C PUSH1 0x24 DUP3 ADD MSTORE PUSH32 0x466163746F72793A2043726561746F7220666565206E6F74206D657400000000 PUSH1 0x44 DUP3 ADD MSTORE PUSH1 0x64 SWAP1 REVERT JUMPDEST CALLVALUE PUSH2 0x14C JUMPI PUSH1 0x40 CALLDATASIZE PUSH1 0x3 NOT ADD SLT PUSH2 0x14C JUMPI PUSH2 0x11A7 PUSH2 0x185E JUMP JUMPDEST PUSH1 0x24 CALLDATALOAD PUSH1 0x1 DUP1 PUSH1 0xA0 SHL SUB DUP3 AND SWAP2 DUP3 PUSH1 0x0 MSTORE PUSH1 0x3 PUSH1 0x20 MSTORE PUSH1 0x40 PUSH1 0x0 KECCAK256 PUSH2 0x11D7 PUSH1 0xFF PUSH1 0x9 DUP4 ADD SLOAD PUSH2 0x1C1 DUP3 DUP3 AND PUSH2 0x1D60 JUMP JUMPDEST PUSH2 0x11E2 DUP4 ISZERO ISZERO PUSH2 0x1DF8 JUMP JUMPDEST DUP4 PUSH1 0x0 MSTORE PUSH1 0x4 PUSH1 0x20 MSTORE PUSH1 0x40 PUSH1 0x0 KECCAK256 PUSH1 0x1 DUP1 PUSH1 0xA0 SHL SUB CALLER AND PUSH1 0x0 MSTORE PUSH1 0x20 MSTORE PUSH2 0x1210 DUP4 PUSH1 0x40 PUSH1 0x0 KECCAK256 SLOAD LT ISZERO PUSH2 0x1B07 JUMP JUMPDEST PUSH2 0x121A DUP4 DUP4 PUSH2 0x1E5B JUMP JUMPDEST SWAP2 DUP3 SELFBALANCE LT PUSH2 0x1335 JUMPI PUSH2 0x124F PUSH1 0x8 SWAP2 PUSH1 0x6 DUP5 ADD PUSH2 0x1237 DUP8 DUP3 SLOAD PUSH2 0x1BDC JUMP JUMPDEST SWAP1 SSTORE PUSH1 0x7 DUP5 ADD PUSH2 0x1248 DUP7 DUP3 SLOAD PUSH2 0x1BDC JUMP JUMPDEST SWAP1 SSTORE PUSH2 0x1F97 JUMP JUMPDEST SWAP2 ADD SSTORE DUP3 PUSH1 0x0 MSTORE PUSH1 0x4 PUSH1 0x20 MSTORE PUSH1 0x40 PUSH1 0x0 KECCAK256 PUSH1 0x1 DUP1 PUSH1 0xA0 SHL SUB CALLER AND PUSH1 0x0 MSTORE PUSH1 0x20 MSTORE PUSH1 0x40 PUSH1 0x0 KECCAK256 PUSH2 0x127F DUP4 DUP3 SLOAD PUSH2 0x1BDC JUMP JUMPDEST SWAP1 SSTORE PUSH1 0x40 MLOAD PUSH4 0x23B872DD PUSH1 0xE0 SHL DUP2 MSTORE CALLER PUSH1 0x4 DUP3 ADD MSTORE ADDRESS PUSH1 0x24 DUP3 ADD MSTORE PUSH1 0x44 DUP2 ADD DUP4 SWAP1 MSTORE PUSH1 0x20 DUP2 PUSH1 0x64 DUP2 PUSH1 0x0 DUP9 GAS CALL DUP1 ISZERO PUSH2 0x316 JUMPI PUSH2 0x1318 JUMPI JUMPDEST POP DUP1 PUSH1 0x0 DUP2 ISZERO PUSH2 0x130F JUMPI JUMPDEST PUSH1 0x0 DUP1 DUP1 SWAP4 DUP2 SWAP4 CALLER SWAP1 CALL ISZERO PUSH2 0x316 JUMPI PUSH1 0x40 DUP1 MLOAD CALLER DUP2 MSTORE PUSH1 0x20 DUP2 ADD SWAP4 SWAP1 SWAP4 MSTORE DUP3 ADD MSTORE PUSH32 0xA082022E93CFCD9F1DA5F9236718053910F7E840DA080C789C7845698DC032FF SWAP1 DUP1 PUSH1 0x60 DUP2 ADD PUSH2 0x2F2 JUMP JUMPDEST POP PUSH2 0x8FC PUSH2 0x12C2 JUMP JUMPDEST PUSH2 0x1330 SWAP1 PUSH1 0x20 RETURNDATASIZE PUSH1 0x20 GT PUSH2 0x351 JUMPI PUSH2 0x344 DUP2 DUP4 PUSH2 0x18D7 JUMP JUMPDEST PUSH2 0x12B7 JUMP JUMPDEST PUSH1 0x40 MLOAD PUSH3 0x461BCD PUSH1 0xE5 SHL DUP2 MSTORE PUSH1 0x20 PUSH1 0x4 DUP3 ADD MSTORE PUSH1 0x26 PUSH1 0x24 DUP3 ADD MSTORE PUSH32 0x466163746F72793A20496E73756666696369656E7420636F6E74726163742062 PUSH1 0x44 DUP3 ADD MSTORE PUSH6 0x616C616E6365 PUSH1 0xD0 SHL PUSH1 0x64 DUP3 ADD MSTORE PUSH1 0x84 SWAP1 REVERT JUMPDEST CALLVALUE PUSH2 0x14C JUMPI PUSH1 0x20 CALLDATASIZE PUSH1 0x3 NOT ADD SLT PUSH2 0x14C JUMPI PUSH1 0x4 CALLDATALOAD PUSH1 0x2 SLOAD DUP2 LT ISZERO PUSH2 0x14C JUMPI PUSH2 0x13B2 PUSH1 0x20 SWAP2 PUSH2 0x188A JUMP JUMPDEST SWAP1 SLOAD PUSH1 0x40 MLOAD PUSH1 0x3 SWAP3 SWAP1 SWAP3 SHL SHR PUSH1 0x1 PUSH1 0x1 PUSH1 0xA0 SHL SUB AND DUP2 MSTORE RETURN JUMPDEST CALLVALUE PUSH2 0x14C JUMPI PUSH1 0x40 CALLDATASIZE PUSH1 0x3 NOT ADD SLT PUSH2 0x14C JUMPI PUSH1 0x20 PUSH2 0x174 PUSH2 0x13E9 PUSH2 0x185E JUMP JUMPDEST PUSH1 0x24 CALLDATALOAD SWAP1 PUSH2 0x1C1C JUMP JUMPDEST CALLVALUE PUSH2 0x14C JUMPI PUSH1 0x20 CALLDATASIZE PUSH1 0x3 NOT ADD SLT PUSH2 0x14C JUMPI PUSH2 0x1439 PUSH1 0x0 DUP1 DUP1 DUP1 PUSH1 0x4 CALLDATALOAD PUSH1 0x1 DUP1 PUSH1 0xA0 SHL SUB DUP3 SLOAD AND PUSH2 0x1423 DUP2 CALLER EQ PUSH2 0x1AC6 JUMP JUMPDEST PUSH2 0x142F SELFBALANCE DUP4 GT ISZERO PUSH2 0x1B07 JUMP JUMPDEST GAS CALL PUSH2 0x732 PUSH2 0x1B53 JUMP JUMPDEST STOP JUMPDEST CALLVALUE PUSH2 0x14C JUMPI PUSH1 0x0 CALLDATASIZE PUSH1 0x3 NOT ADD SLT PUSH2 0x14C JUMPI PUSH1 0x1 SLOAD PUSH2 0x1458 DUP2 PUSH2 0x1A9B JUMP JUMPDEST SWAP1 PUSH2 0x1466 PUSH1 0x40 MLOAD SWAP3 DUP4 PUSH2 0x18D7 JUMP JUMPDEST DUP1 DUP3 MSTORE PUSH1 0x1F NOT PUSH2 0x1475 DUP3 PUSH2 0x1A9B JUMP JUMPDEST ADD PUSH1 0x0 JUMPDEST DUP2 DUP2 LT PUSH2 0x15F5 JUMPI POP POP PUSH1 0x0 JUMPDEST DUP2 DUP2 LT PUSH2 0x14F4 JUMPI DUP3 PUSH1 0x40 MLOAD DUP1 SWAP2 PUSH1 0x20 DUP3 ADD PUSH1 0x20 DUP4 MSTORE DUP2 MLOAD DUP1 SWAP2 MSTORE PUSH1 0x40 DUP4 ADD SWAP1 PUSH1 0x20 PUSH1 0x40 DUP3 PUSH1 0x5 SHL DUP7 ADD ADD SWAP4 ADD SWAP2 PUSH1 0x0 SWAP1 JUMPDEST DUP3 DUP3 LT PUSH2 0x14C5 JUMPI POP POP POP POP SUB SWAP1 RETURN JUMPDEST SWAP2 SWAP4 PUSH1 0x1 SWAP2 SWAP4 SWAP6 POP PUSH1 0x20 PUSH2 0x14E4 DUP2 SWAP3 PUSH1 0x3F NOT DUP11 DUP3 SUB ADD DUP7 MSTORE DUP9 MLOAD PUSH2 0x1790 JUMP JUMPDEST SWAP7 ADD SWAP3 ADD SWAP3 ADD DUP6 SWAP5 SWAP4 SWAP2 SWAP3 PUSH2 0x14B6 JUMP JUMPDEST DUP1 PUSH2 0x1500 PUSH1 0x1 SWAP3 PUSH2 0x188A JUMP JUMPDEST DUP4 DUP1 PUSH1 0xA0 SHL SUB SWAP2 SLOAD SWAP1 PUSH1 0x3 SHL SHR AND PUSH1 0x0 MSTORE PUSH1 0x3 PUSH1 0x20 MSTORE PUSH1 0x40 PUSH1 0x0 KECCAK256 PUSH1 0xB PUSH1 0x40 MLOAD SWAP2 PUSH2 0x152A DUP4 PUSH2 0x18BB JUMP JUMPDEST DUP5 DUP1 PUSH1 0xA0 SHL SUB DUP2 SLOAD AND DUP4 MSTORE PUSH2 0x1540 DUP6 DUP3 ADD PUSH2 0x1994 JUMP JUMPDEST PUSH1 0x20 DUP5 ADD MSTORE PUSH2 0x1551 PUSH1 0x2 DUP3 ADD PUSH2 0x1994 JUMP JUMPDEST PUSH1 0x40 DUP5 ADD MSTORE PUSH2 0x1562 PUSH1 0x3 DUP3 ADD PUSH2 0x1994 JUMP JUMPDEST PUSH1 0x60 DUP5 ADD MSTORE PUSH2 0x1573 PUSH1 0x4 DUP3 ADD PUSH2 0x1994 JUMP JUMPDEST PUSH1 0x80 DUP5 ADD MSTORE DUP5 DUP1 PUSH1 0xA0 SHL SUB PUSH1 0x5 DUP3 ADD SLOAD AND PUSH1 0xA0 DUP5 ADD MSTORE PUSH1 0x6 DUP2 ADD SLOAD PUSH1 0xC0 DUP5 ADD MSTORE PUSH1 0x7 DUP2 ADD SLOAD PUSH1 0xE0 DUP5 ADD MSTORE PUSH1 0x8 DUP2 ADD SLOAD PUSH2 0x100 DUP5 ADD MSTORE PUSH1 0xFF PUSH1 0x9 DUP3 ADD SLOAD DUP2 DUP2 AND ISZERO ISZERO PUSH2 0x120 DUP7 ADD MSTORE PUSH1 0x8 SHR AND ISZERO ISZERO PUSH2 0x140 DUP5 ADD MSTORE PUSH1 0xA DUP2 ADD SLOAD PUSH2 0x160 DUP5 ADD MSTORE ADD SLOAD PUSH2 0x180 DUP3 ADD MSTORE PUSH2 0x15E3 DUP3 DUP7 PUSH2 0x1AB2 JUMP JUMPDEST MSTORE PUSH2 0x15EE DUP2 DUP6 PUSH2 0x1AB2 JUMP JUMPDEST POP ADD PUSH2 0x1485 JUMP JUMPDEST PUSH1 0x20 SWAP1 PUSH2 0x1600 PUSH2 0x1A38 JUMP JUMPDEST DUP3 DUP3 DUP8 ADD ADD MSTORE ADD PUSH2 0x1479 JUMP JUMPDEST CALLVALUE PUSH2 0x14C JUMPI PUSH1 0x20 CALLDATASIZE PUSH1 0x3 NOT ADD SLT PUSH2 0x14C JUMPI PUSH2 0x1625 PUSH2 0x1A38 JUMP JUMPDEST POP PUSH2 0x1631 PUSH1 0x4 CALLDATALOAD PUSH2 0x188A JUMP JUMPDEST PUSH1 0x1 DUP1 PUSH1 0xA0 SHL SUB SWAP2 SLOAD SWAP1 PUSH1 0x3 SHL SHR AND PUSH1 0x0 MSTORE PUSH1 0x3 PUSH1 0x20 MSTORE PUSH2 0x1726 PUSH1 0x40 PUSH1 0x0 KECCAK256 PUSH1 0xB PUSH1 0x40 MLOAD SWAP2 PUSH2 0x165F DUP4 PUSH2 0x18BB JUMP JUMPDEST DUP1 SLOAD PUSH1 0x1 PUSH1 0x1 PUSH1 0xA0 SHL SUB AND DUP4 MSTORE PUSH2 0x1678 PUSH1 0x1 DUP3 ADD PUSH2 0x1994 JUMP JUMPDEST PUSH1 0x20 DUP5 ADD MSTORE PUSH2 0x1689 PUSH1 0x2 DUP3 ADD PUSH2 0x1994 JUMP JUMPDEST PUSH1 0x40 DUP5 ADD MSTORE PUSH2 0x169A PUSH1 0x3 DUP3 ADD PUSH2 0x1994 JUMP JUMPDEST PUSH1 0x60 DUP5 ADD MSTORE PUSH2 0x16AB PUSH1 0x4 DUP3 ADD PUSH2 0x1994 JUMP JUMPDEST PUSH1 0x80 DUP5 ADD MSTORE PUSH1 0x1 DUP1 PUSH1 0xA0 SHL SUB PUSH1 0x5 DUP3 ADD SLOAD AND PUSH1 0xA0 DUP5 ADD MSTORE PUSH1 0x6 DUP2 ADD SLOAD PUSH1 0xC0 DUP5 ADD MSTORE PUSH1 0x7 DUP2 ADD SLOAD PUSH1 0xE0 DUP5 ADD MSTORE PUSH1 0x8 DUP2 ADD SLOAD PUSH2 0x100 DUP5 ADD MSTORE PUSH1 0xFF PUSH1 0x9 DUP3 ADD SLOAD DUP2 DUP2 AND ISZERO ISZERO PUSH2 0x120 DUP7 ADD MSTORE PUSH1 0x8 SHR AND ISZERO ISZERO PUSH2 0x140 DUP5 ADD MSTORE PUSH1 0xA DUP2 ADD SLOAD PUSH2 0x160 DUP5 ADD MSTORE ADD SLOAD PUSH2 0x180 DUP3 ADD MSTORE PUSH1 0x40 MLOAD SWAP2 DUP3 SWAP2 PUSH1 0x20 DUP4 MSTORE PUSH1 0x20 DUP4 ADD SWAP1 PUSH2 0x1790 JUMP JUMPDEST SUB SWAP1 RETURN JUMPDEST CALLVALUE PUSH2 0x14C JUMPI PUSH1 0x0 CALLDATASIZE PUSH1 0x3 NOT ADD SLT PUSH2 0x14C JUMPI DUP1 PUSH12 0x295BE96E640669720000000 PUSH1 0x20 SWAP3 MSTORE RETURN JUMPDEST SWAP2 SWAP1 DUP3 MLOAD SWAP3 DUP4 DUP3 MSTORE PUSH1 0x0 JUMPDEST DUP5 DUP2 LT PUSH2 0x177B JUMPI POP POP DUP3 PUSH1 0x0 PUSH1 0x20 DUP1 SWAP5 SWAP6 DUP5 ADD ADD MSTORE PUSH1 0x1F DUP1 NOT SWAP2 ADD AND ADD ADD SWAP1 JUMP JUMPDEST DUP1 PUSH1 0x20 DUP1 SWAP3 DUP5 ADD ADD MLOAD DUP3 DUP3 DUP7 ADD ADD MSTORE ADD PUSH2 0x175A JUMP JUMPDEST SWAP1 PUSH1 0x1 DUP1 PUSH1 0xA0 SHL SUB DUP3 MLOAD AND DUP2 MSTORE PUSH2 0x180 DUP1 PUSH2 0x17FB PUSH2 0x17E9 PUSH2 0x17D7 PUSH2 0x17C5 PUSH1 0x20 DUP9 ADD MLOAD PUSH2 0x1A0 PUSH1 0x20 DUP10 ADD MSTORE PUSH2 0x1A0 DUP9 ADD SWAP1 PUSH2 0x174F JUMP JUMPDEST PUSH1 0x40 DUP9 ADD MLOAD DUP8 DUP3 SUB PUSH1 0x40 DUP10 ADD MSTORE PUSH2 0x174F JUMP JUMPDEST PUSH1 0x60 DUP8 ADD MLOAD DUP7 DUP3 SUB PUSH1 0x60 DUP9 ADD MSTORE PUSH2 0x174F JUMP JUMPDEST PUSH1 0x80 DUP7 ADD MLOAD DUP6 DUP3 SUB PUSH1 0x80 DUP8 ADD MSTORE PUSH2 0x174F JUMP JUMPDEST SWAP4 PUSH1 0x1 DUP1 PUSH1 0xA0 SHL SUB PUSH1 0xA0 DUP3 ADD MLOAD AND PUSH1 0xA0 DUP6 ADD MSTORE PUSH1 0xC0 DUP2 ADD MLOAD PUSH1 0xC0 DUP6 ADD MSTORE PUSH1 0xE0 DUP2 ADD MLOAD PUSH1 0xE0 DUP6 ADD MSTORE PUSH2 0x100 DUP2 ADD MLOAD PUSH2 0x100 DUP6 ADD MSTORE PUSH2 0x120 DUP2 ADD MLOAD ISZERO ISZERO PUSH2 0x120 DUP6 ADD MSTORE PUSH2 0x140 DUP2 ADD MLOAD ISZERO ISZERO PUSH2 0x140 DUP6 ADD MSTORE PUSH2 0x160 DUP2 ADD MLOAD PUSH2 0x160 DUP6 ADD MSTORE ADD MLOAD SWAP2 ADD MSTORE SWAP1 JUMP JUMPDEST PUSH1 0x4 CALLDATALOAD SWAP1 PUSH1 0x1 PUSH1 0x1 PUSH1 0xA0 SHL SUB DUP3 AND DUP3 SUB PUSH2 0x14C JUMPI JUMP JUMPDEST PUSH1 0x24 CALLDATALOAD SWAP1 PUSH1 0x1 PUSH1 0x1 PUSH1 0xA0 SHL SUB DUP3 AND DUP3 SUB PUSH2 0x14C JUMPI JUMP JUMPDEST PUSH1 0x2 SLOAD DUP2 LT ISZERO PUSH2 0x18A5 JUMPI PUSH1 0x2 PUSH1 0x0 MSTORE PUSH1 0x20 PUSH1 0x0 KECCAK256 ADD SWAP1 PUSH1 0x0 SWAP1 JUMP JUMPDEST PUSH4 0x4E487B71 PUSH1 0xE0 SHL PUSH1 0x0 MSTORE PUSH1 0x32 PUSH1 0x4 MSTORE PUSH1 0x24 PUSH1 0x0 REVERT JUMPDEST PUSH2 0x1A0 DUP2 ADD SWAP1 DUP2 LT PUSH1 0x1 PUSH1 0x1 PUSH1 0x40 SHL SUB DUP3 GT OR PUSH2 0xE51 JUMPI PUSH1 0x40 MSTORE JUMP JUMPDEST SWAP1 PUSH1 0x1F DUP1 NOT SWAP2 ADD AND DUP2 ADD SWAP1 DUP2 LT PUSH1 0x1 PUSH1 0x1 PUSH1 0x40 SHL SUB DUP3 GT OR PUSH2 0xE51 JUMPI PUSH1 0x40 MSTORE JUMP JUMPDEST PUSH1 0x1 PUSH1 0x1 PUSH1 0x40 SHL SUB DUP2 GT PUSH2 0xE51 JUMPI PUSH1 0x1F ADD PUSH1 0x1F NOT AND PUSH1 0x20 ADD SWAP1 JUMP JUMPDEST DUP2 PUSH1 0x1F DUP3 ADD SLT ISZERO PUSH2 0x14C JUMPI DUP1 CALLDATALOAD SWAP1 PUSH2 0x192A DUP3 PUSH2 0x18F8 JUMP JUMPDEST SWAP3 PUSH2 0x1938 PUSH1 0x40 MLOAD SWAP5 DUP6 PUSH2 0x18D7 JUMP JUMPDEST DUP3 DUP5 MSTORE PUSH1 0x20 DUP4 DUP4 ADD ADD GT PUSH2 0x14C JUMPI DUP2 PUSH1 0x0 SWAP3 PUSH1 0x20 DUP1 SWAP4 ADD DUP4 DUP7 ADD CALLDATACOPY DUP4 ADD ADD MSTORE SWAP1 JUMP JUMPDEST SWAP1 PUSH1 0x1 DUP3 DUP2 SHR SWAP3 AND DUP1 ISZERO PUSH2 0x198A JUMPI JUMPDEST PUSH1 0x20 DUP4 LT EQ PUSH2 0x1974 JUMPI JUMP JUMPDEST PUSH4 0x4E487B71 PUSH1 0xE0 SHL PUSH1 0x0 MSTORE PUSH1 0x22 PUSH1 0x4 MSTORE PUSH1 0x24 PUSH1 0x0 REVERT JUMPDEST SWAP2 PUSH1 0x7F AND SWAP2 PUSH2 0x1969 JUMP JUMPDEST SWAP1 PUSH1 0x40 MLOAD SWAP2 DUP3 PUSH1 0x0 DUP3 SLOAD SWAP3 PUSH2 0x19A8 DUP5 PUSH2 0x195A JUMP JUMPDEST DUP1 DUP5 MSTORE SWAP4 PUSH1 0x1 DUP2 AND SWAP1 DUP2 ISZERO PUSH2 0x1A16 JUMPI POP PUSH1 0x1 EQ PUSH2 0x19CF JUMPI JUMPDEST POP PUSH2 0x19CD SWAP3 POP SUB DUP4 PUSH2 0x18D7 JUMP JUMPDEST JUMP JUMPDEST SWAP1 POP PUSH1 0x0 SWAP3 SWAP2 SWAP3 MSTORE PUSH1 0x20 PUSH1 0x0 KECCAK256 SWAP1 PUSH1 0x0 SWAP2 JUMPDEST DUP2 DUP4 LT PUSH2 0x19FA JUMPI POP POP SWAP1 PUSH1 0x20 PUSH2 0x19CD SWAP3 DUP3 ADD ADD CODESIZE PUSH2 0x19C0 JUMP JUMPDEST PUSH1 0x20 SWAP2 SWAP4 POP DUP1 PUSH1 0x1 SWAP2 SLOAD DUP4 DUP6 DUP10 ADD ADD MSTORE ADD SWAP2 ADD SWAP1 SWAP2 DUP5 SWAP3 PUSH2 0x19E1 JUMP JUMPDEST SWAP1 POP PUSH1 0x20 SWAP3 POP PUSH2 0x19CD SWAP5 SWAP2 POP PUSH1 0xFF NOT AND DUP3 DUP5 ADD MSTORE ISZERO ISZERO PUSH1 0x5 SHL DUP3 ADD ADD CODESIZE PUSH2 0x19C0 JUMP JUMPDEST PUSH1 0x40 MLOAD SWAP1 PUSH2 0x1A45 DUP3 PUSH2 0x18BB JUMP JUMPDEST PUSH1 0x0 PUSH2 0x180 DUP4 DUP3 DUP2 MSTORE PUSH1 0x60 PUSH1 0x20 DUP3 ADD MSTORE PUSH1 0x60 PUSH1 0x40 DUP3 ADD MSTORE PUSH1 0x60 DUP1 DUP3 ADD MSTORE PUSH1 0x60 PUSH1 0x80 DUP3 ADD MSTORE DUP3 PUSH1 0xA0 DUP3 ADD MSTORE DUP3 PUSH1 0xC0 DUP3 ADD MSTORE DUP3 PUSH1 0xE0 DUP3 ADD MSTORE DUP3 PUSH2 0x100 DUP3 ADD MSTORE DUP3 PUSH2 0x120 DUP3 ADD MSTORE DUP3 PUSH2 0x140 DUP3 ADD MSTORE DUP3 PUSH2 0x160 DUP3 ADD MSTORE ADD MSTORE JUMP JUMPDEST PUSH1 0x1 PUSH1 0x1 PUSH1 0x40 SHL SUB DUP2 GT PUSH2 0xE51 JUMPI PUSH1 0x5 SHL PUSH1 0x20 ADD SWAP1 JUMP JUMPDEST DUP1 MLOAD DUP3 LT ISZERO PUSH2 0x18A5 JUMPI PUSH1 0x20 SWAP2 PUSH1 0x5 SHL ADD ADD SWAP1 JUMP JUMPDEST ISZERO PUSH2 0x1ACD JUMPI JUMP JUMPDEST PUSH1 0x40 MLOAD PUSH3 0x461BCD PUSH1 0xE5 SHL DUP2 MSTORE PUSH1 0x20 PUSH1 0x4 DUP3 ADD MSTORE PUSH1 0x12 PUSH1 0x24 DUP3 ADD MSTORE PUSH18 0x2330B1BA37B93C9D102737BA1037BBB732B9 PUSH1 0x71 SHL PUSH1 0x44 DUP3 ADD MSTORE PUSH1 0x64 SWAP1 REVERT JUMPDEST ISZERO PUSH2 0x1B0E JUMPI JUMP JUMPDEST PUSH1 0x40 MLOAD PUSH3 0x461BCD PUSH1 0xE5 SHL DUP2 MSTORE PUSH1 0x20 PUSH1 0x4 DUP3 ADD MSTORE PUSH1 0x1D PUSH1 0x24 DUP3 ADD MSTORE PUSH32 0x466163746F72793A20496E73756666696369656E742062616C616E6365000000 PUSH1 0x44 DUP3 ADD MSTORE PUSH1 0x64 SWAP1 REVERT JUMPDEST RETURNDATASIZE ISZERO PUSH2 0x1B7E JUMPI RETURNDATASIZE SWAP1 PUSH2 0x1B64 DUP3 PUSH2 0x18F8 JUMP JUMPDEST SWAP2 PUSH2 0x1B72 PUSH1 0x40 MLOAD SWAP4 DUP5 PUSH2 0x18D7 JUMP JUMPDEST DUP3 MSTORE RETURNDATASIZE PUSH1 0x0 PUSH1 0x20 DUP5 ADD RETURNDATACOPY JUMP JUMPDEST PUSH1 0x60 SWAP1 JUMP JUMPDEST ISZERO PUSH2 0x1B8A JUMPI JUMP JUMPDEST PUSH1 0x40 MLOAD PUSH3 0x461BCD PUSH1 0xE5 SHL DUP2 MSTORE PUSH1 0x20 PUSH1 0x4 DUP3 ADD MSTORE PUSH1 0x1C PUSH1 0x24 DUP3 ADD MSTORE PUSH32 0x466163746F72793A20455448207472616E73666572206661696C656400000000 PUSH1 0x44 DUP3 ADD MSTORE PUSH1 0x64 SWAP1 REVERT JUMPDEST SWAP2 SWAP1 DUP3 ADD DUP1 SWAP3 GT PUSH2 0x10B0 JUMPI JUMP JUMPDEST SWAP2 SWAP1 DUP3 SUB SWAP2 DUP3 GT PUSH2 0x10B0 JUMPI JUMP JUMPDEST DUP2 DUP2 MUL SWAP3 SWAP2 DUP2 ISZERO SWAP2 DUP5 DIV EQ OR ISZERO PUSH2 0x10B0 JUMPI JUMP JUMPDEST DUP2 ISZERO PUSH2 0x1C06 JUMPI DIV SWAP1 JUMP JUMPDEST PUSH4 0x4E487B71 PUSH1 0xE0 SHL PUSH1 0x0 MSTORE PUSH1 0x12 PUSH1 0x4 MSTORE PUSH1 0x24 PUSH1 0x0 REVERT JUMPDEST PUSH1 0x1 DUP1 PUSH1 0xA0 SHL SUB AND PUSH1 0x0 MSTORE PUSH1 0x3 PUSH1 0x20 MSTORE PUSH1 0x40 PUSH1 0x0 KECCAK256 PUSH1 0x40 MLOAD SWAP1 PUSH2 0x1C3E DUP3 PUSH2 0x18BB JUMP JUMPDEST DUP1 SLOAD PUSH1 0x1 PUSH1 0x1 PUSH1 0xA0 SHL SUB AND DUP3 MSTORE PUSH2 0x1C57 PUSH1 0x1 DUP3 ADD PUSH2 0x1994 JUMP JUMPDEST PUSH1 0x20 DUP4 ADD MSTORE PUSH2 0x1C68 PUSH1 0x2 DUP3 ADD PUSH2 0x1994 JUMP JUMPDEST PUSH1 0x40 DUP4 ADD MSTORE PUSH2 0x1C79 PUSH1 0x3 DUP3 ADD PUSH2 0x1994 JUMP JUMPDEST PUSH1 0x60 DUP4 ADD MSTORE PUSH2 0x1C8A PUSH1 0x4 DUP3 ADD PUSH2 0x1994 JUMP JUMPDEST PUSH1 0x80 DUP4 ADD MSTORE PUSH1 0x1 DUP1 PUSH1 0xA0 SHL SUB PUSH1 0x5 DUP3 ADD SLOAD AND PUSH1 0xA0 DUP4 ADD MSTORE PUSH1 0x6 DUP2 ADD SLOAD SWAP2 PUSH1 0xC0 DUP2 ADD SWAP3 DUP4 MSTORE PUSH2 0x180 PUSH1 0xB PUSH1 0x7 DUP5 ADD SLOAD SWAP4 DUP5 PUSH1 0xE0 DUP6 ADD MSTORE PUSH1 0x8 DUP2 ADD SLOAD PUSH2 0x100 DUP6 ADD MSTORE PUSH1 0xFF PUSH1 0x9 DUP3 ADD SLOAD DUP2 DUP2 AND ISZERO ISZERO PUSH2 0x120 DUP8 ADD MSTORE PUSH1 0x8 SHR AND ISZERO ISZERO PUSH2 0x140 DUP6 ADD MSTORE PUSH1 0xA DUP2 ADD SLOAD PUSH2 0x160 DUP6 ADD MSTORE ADD SLOAD SWAP2 ADD MSTORE PUSH9 0x1A055690D9DB80000 ADD SWAP1 DUP2 PUSH9 0x1A055690D9DB80000 GT PUSH2 0x10B0 JUMPI MLOAD PUSH12 0x37790968DC8EFFFD1000000 SUB SWAP2 PUSH12 0x37790968DC8EFFFD1000000 DUP4 GT PUSH2 0x10B0 JUMPI DUP3 PUSH2 0x1D52 PUSH2 0x1D58 SWAP3 PUSH2 0x1D4C PUSH2 0x1D5D SWAP7 DUP7 PUSH2 0x1BE9 JUMP JUMPDEST SWAP3 PUSH2 0x1BDC JUMP JUMPDEST SWAP1 PUSH2 0x1BFC JUMP JUMPDEST PUSH2 0x1BDC JUMP JUMPDEST SWAP1 JUMP JUMPDEST ISZERO PUSH2 0x1D67 JUMPI JUMP JUMPDEST PUSH1 0x40 MLOAD PUSH3 0x461BCD PUSH1 0xE5 SHL DUP2 MSTORE PUSH1 0x20 PUSH1 0x4 DUP3 ADD MSTORE PUSH1 0x1A PUSH1 0x24 DUP3 ADD MSTORE PUSH32 0x466163746F72793A20546F6B656E2073616C6520636C6F736564000000000000 PUSH1 0x44 DUP3 ADD MSTORE PUSH1 0x64 SWAP1 REVERT JUMPDEST ISZERO PUSH2 0x1DB3 JUMPI JUMP JUMPDEST PUSH1 0x40 MLOAD PUSH3 0x461BCD PUSH1 0xE5 SHL DUP2 MSTORE PUSH1 0x20 PUSH1 0x4 DUP3 ADD MSTORE PUSH1 0x1F PUSH1 0x24 DUP3 ADD MSTORE PUSH32 0x466163746F72793A20546F6B656E2067726164756174656420746F2044455800 PUSH1 0x44 DUP3 ADD MSTORE PUSH1 0x64 SWAP1 REVERT JUMPDEST ISZERO PUSH2 0x1DFF JUMPI JUMP JUMPDEST PUSH1 0x64 PUSH1 0x40 MLOAD PUSH3 0x461BCD PUSH1 0xE5 SHL DUP2 MSTORE PUSH1 0x20 PUSH1 0x4 DUP3 ADD MSTORE PUSH1 0x20 PUSH1 0x24 DUP3 ADD MSTORE PUSH32 0x466163746F72793A20416D6F756E74206D75737420626520706F736974697665 PUSH1 0x44 DUP3 ADD MSTORE REVERT JUMPDEST SWAP1 DUP2 PUSH1 0x20 SWAP2 SUB SLT PUSH2 0x14C JUMPI MLOAD DUP1 ISZERO ISZERO DUP2 SUB PUSH2 0x14C JUMPI SWAP1 JUMP JUMPDEST PUSH1 0x1 DUP1 PUSH1 0xA0 SHL SUB AND PUSH1 0x0 MSTORE PUSH1 0x3 PUSH1 0x20 MSTORE PUSH1 0x40 PUSH1 0x0 KECCAK256 PUSH1 0x40 MLOAD SWAP1 PUSH2 0x1E7D DUP3 PUSH2 0x18BB JUMP JUMPDEST DUP1 SLOAD PUSH1 0x1 PUSH1 0x1 PUSH1 0xA0 SHL SUB AND DUP3 MSTORE PUSH2 0x1E96 PUSH1 0x1 DUP3 ADD PUSH2 0x1994 JUMP JUMPDEST PUSH1 0x20 DUP4 ADD MSTORE PUSH2 0x1EA7 PUSH1 0x2 DUP3 ADD PUSH2 0x1994 JUMP JUMPDEST PUSH1 0x40 DUP4 ADD MSTORE PUSH2 0x1EB8 PUSH1 0x3 DUP3 ADD PUSH2 0x1994 JUMP JUMPDEST PUSH1 0x60 DUP4 ADD MSTORE PUSH2 0x1EC9 PUSH1 0x4 DUP3 ADD PUSH2 0x1994 JUMP JUMPDEST PUSH1 0x80 DUP4 ADD MSTORE PUSH1 0x1 DUP1 PUSH1 0xA0 SHL SUB PUSH1 0x5 DUP3 ADD SLOAD AND PUSH1 0xA0 DUP4 ADD MSTORE PUSH1 0x6 DUP2 ADD SLOAD SWAP2 PUSH1 0xC0 DUP2 ADD SWAP3 DUP4 MSTORE PUSH2 0x180 PUSH1 0xB PUSH1 0x7 DUP5 ADD SLOAD SWAP4 DUP5 PUSH1 0xE0 DUP6 ADD MSTORE PUSH1 0x8 DUP2 ADD SLOAD PUSH2 0x100 DUP6 ADD MSTORE PUSH1 0xFF PUSH1 0x9 DUP3 ADD SLOAD DUP2 DUP2 AND ISZERO ISZERO PUSH2 0x120 DUP8 ADD MSTORE PUSH1 0x8 SHR AND ISZERO ISZERO PUSH2 0x140 DUP6 ADD MSTORE PUSH1 0xA DUP2 ADD SLOAD PUSH2 0x160 DUP6 ADD MSTORE ADD SLOAD SWAP2 ADD MSTORE PUSH9 0x1A055690D9DB80000 ADD SWAP1 DUP2 PUSH9 0x1A055690D9DB80000 GT PUSH2 0x10B0 JUMPI MLOAD PUSH12 0x37790968DC8EFFFD1000000 SUB SWAP2 PUSH12 0x37790968DC8EFFFD1000000 DUP4 GT PUSH2 0x10B0 JUMPI DUP3 PUSH2 0x1D52 PUSH2 0x1F91 SWAP3 PUSH2 0x1F8B PUSH2 0x1D5D SWAP7 DUP7 PUSH2 0x1BE9 JUMP JUMPDEST SWAP3 PUSH2 0x1BCF JUMP JUMPDEST SWAP1 PUSH2 0x1BDC JUMP JUMPDEST PUSH1 0x1 PUSH1 0x1 PUSH1 0xA0 SHL SUB AND PUSH1 0x0 DUP2 DUP2 MSTORE PUSH1 0x3 PUSH1 0x20 MSTORE PUSH1 0x40 SWAP1 DUP2 SWAP1 KECCAK256 SWAP1 MLOAD PUSH2 0x1FBB DUP2 PUSH2 0x18BB JUMP JUMPDEST DUP2 SLOAD PUSH1 0x1 PUSH1 0x1 PUSH1 0xA0 SHL SUB AND DUP2 MSTORE PUSH2 0x1FD4 PUSH1 0x1 DUP4 ADD PUSH2 0x1994 JUMP JUMPDEST PUSH1 0x20 DUP3 ADD MSTORE PUSH2 0x1FE5 PUSH1 0x2 DUP4 ADD PUSH2 0x1994 JUMP JUMPDEST PUSH1 0x40 DUP3 ADD MSTORE PUSH2 0x1FF6 PUSH1 0x3 DUP4 ADD PUSH2 0x1994 JUMP JUMPDEST PUSH1 0x60 DUP3 ADD MSTORE PUSH2 0x2007 PUSH1 0x4 DUP4 ADD PUSH2 0x1994 JUMP JUMPDEST PUSH1 0x80 DUP3 ADD MSTORE PUSH1 0x1 DUP1 PUSH1 0xA0 SHL SUB PUSH1 0x5 DUP4 ADD SLOAD AND PUSH1 0xA0 DUP3 ADD MSTORE PUSH2 0x180 PUSH1 0xB PUSH1 0x6 DUP5 ADD SLOAD SWAP4 DUP5 PUSH1 0xC0 DUP6 ADD MSTORE PUSH1 0x7 DUP2 ADD SLOAD PUSH1 0xE0 DUP6 ADD MSTORE PUSH1 0x8 DUP2 ADD SLOAD PUSH2 0x100 DUP6 ADD MSTORE PUSH1 0xFF PUSH1 0x9 DUP3 ADD SLOAD DUP2 DUP2 AND ISZERO ISZERO PUSH2 0x120 DUP8 ADD MSTORE PUSH1 0x8 SHR AND ISZERO ISZERO PUSH2 0x140 DUP6 ADD MSTORE PUSH1 0xA DUP2 ADD SLOAD PUSH2 0x160 DUP6 ADD MSTORE ADD SLOAD SWAP2 ADD MSTORE ISZERO PUSH2 0x2213 JUMPI PUSH1 0x0 SWAP1 DUP2 MSTORE PUSH1 0x3 PUSH1 0x20 MSTORE PUSH1 0x40 DUP2 KECCAK256 SWAP1 PUSH1 0x40 MLOAD SWAP2 PUSH2 0x2093 DUP4 PUSH2 0x18BB JUMP JUMPDEST DUP1 SLOAD PUSH1 0x1 PUSH1 0x1 PUSH1 0xA0 SHL SUB AND DUP4 MSTORE PUSH2 0x20AC PUSH1 0x1 DUP3 ADD PUSH2 0x1994 JUMP JUMPDEST PUSH1 0x20 DUP5 ADD MSTORE PUSH2 0x20BD PUSH1 0x2 DUP3 ADD PUSH2 0x1994 JUMP JUMPDEST PUSH1 0x40 DUP5 ADD MSTORE PUSH2 0x20CE PUSH1 0x3 DUP3 ADD PUSH2 0x1994 JUMP JUMPDEST PUSH1 0x60 DUP5 ADD MSTORE PUSH2 0x20DF PUSH1 0x4 DUP3 ADD PUSH2 0x1994 JUMP JUMPDEST PUSH1 0x80 DUP5 ADD MSTORE PUSH1 0x1 DUP1 PUSH1 0xA0 SHL SUB PUSH1 0x5 DUP3 ADD SLOAD AND PUSH1 0xA0 DUP5 ADD MSTORE PUSH1 0x6 DUP2 ADD SLOAD SWAP3 PUSH1 0xC0 DUP2 ADD SWAP4 DUP5 MSTORE PUSH2 0x180 PUSH1 0xB PUSH1 0x7 DUP5 ADD SLOAD SWAP4 DUP5 PUSH1 0xE0 DUP6 ADD MSTORE PUSH1 0x8 DUP2 ADD SLOAD PUSH2 0x100 DUP6 ADD MSTORE PUSH1 0xFF PUSH1 0x9 DUP3 ADD SLOAD DUP2 DUP2 AND ISZERO ISZERO PUSH2 0x120 DUP8 ADD MSTORE PUSH1 0x8 SHR AND ISZERO ISZERO PUSH2 0x140 DUP6 ADD MSTORE PUSH1 0xA DUP2 ADD SLOAD PUSH2 0x160 DUP6 ADD MSTORE ADD SLOAD SWAP2 ADD MSTORE PUSH9 0x1A055690D9DB80000 ADD SWAP2 DUP3 PUSH9 0x1A055690D9DB80000 GT PUSH2 0x21FF JUMPI MLOAD PUSH12 0x37790968DC8EFFFD1000000 SUB SWAP1 PUSH12 0x37790968DC8EFFFD1000000 DUP3 GT PUSH2 0x21EB JUMPI PUSH2 0x2196 DUP3 DUP5 PUSH2 0x1BE9 JUMP JUMPDEST SWAP1 PUSH8 0xDE0B6B3A763FFFF NOT DUP4 ADD SWAP3 DUP4 GT PUSH2 0x21EB JUMPI POP PUSH2 0x21B9 SWAP3 SWAP2 PUSH2 0x1D58 SWAP2 PUSH2 0x1BFC JUMP JUMPDEST DUP1 PUSH12 0x33B2E3C9FD0803CE8000000 MUL SWAP1 PUSH12 0x33B2E3C9FD0803CE8000000 DUP3 DIV SUB PUSH2 0x10B0 JUMPI PUSH8 0xDE0B6B3A7640000 SWAP1 DIV SWAP1 JUMP JUMPDEST PUSH4 0x4E487B71 PUSH1 0xE0 SHL DUP2 MSTORE PUSH1 0x11 PUSH1 0x4 MSTORE PUSH1 0x24 SWAP1 REVERT JUMPDEST PUSH4 0x4E487B71 PUSH1 0xE0 SHL DUP3 MSTORE PUSH1 0x11 PUSH1 0x4 MSTORE PUSH1 0x24 DUP3 REVERT JUMPDEST POP PUSH1 0x0 SWAP1 JUMP INVALID PUSH1 0x80 PUSH1 0x40 MSTORE CALLVALUE PUSH2 0x3EE JUMPI PUSH2 0xB3E DUP1 CODESIZE SUB DUP1 PUSH2 0x19 DUP2 PUSH2 0x3F3 JUMP JUMPDEST SWAP3 DUP4 CODECOPY DUP2 ADD SWAP1 PUSH1 0x80 DUP2 DUP4 SUB SLT PUSH2 0x3EE JUMPI DUP1 MLOAD PUSH1 0x1 PUSH1 0x1 PUSH1 0xA0 SHL SUB DUP2 AND SWAP1 DUP2 SWAP1 SUB PUSH2 0x3EE JUMPI PUSH1 0x20 DUP3 ADD MLOAD PUSH1 0x1 PUSH1 0x1 PUSH1 0x40 SHL SUB DUP2 GT PUSH2 0x3EE JUMPI DUP4 PUSH2 0x5C SWAP2 DUP5 ADD PUSH2 0x418 JUMP JUMPDEST PUSH1 0x40 DUP4 ADD MLOAD SWAP1 SWAP4 SWAP1 PUSH1 0x1 PUSH1 0x1 PUSH1 0x40 SHL SUB DUP2 GT PUSH2 0x3EE JUMPI PUSH1 0x60 SWAP2 PUSH2 0x80 SWAP2 DUP6 ADD PUSH2 0x418 JUMP JUMPDEST SWAP3 ADD MLOAD DUP4 MLOAD SWAP1 SWAP2 SWAP1 PUSH1 0x1 PUSH1 0x1 PUSH1 0x40 SHL SUB DUP2 GT PUSH2 0x2F7 JUMPI PUSH1 0x3 SLOAD PUSH1 0x1 DUP2 DUP2 SHR SWAP2 AND DUP1 ISZERO PUSH2 0x3E4 JUMPI JUMPDEST PUSH1 0x20 DUP3 LT EQ PUSH2 0x2D7 JUMPI PUSH1 0x1F DUP2 GT PUSH2 0x37F JUMPI JUMPDEST POP PUSH1 0x20 SWAP5 PUSH1 0x1F DUP3 GT PUSH1 0x1 EQ PUSH2 0x318 JUMPI SWAP5 DUP2 SWAP3 SWAP4 SWAP5 SWAP6 PUSH1 0x0 SWAP3 PUSH2 0x30D JUMPI JUMPDEST POP POP DUP2 PUSH1 0x1 SHL SWAP2 PUSH1 0x0 NOT SWAP1 PUSH1 0x3 SHL SHR NOT AND OR PUSH1 0x3 SSTORE JUMPDEST DUP3 MLOAD PUSH1 0x1 PUSH1 0x1 PUSH1 0x40 SHL SUB DUP2 GT PUSH2 0x2F7 JUMPI PUSH1 0x4 SLOAD PUSH1 0x1 DUP2 DUP2 SHR SWAP2 AND DUP1 ISZERO PUSH2 0x2ED JUMPI JUMPDEST PUSH1 0x20 DUP3 LT EQ PUSH2 0x2D7 JUMPI PUSH1 0x1F DUP2 GT PUSH2 0x272 JUMPI JUMPDEST POP PUSH1 0x20 PUSH1 0x1F DUP3 GT PUSH1 0x1 EQ PUSH2 0x20B JUMPI DUP2 SWAP3 SWAP4 SWAP5 PUSH1 0x0 SWAP3 PUSH2 0x200 JUMPI JUMPDEST POP POP DUP2 PUSH1 0x1 SHL SWAP2 PUSH1 0x0 NOT SWAP1 PUSH1 0x3 SHL SHR NOT AND OR PUSH1 0x4 SSTORE JUMPDEST CALLER PUSH1 0x1 DUP1 PUSH1 0xA0 SHL SUB NOT PUSH1 0x5 SLOAD AND OR PUSH1 0x5 SSTORE PUSH1 0x1 DUP1 PUSH1 0xA0 SHL SUB NOT PUSH1 0x6 SLOAD AND OR PUSH1 0x6 SSTORE CALLER ISZERO PUSH2 0x1EA JUMPI PUSH1 0x2 SLOAD DUP2 DUP2 ADD DUP1 SWAP2 GT PUSH2 0x1D4 JUMPI PUSH1 0x2 SSTORE PUSH1 0x0 CALLER DUP2 MSTORE DUP1 PUSH1 0x20 MSTORE PUSH1 0x40 DUP2 KECCAK256 DUP3 DUP2 SLOAD ADD SWAP1 SSTORE PUSH1 0x40 MLOAD SWAP2 DUP3 MSTORE PUSH32 0xDDF252AD1BE2C89B69C2B068FC378DAA952BA7F163C4A11628F55A4DF523B3EF PUSH1 0x20 CALLER SWAP4 LOG3 PUSH1 0x40 MLOAD PUSH2 0x6BA SWAP1 DUP2 PUSH2 0x484 DUP3 CODECOPY RETURN JUMPDEST PUSH4 0x4E487B71 PUSH1 0xE0 SHL PUSH1 0x0 MSTORE PUSH1 0x11 PUSH1 0x4 MSTORE PUSH1 0x24 PUSH1 0x0 REVERT JUMPDEST PUSH4 0xEC442F05 PUSH1 0xE0 SHL PUSH1 0x0 MSTORE PUSH1 0x0 PUSH1 0x4 MSTORE PUSH1 0x24 PUSH1 0x0 REVERT JUMPDEST ADD MLOAD SWAP1 POP CODESIZE DUP1 PUSH2 0x139 JUMP JUMPDEST PUSH1 0x1F NOT DUP3 AND SWAP1 PUSH1 0x4 PUSH1 0x0 MSTORE DUP1 PUSH1 0x0 KECCAK256 SWAP2 PUSH1 0x0 JUMPDEST DUP2 DUP2 LT PUSH2 0x25A JUMPI POP SWAP6 DUP4 PUSH1 0x1 SWAP6 SWAP7 SWAP8 LT PUSH2 0x241 JUMPI JUMPDEST POP POP POP DUP2 SHL ADD PUSH1 0x4 SSTORE PUSH2 0x14F JUMP JUMPDEST ADD MLOAD PUSH1 0x0 NOT PUSH1 0xF8 DUP5 PUSH1 0x3 SHL AND SHR NOT AND SWAP1 SSTORE CODESIZE DUP1 DUP1 PUSH2 0x233 JUMP JUMPDEST SWAP2 SWAP3 PUSH1 0x20 PUSH1 0x1 DUP2 SWAP3 DUP7 DUP12 ADD MLOAD DUP2 SSTORE ADD SWAP5 ADD SWAP3 ADD PUSH2 0x21E JUMP JUMPDEST PUSH1 0x4 PUSH1 0x0 MSTORE PUSH32 0x8A35ACFBC15FF81A39AE7D344FD709F28E8600B4AA8C65C6B64BFE7FE36BD19B PUSH1 0x1F DUP4 ADD PUSH1 0x5 SHR DUP2 ADD SWAP2 PUSH1 0x20 DUP5 LT PUSH2 0x2CD JUMPI JUMPDEST PUSH1 0x1F ADD PUSH1 0x5 SHR ADD SWAP1 JUMPDEST DUP2 DUP2 LT PUSH2 0x2C1 JUMPI POP PUSH2 0x11F JUMP JUMPDEST PUSH1 0x0 DUP2 SSTORE PUSH1 0x1 ADD PUSH2 0x2B4 JUMP JUMPDEST SWAP1 SWAP2 POP DUP2 SWAP1 PUSH2 0x2AB JUMP JUMPDEST PUSH4 0x4E487B71 PUSH1 0xE0 SHL PUSH1 0x0 MSTORE PUSH1 0x22 PUSH1 0x4 MSTORE PUSH1 0x24 PUSH1 0x0 REVERT JUMPDEST SWAP1 PUSH1 0x7F AND SWAP1 PUSH2 0x10D JUMP JUMPDEST PUSH4 0x4E487B71 PUSH1 0xE0 SHL PUSH1 0x0 MSTORE PUSH1 0x41 PUSH1 0x4 MSTORE PUSH1 0x24 PUSH1 0x0 REVERT JUMPDEST ADD MLOAD SWAP1 POP CODESIZE DUP1 PUSH2 0xD6 JUMP JUMPDEST PUSH1 0x1F NOT DUP3 AND SWAP6 PUSH1 0x3 PUSH1 0x0 MSTORE DUP1 PUSH1 0x0 KECCAK256 SWAP2 PUSH1 0x0 JUMPDEST DUP9 DUP2 LT PUSH2 0x367 JUMPI POP DUP4 PUSH1 0x1 SWAP6 SWAP7 SWAP8 SWAP9 LT PUSH2 0x34E JUMPI JUMPDEST POP POP POP DUP2 SHL ADD PUSH1 0x3 SSTORE PUSH2 0xEC JUMP JUMPDEST ADD MLOAD PUSH1 0x0 NOT PUSH1 0xF8 DUP5 PUSH1 0x3 SHL AND SHR NOT AND SWAP1 SSTORE CODESIZE DUP1 DUP1 PUSH2 0x340 JUMP JUMPDEST SWAP2 SWAP3 PUSH1 0x20 PUSH1 0x1 DUP2 SWAP3 DUP7 DUP6 ADD MLOAD DUP2 SSTORE ADD SWAP5 ADD SWAP3 ADD PUSH2 0x32B JUMP JUMPDEST PUSH1 0x3 PUSH1 0x0 MSTORE PUSH32 0xC2575A0E9E593C00F959F8C92F12DB2869C3395A3B0502D05E2516446F71F85B PUSH1 0x1F DUP4 ADD PUSH1 0x5 SHR DUP2 ADD SWAP2 PUSH1 0x20 DUP5 LT PUSH2 0x3DA JUMPI JUMPDEST PUSH1 0x1F ADD PUSH1 0x5 SHR ADD SWAP1 JUMPDEST DUP2 DUP2 LT PUSH2 0x3CE JUMPI POP PUSH2 0xB9 JUMP JUMPDEST PUSH1 0x0 DUP2 SSTORE PUSH1 0x1 ADD PUSH2 0x3C1 JUMP JUMPDEST SWAP1 SWAP2 POP DUP2 SWAP1 PUSH2 0x3B8 JUMP JUMPDEST SWAP1 PUSH1 0x7F AND SWAP1 PUSH2 0xA7 JUMP JUMPDEST PUSH1 0x0 DUP1 REVERT JUMPDEST PUSH1 0x40 MLOAD SWAP2 SWAP1 PUSH1 0x1F ADD PUSH1 0x1F NOT AND DUP3 ADD PUSH1 0x1 PUSH1 0x1 PUSH1 0x40 SHL SUB DUP2 GT DUP4 DUP3 LT OR PUSH2 0x2F7 JUMPI PUSH1 0x40 MSTORE JUMP JUMPDEST DUP2 PUSH1 0x1F DUP3 ADD SLT ISZERO PUSH2 0x3EE JUMPI DUP1 MLOAD SWAP1 PUSH1 0x1 PUSH1 0x1 PUSH1 0x40 SHL SUB DUP3 GT PUSH2 0x2F7 JUMPI PUSH2 0x447 PUSH1 0x1F DUP4 ADD PUSH1 0x1F NOT AND PUSH1 0x20 ADD PUSH2 0x3F3 JUMP JUMPDEST SWAP3 DUP3 DUP5 MSTORE PUSH1 0x20 DUP4 DUP4 ADD ADD GT PUSH2 0x3EE JUMPI PUSH1 0x0 JUMPDEST DUP3 DUP2 LT PUSH2 0x46E JUMPI POP POP PUSH1 0x20 PUSH1 0x0 SWAP2 DUP4 ADD ADD MSTORE SWAP1 JUMP JUMPDEST DUP1 PUSH1 0x20 DUP1 SWAP3 DUP5 ADD ADD MLOAD DUP3 DUP3 DUP8 ADD ADD MSTORE ADD PUSH2 0x459 JUMP INVALID PUSH1 0x80 DUP1 PUSH1 0x40 MSTORE PUSH1 0x4 CALLDATASIZE LT ISZERO PUSH2 0x13 JUMPI PUSH1 0x0 DUP1 REVERT JUMPDEST PUSH1 0x0 CALLDATALOAD PUSH1 0xE0 SHR SWAP1 DUP2 PUSH4 0x2D05D3F EQ PUSH2 0x526 JUMPI POP DUP1 PUSH4 0x6FDDE03 EQ PUSH2 0x450 JUMPI DUP1 PUSH4 0x95EA7B3 EQ PUSH2 0x3CA JUMPI DUP1 PUSH4 0x18160DDD EQ PUSH2 0x3AC JUMPI DUP1 PUSH4 0x23B872DD EQ PUSH2 0x2BF JUMPI DUP1 PUSH4 0x313CE567 EQ PUSH2 0x2A3 JUMPI DUP1 PUSH4 0x70A08231 EQ PUSH2 0x269 JUMPI DUP1 PUSH4 0x8DA5CB5B EQ PUSH2 0x240 JUMPI DUP1 PUSH4 0x95D89B41 EQ PUSH2 0x11F JUMPI DUP1 PUSH4 0xA9059CBB EQ PUSH2 0xEE JUMPI PUSH4 0xDD62ED3E EQ PUSH2 0x98 JUMPI PUSH1 0x0 DUP1 REVERT JUMPDEST CALLVALUE PUSH2 0xE9 JUMPI PUSH1 0x40 CALLDATASIZE PUSH1 0x3 NOT ADD SLT PUSH2 0xE9 JUMPI PUSH2 0xB1 PUSH2 0x593 JUMP JUMPDEST PUSH2 0xB9 PUSH2 0x5A9 JUMP JUMPDEST PUSH1 0x1 PUSH1 0x1 PUSH1 0xA0 SHL SUB SWAP2 DUP3 AND PUSH1 0x0 SWAP1 DUP2 MSTORE PUSH1 0x1 PUSH1 0x20 SWAP1 DUP2 MSTORE PUSH1 0x40 DUP1 DUP4 KECCAK256 SWAP5 SWAP1 SWAP4 AND DUP3 MSTORE SWAP3 DUP4 MSTORE DUP2 SWAP1 KECCAK256 SLOAD SWAP1 MLOAD SWAP1 DUP2 MSTORE RETURN JUMPDEST PUSH1 0x0 DUP1 REVERT JUMPDEST CALLVALUE PUSH2 0xE9 JUMPI PUSH1 0x40 CALLDATASIZE PUSH1 0x3 NOT ADD SLT PUSH2 0xE9 JUMPI PUSH2 0x114 PUSH2 0x10A PUSH2 0x593 JUMP JUMPDEST PUSH1 0x24 CALLDATALOAD SWAP1 CALLER PUSH2 0x5BF JUMP JUMPDEST PUSH1 0x20 PUSH1 0x40 MLOAD PUSH1 0x1 DUP2 MSTORE RETURN JUMPDEST CALLVALUE PUSH2 0xE9 JUMPI PUSH1 0x0 CALLDATASIZE PUSH1 0x3 NOT ADD SLT PUSH2 0xE9 JUMPI PUSH1 0x40 MLOAD PUSH1 0x0 PUSH1 0x4 SLOAD DUP1 PUSH1 0x1 SHR SWAP1 PUSH1 0x1 DUP2 AND DUP1 ISZERO PUSH2 0x236 JUMPI JUMPDEST PUSH1 0x20 DUP4 LT DUP2 EQ PUSH2 0x222 JUMPI DUP3 DUP6 MSTORE SWAP1 DUP2 ISZERO PUSH2 0x206 JUMPI POP PUSH1 0x1 EQ PUSH2 0x1AF JUMPI JUMPDEST POP DUP2 SWAP1 SUB PUSH1 0x1F ADD PUSH1 0x1F NOT AND DUP2 ADD SWAP1 PUSH8 0xFFFFFFFFFFFFFFFF DUP3 GT DUP2 DUP4 LT OR PUSH2 0x199 JUMPI PUSH2 0x195 DUP3 SWAP2 DUP3 PUSH1 0x40 MSTORE DUP3 PUSH2 0x54A JUMP JUMPDEST SUB SWAP1 RETURN JUMPDEST PUSH4 0x4E487B71 PUSH1 0xE0 SHL PUSH1 0x0 MSTORE PUSH1 0x41 PUSH1 0x4 MSTORE PUSH1 0x24 PUSH1 0x0 REVERT JUMPDEST SWAP1 POP PUSH1 0x4 PUSH1 0x0 MSTORE PUSH32 0x8A35ACFBC15FF81A39AE7D344FD709F28E8600B4AA8C65C6B64BFE7FE36BD19B PUSH1 0x0 SWAP1 JUMPDEST DUP3 DUP3 LT PUSH2 0x1F0 JUMPI POP PUSH1 0x20 SWAP2 POP DUP3 ADD ADD DUP3 PUSH2 0x165 JUMP JUMPDEST PUSH1 0x1 DUP2 PUSH1 0x20 SWAP3 SLOAD DUP4 DUP6 DUP9 ADD ADD MSTORE ADD SWAP2 ADD SWAP1 PUSH2 0x1DB JUMP JUMPDEST SWAP1 POP PUSH1 0x20 SWAP3 POP PUSH1 0xFF NOT AND DUP3 DUP5 ADD MSTORE ISZERO ISZERO PUSH1 0x5 SHL DUP3 ADD ADD DUP3 PUSH2 0x165 JUMP JUMPDEST PUSH4 0x4E487B71 PUSH1 0xE0 SHL DUP5 MSTORE PUSH1 0x22 PUSH1 0x4 MSTORE PUSH1 0x24 DUP5 REVERT JUMPDEST SWAP2 PUSH1 0x7F AND SWAP2 PUSH2 0x148 JUMP JUMPDEST CALLVALUE PUSH2 0xE9 JUMPI PUSH1 0x0 CALLDATASIZE PUSH1 0x3 NOT ADD SLT PUSH2 0xE9 JUMPI PUSH1 0x5 SLOAD PUSH1 0x40 MLOAD PUSH1 0x1 PUSH1 0x1 PUSH1 0xA0 SHL SUB SWAP1 SWAP2 AND DUP2 MSTORE PUSH1 0x20 SWAP1 RETURN JUMPDEST CALLVALUE PUSH2 0xE9 JUMPI PUSH1 0x20 CALLDATASIZE PUSH1 0x3 NOT ADD SLT PUSH2 0xE9 JUMPI PUSH1 0x1 PUSH1 0x1 PUSH1 0xA0 SHL SUB PUSH2 0x28A PUSH2 0x593 JUMP JUMPDEST AND PUSH1 0x0 MSTORE PUSH1 0x0 PUSH1 0x20 MSTORE PUSH1 0x20 PUSH1 0x40 PUSH1 0x0 KECCAK256 SLOAD PUSH1 0x40 MLOAD SWAP1 DUP2 MSTORE RETURN JUMPDEST CALLVALUE PUSH2 0xE9 JUMPI PUSH1 0x0 CALLDATASIZE PUSH1 0x3 NOT ADD SLT PUSH2 0xE9 JUMPI PUSH1 0x20 PUSH1 0x40 MLOAD PUSH1 0x12 DUP2 MSTORE RETURN JUMPDEST CALLVALUE PUSH2 0xE9 JUMPI PUSH1 0x60 CALLDATASIZE PUSH1 0x3 NOT ADD SLT PUSH2 0xE9 JUMPI PUSH2 0x2D8 PUSH2 0x593 JUMP JUMPDEST PUSH2 0x2E0 PUSH2 0x5A9 JUMP JUMPDEST PUSH1 0x1 PUSH1 0x1 PUSH1 0xA0 SHL SUB DUP3 AND PUSH1 0x0 DUP2 DUP2 MSTORE PUSH1 0x1 PUSH1 0x20 DUP2 DUP2 MSTORE PUSH1 0x40 DUP1 DUP5 KECCAK256 CALLER DUP6 MSTORE SWAP1 SWAP2 MSTORE SWAP1 SWAP2 KECCAK256 SLOAD SWAP2 SWAP4 PUSH1 0x44 CALLDATALOAD SWAP4 SWAP3 SWAP1 SWAP2 DUP2 ADD PUSH2 0x320 JUMPI JUMPDEST POP PUSH2 0x114 SWAP4 POP PUSH2 0x5BF JUMP JUMPDEST DUP4 DUP2 LT PUSH2 0x38F JUMPI DUP5 ISZERO PUSH2 0x379 JUMPI CALLER ISZERO PUSH2 0x363 JUMPI PUSH2 0x114 SWAP5 PUSH1 0x0 MSTORE PUSH1 0x1 PUSH1 0x20 MSTORE PUSH1 0x40 PUSH1 0x0 KECCAK256 PUSH1 0x1 DUP1 PUSH1 0xA0 SHL SUB CALLER AND PUSH1 0x0 MSTORE PUSH1 0x20 MSTORE DUP4 PUSH1 0x40 PUSH1 0x0 KECCAK256 SWAP2 SUB SWAP1 SSTORE DUP5 PUSH2 0x315 JUMP JUMPDEST PUSH4 0x4A1406B1 PUSH1 0xE1 SHL PUSH1 0x0 MSTORE PUSH1 0x0 PUSH1 0x4 MSTORE PUSH1 0x24 PUSH1 0x0 REVERT JUMPDEST PUSH4 0xE602DF05 PUSH1 0xE0 SHL PUSH1 0x0 MSTORE PUSH1 0x0 PUSH1 0x4 MSTORE PUSH1 0x24 PUSH1 0x0 REVERT JUMPDEST DUP4 SWAP1 PUSH4 0x7DC7A0D9 PUSH1 0xE1 SHL PUSH1 0x0 MSTORE CALLER PUSH1 0x4 MSTORE PUSH1 0x24 MSTORE PUSH1 0x44 MSTORE PUSH1 0x64 PUSH1 0x0 REVERT JUMPDEST CALLVALUE PUSH2 0xE9 JUMPI PUSH1 0x0 CALLDATASIZE PUSH1 0x3 NOT ADD SLT PUSH2 0xE9 JUMPI PUSH1 0x20 PUSH1 0x2 SLOAD PUSH1 0x40 MLOAD SWAP1 DUP2 MSTORE RETURN JUMPDEST CALLVALUE PUSH2 0xE9 JUMPI PUSH1 0x40 CALLDATASIZE PUSH1 0x3 NOT ADD SLT PUSH2 0xE9 JUMPI PUSH2 0x3E3 PUSH2 0x593 JUMP JUMPDEST PUSH1 0x24 CALLDATALOAD SWAP1 CALLER ISZERO PUSH2 0x379 JUMPI PUSH1 0x1 PUSH1 0x1 PUSH1 0xA0 SHL SUB AND SWAP1 DUP2 ISZERO PUSH2 0x363 JUMPI CALLER PUSH1 0x0 MSTORE PUSH1 0x1 PUSH1 0x20 MSTORE PUSH1 0x40 PUSH1 0x0 KECCAK256 DUP3 PUSH1 0x0 MSTORE PUSH1 0x20 MSTORE DUP1 PUSH1 0x40 PUSH1 0x0 KECCAK256 SSTORE PUSH1 0x40 MLOAD SWAP1 DUP2 MSTORE PUSH32 0x8C5BE1E5EBEC7D5BD14F71427D1E84F3DD0314C0F7B2291E5B200AC8C7C3B925 PUSH1 0x20 CALLER SWAP3 LOG3 PUSH1 0x20 PUSH1 0x40 MLOAD PUSH1 0x1 DUP2 MSTORE RETURN JUMPDEST CALLVALUE PUSH2 0xE9 JUMPI PUSH1 0x0 CALLDATASIZE PUSH1 0x3 NOT ADD SLT PUSH2 0xE9 JUMPI PUSH1 0x40 MLOAD PUSH1 0x0 PUSH1 0x3 SLOAD DUP1 PUSH1 0x1 SHR SWAP1 PUSH1 0x1 DUP2 AND DUP1 ISZERO PUSH2 0x51C JUMPI JUMPDEST PUSH1 0x20 DUP4 LT DUP2 EQ PUSH2 0x222 JUMPI DUP3 DUP6 MSTORE SWAP1 DUP2 ISZERO PUSH2 0x206 JUMPI POP PUSH1 0x1 EQ PUSH2 0x4C5 JUMPI POP DUP2 SWAP1 SUB PUSH1 0x1F ADD PUSH1 0x1F NOT AND DUP2 ADD SWAP1 PUSH8 0xFFFFFFFFFFFFFFFF DUP3 GT DUP2 DUP4 LT OR PUSH2 0x199 JUMPI PUSH2 0x195 DUP3 SWAP2 DUP3 PUSH1 0x40 MSTORE DUP3 PUSH2 0x54A JUMP JUMPDEST SWAP1 POP PUSH1 0x3 PUSH1 0x0 MSTORE PUSH32 0xC2575A0E9E593C00F959F8C92F12DB2869C3395A3B0502D05E2516446F71F85B PUSH1 0x0 SWAP1 JUMPDEST DUP3 DUP3 LT PUSH2 0x506 JUMPI POP PUSH1 0x20 SWAP2 POP DUP3 ADD ADD DUP3 PUSH2 0x165 JUMP JUMPDEST PUSH1 0x1 DUP2 PUSH1 0x20 SWAP3 SLOAD DUP4 DUP6 DUP9 ADD ADD MSTORE ADD SWAP2 ADD SWAP1 PUSH2 0x4F1 JUMP JUMPDEST SWAP2 PUSH1 0x7F AND SWAP2 PUSH2 0x479 JUMP JUMPDEST CALLVALUE PUSH2 0xE9 JUMPI PUSH1 0x0 CALLDATASIZE PUSH1 0x3 NOT ADD SLT PUSH2 0xE9 JUMPI PUSH1 0x6 SLOAD PUSH1 0x1 PUSH1 0x1 PUSH1 0xA0 SHL SUB AND DUP2 MSTORE PUSH1 0x20 SWAP1 RETURN JUMPDEST SWAP2 SWAP1 SWAP2 PUSH1 0x20 DUP2 MSTORE DUP3 MLOAD DUP1 PUSH1 0x20 DUP4 ADD MSTORE PUSH1 0x0 JUMPDEST DUP2 DUP2 LT PUSH2 0x57D JUMPI POP PUSH1 0x40 SWAP3 SWAP4 POP PUSH1 0x0 DUP4 DUP3 DUP5 ADD ADD MSTORE PUSH1 0x1F DUP1 NOT SWAP2 ADD AND ADD ADD SWAP1 JUMP JUMPDEST DUP1 PUSH1 0x20 DUP1 SWAP3 DUP8 ADD ADD MLOAD PUSH1 0x40 DUP3 DUP7 ADD ADD MSTORE ADD PUSH2 0x55C JUMP JUMPDEST PUSH1 0x4 CALLDATALOAD SWAP1 PUSH1 0x1 PUSH1 0x1 PUSH1 0xA0 SHL SUB DUP3 AND DUP3 SUB PUSH2 0xE9 JUMPI JUMP JUMPDEST PUSH1 0x24 CALLDATALOAD SWAP1 PUSH1 0x1 PUSH1 0x1 PUSH1 0xA0 SHL SUB DUP3 AND DUP3 SUB PUSH2 0xE9 JUMPI JUMP JUMPDEST PUSH1 0x1 PUSH1 0x1 PUSH1 0xA0 SHL SUB AND SWAP1 DUP2 ISZERO PUSH2 0x66E JUMPI PUSH1 0x1 PUSH1 0x1 PUSH1 0xA0 SHL SUB AND SWAP2 DUP3 ISZERO PUSH2 0x658 JUMPI PUSH1 0x0 DUP3 DUP2 MSTORE DUP1 PUSH1 0x20 MSTORE PUSH1 0x40 DUP2 KECCAK256 SLOAD DUP3 DUP2 LT PUSH2 0x63E JUMPI SWAP2 PUSH1 0x40 DUP3 DUP3 PUSH32 0xDDF252AD1BE2C89B69C2B068FC378DAA952BA7F163C4A11628F55A4DF523B3EF SWAP6 DUP8 PUSH1 0x20 SWAP7 MSTORE DUP3 DUP7 MSTORE SUB DUP3 DUP3 KECCAK256 SSTORE DUP7 DUP2 MSTORE DUP1 DUP5 MSTORE KECCAK256 DUP2 DUP2 SLOAD ADD SWAP1 SSTORE PUSH1 0x40 MLOAD SWAP1 DUP2 MSTORE LOG3 JUMP JUMPDEST SWAP2 PUSH1 0x64 SWAP3 DUP5 PUSH4 0x391434E3 PUSH1 0xE2 SHL DUP5 MSTORE PUSH1 0x4 MSTORE PUSH1 0x24 MSTORE PUSH1 0x44 MSTORE REVERT JUMPDEST PUSH4 0xEC442F05 PUSH1 0xE0 SHL PUSH1 0x0 MSTORE PUSH1 0x0 PUSH1 0x4 MSTORE PUSH1 0x24 PUSH1 0x0 REVERT JUMPDEST PUSH4 0x4B637E8F PUSH1 0xE1 SHL PUSH1 0x0 MSTORE PUSH1 0x0 PUSH1 0x4 MSTORE PUSH1 0x24 PUSH1 0x0 REVERT INVALID LOG2 PUSH5 0x6970667358 0x22 SLT KECCAK256 DUP14 SWAP2 0xE6 EXTCODEHASH 0xAB STATICCALL STATICCALL 0xD9 PC 0x26 PUSH22 0x7A5F90706118A2E0A59A1954EF0D5C8870B0D7AF6F64 PUSH20 0x6F6C634300081B0033A26469706673582212202B PUSH29 0x1ADF4D973645E158982F53EAE422CFB0FC51409E7102BCACFC255ADE7A 0xF7 PUSH5 0x736F6C6343 STOP ADDMOD SHL STOP CALLER "},"methodIdentifiers":{"TARGET()":"cc1f2afa","TOKEN_LIMIT()":"031bd4c4","VIRTUAL_ETH_RESERVE()":"cb24a72f","VIRTUAL_TOKEN_RESERVE()":"7e309b92","buy(address,uint256)":"cce7ec13","create(string,string,string,string)":"78ff6ee3","emergencyClose(address)":"b575e123","fee()":"ddca3f43","getAllTokens()":"2a5c792a","getBuyPrice(address,uint256)":"4635256e","getMarketCap(address)":"d146d31d","getSellPrice(address,uint256)":"9ae71781","getTokenSale(uint256)":"1fbc147b","getUserBalance(address,address)":"6805d6ad","graduateToken(address)":"97f548f7","owner()":"8da5cb5b","sell(address,uint256)":"6c197ff5","tokenToSale(address)":"9c0ad5ed","tokens(uint256)":"4f64b2be","totalTokens()":"7e1c0c09","userTokenBalance(address,address)":"b47064c8","withdraw(uint256)":"2e1a7d4d"}}}}}