{
  "_format": "hh-sol-artifact-1",
  "contractName": "Factory",
  "sourceName": "contracts/Factory.sol",
  "abi": [
    {
      "inputs": [
        {
          "internalType": "uint256",
          "name": "_fee",
          "type": "uint256"
        }
      ],
      "stateMutability": "nonpayable",
      "type": "constructor"
    },
    {
      "anonymous": false,
      "inputs": [
        {
          "indexed": true,
          "internalType": "address",
          "name": "token",
          "type": "address"
        },
        {
          "indexed": false,
          "internalType": "address",
          "name": "buyer",
          "type": "address"
        },
        {
          "indexed": false,
          "internalType": "uint256",
          "name": "amount",
          "type": "uint256"
        },
        {
          "indexed": false,
          "internalType": "uint256",
          "name": "cost",
          "type": "uint256"
        }
      ],
      "name": "Buy",
      "type": "event"
    },
    {
      "anonymous": false,
      "inputs": [
        {
          "indexed": true,
          "internalType": "address",
          "name": "token",
          "type": "address"
        },
        {
          "indexed": false,
          "internalType": "string",
          "name": "name",
          "type": "string"
        },
        {
          "indexed": false,
          "internalType": "string",
          "name": "symbol",
          "type": "string"
        },
        {
          "indexed": false,
          "internalType": "address",
          "name": "creator",
          "type": "address"
        }
      ],
      "name": "Created",
      "type": "event"
    },
    {
      "anonymous": false,
      "inputs": [
        {
          "indexed": true,
          "internalType": "address",
          "name": "token",
          "type": "address"
        },
        {
          "indexed": false,
          "internalType": "uint256",
          "name": "liquidityAdded",
          "type": "uint256"
        }
      ],
      "name": "Graduated",
      "type": "event"
    },
    {
      "anonymous": false,
      "inputs": [
        {
          "indexed": true,
          "internalType": "address",
          "name": "token",
          "type": "address"
        },
        {
          "indexed": false,
          "internalType": "address",
          "name": "seller",
          "type": "address"
        },
        {
          "indexed": false,
          "internalType": "uint256",
          "name": "amount",
          "type": "uint256"
        },
        {
          "indexed": false,
          "internalType": "uint256",
          "name": "refund",
          "type": "uint256"
        }
      ],
      "name": "Sell",
      "type": "event"
    },
    {
      "inputs": [],
      "name": "TARGET",
      "outputs": [
        {
          "internalType": "uint256",
          "name": "",
          "type": "uint256"
        }
      ],
      "stateMutability": "view",
      "type": "function"
    },
    {
      "inputs": [],
      "name": "TOKEN_LIMIT",
      "outputs": [
        {
          "internalType": "uint256",
          "name": "",
          "type": "uint256"
        }
      ],
      "stateMutability": "view",
      "type": "function"
    },
    {
      "inputs": [],
      "name": "VIRTUAL_ETH_RESERVE",
      "outputs": [
        {
          "internalType": "uint256",
          "name": "",
          "type": "uint256"
        }
      ],
      "stateMutability": "view",
      "type": "function"
    },
    {
      "inputs": [],
      "name": "VIRTUAL_TOKEN_RESERVE",
      "outputs": [
        {
          "internalType": "uint256",
          "name": "",
          "type": "uint256"
        }
      ],
      "stateMutability": "view",
      "type": "function"
    },
    {
      "inputs": [
        {
          "internalType": "address",
          "name": "_token",
          "type": "address"
        },
        {
          "internalType": "uint256",
          "name": "_amount",
          "type": "uint256"
        }
      ],
      "name": "buy",
      "outputs": [],
      "stateMutability": "payable",
      "type": "function"
    },
    {
      "inputs": [
        {
          "internalType": "string",
          "name": "_name",
          "type": "string"
        },
        {
          "internalType": "string",
          "name": "_symbol",
          "type": "string"
        },
        {
          "internalType": "string",
          "name": "_description",
          "type": "string"
        },
        {
          "internalType": "string",
          "name": "_imageUrl",
          "type": "string"
        }
      ],
      "name": "create",
      "outputs": [],
      "stateMutability": "payable",
      "type": "function"
    },
    {
      "inputs": [
        {
          "internalType": "address",
          "name": "_token",
          "type": "address"
        }
      ],
      "name": "emergencyClose",
      "outputs": [],
      "stateMutability": "nonpayable",
      "type": "function"
    },
    {
      "inputs": [],
      "name": "fee",
      "outputs": [
        {
          "internalType": "uint256",
          "name": "",
          "type": "uint256"
        }
      ],
      "stateMutability": "view",
      "type": "function"
    },
    {
      "inputs": [],
      "name": "getAllTokens",
      "outputs": [
        {
          "components": [
            {
              "internalType": "address",
              "name": "token",
              "type": "address"
            },
            {
              "internalType": "string",
              "name": "name",
              "type": "string"
            },
            {
              "internalType": "string",
              "name": "symbol",
              "type": "string"
            },
            {
              "internalType": "string",
              "name": "description",
              "type": "string"
            },
            {
              "internalType": "string",
              "name": "imageUrl",
              "type": "string"
            },
            {
              "internalType": "address",
              "name": "creator",
              "type": "address"
            },
            {
              "internalType": "uint256",
              "name": "sold",
              "type": "uint256"
            },
            {
              "internalType": "uint256",
              "name": "raised",
              "type": "uint256"
            },
            {
              "internalType": "uint256",
              "name": "marketCap",
              "type": "uint256"
            },
            {
              "internalType": "bool",
              "name": "isOpen",
              "type": "bool"
            },
            {
              "internalType": "bool",
              "name": "graduated",
              "type": "bool"
            },
            {
              "internalType": "uint256",
              "name": "createdAt",
              "type": "uint256"
            },
            {
              "internalType": "uint256",
              "name": "replies",
              "type": "uint256"
            }
          ],
          "internalType": "struct Factory.TokenSale[]",
          "name": "",
          "type": "tuple[]"
        }
      ],
      "stateMutability": "view",
      "type": "function"
    },
    {
      "inputs": [
        {
          "internalType": "address",
          "name": "_token",
          "type": "address"
        },
        {
          "internalType": "uint256",
          "name": "_amount",
          "type": "uint256"
        }
      ],
      "name": "getBuyPrice",
      "outputs": [
        {
          "internalType": "uint256",
          "name": "",
          "type": "uint256"
        }
      ],
      "stateMutability": "view",
      "type": "function"
    },
    {
      "inputs": [
        {
          "internalType": "address",
          "name": "_token",
          "type": "address"
        }
      ],
      "name": "getMarketCap",
      "outputs": [
        {
          "internalType": "uint256",
          "name": "",
          "type": "uint256"
        }
      ],
      "stateMutability": "view",
      "type": "function"
    },
    {
      "inputs": [
        {
          "internalType": "address",
          "name": "_token",
          "type": "address"
        },
        {
          "internalType": "uint256",
          "name": "_amount",
          "type": "uint256"
        }
      ],
      "name": "getSellPrice",
      "outputs": [
        {
          "internalType": "uint256",
          "name": "",
          "type": "uint256"
        }
      ],
      "stateMutability": "view",
      "type": "function"
    },
    {
      "inputs": [
        {
          "internalType": "uint256",
          "name": "_index",
          "type": "uint256"
        }
      ],
      "name": "getTokenSale",
      "outputs": [
        {
          "components": [
            {
              "internalType": "address",
              "name": "token",
              "type": "address"
            },
            {
              "internalType": "string",
              "name": "name",
              "type": "string"
            },
            {
              "internalType": "string",
              "name": "symbol",
              "type": "string"
            },
            {
              "internalType": "string",
              "name": "description",
              "type": "string"
            },
            {
              "internalType": "string",
              "name": "imageUrl",
              "type": "string"
            },
            {
              "internalType": "address",
              "name": "creator",
              "type": "address"
            },
            {
              "internalType": "uint256",
              "name": "sold",
              "type": "uint256"
            },
            {
              "internalType": "uint256",
              "name": "raised",
              "type": "uint256"
            },
            {
              "internalType": "uint256",
              "name": "marketCap",
              "type": "uint256"
            },
            {
              "internalType": "bool",
              "name": "isOpen",
              "type": "bool"
            },
            {
              "internalType": "bool",
              "name": "graduated",
              "type": "bool"
            },
            {
              "internalType": "uint256",
              "name": "createdAt",
              "type": "uint256"
            },
            {
              "internalType": "uint256",
              "name": "replies",
              "type": "uint256"
            }
          ],
          "internalType": "struct Factory.TokenSale",
          "name": "",
          "type": "tuple"
        }
      ],
      "stateMutability": "view",
      "type": "function"
    },
    {
      "inputs": [
        {
          "internalType": "address",
          "name": "_token",
          "type": "address"
        },
        {
          "internalType": "address",
          "name": "_user",
          "type": "address"
        }
      ],
      "name": "getUserBalance",
      "outputs": [
        {
          "internalType": "uint256",
          "name": "",
          "type": "uint256"
        }
      ],
      "stateMutability": "view",
      "type": "function"
    },
    {
      "inputs": [
        {
          "internalType": "address",
          "name": "_token",
          "type": "address"
        }
      ],
      "name": "graduateToken",
      "outputs": [],
      "stateMutability": "nonpayable",
      "type": "function"
    },
    {
      "inputs": [],
      "name": "owner",
      "outputs": [
        {
          "internalType": "address",
          "name": "",
          "type": "address"
        }
      ],
      "stateMutability": "view",
      "type": "function"
    },
    {
      "inputs": [
        {
          "internalType": "address",
          "name": "_token",
          "type": "address"
        },
        {
          "internalType": "uint256",
          "name": "_amount",
          "type": "uint256"
        }
      ],
      "name": "sell",
      "outputs": [],
      "stateMutability": "nonpayable",
      "type": "function"
    },
    {
      "inputs": [
        {
          "internalType": "address",
          "name": "",
          "type": "address"
        }
      ],
      "name": "tokenToSale",
      "outputs": [
        {
          "internalType": "address",
          "name": "token",
          "type": "address"
        },
        {
          "internalType": "string",
          "name": "name",
          "type": "string"
        },
        {
          "internalType": "string",
          "name": "symbol",
          "type": "string"
        },
        {
          "internalType": "string",
          "name": "description",
          "type": "string"
        },
        {
          "internalType": "string",
          "name": "imageUrl",
          "type": "string"
        },
        {
          "internalType": "address",
          "name": "creator",
          "type": "address"
        },
        {
          "internalType": "uint256",
          "name": "sold",
          "type": "uint256"
        },
        {
          "internalType": "uint256",
          "name": "raised",
          "type": "uint256"
        },
        {
          "internalType": "uint256",
          "name": "marketCap",
          "type": "uint256"
        },
        {
          "internalType": "bool",
          "name": "isOpen",
          "type": "bool"
        },
        {
          "internalType": "bool",
          "name": "graduated",
          "type": "bool"
        },
        {
          "internalType": "uint256",
          "name": "createdAt",
          "type": "uint256"
        },
        {
          "internalType": "uint256",
          "name": "replies",
          "type": "uint256"
        }
      ],
      "stateMutability": "view",
      "type": "function"
    },
    {
      "inputs": [
        {
          "internalType": "uint256",
          "name": "",
          "type": "uint256"
        }
      ],
      "name": "tokens",
      "outputs": [
        {
          "internalType": "address",
          "name": "",
          "type": "address"
        }
      ],
      "stateMutability": "view",
      "type": "function"
    },
    {
      "inputs": [],
      "name": "totalTokens",
      "outputs": [
        {
          "internalType": "uint256",
          "name": "",
          "type": "uint256"
        }
      ],
      "stateMutability": "view",
      "type": "function"
    },
    {
      "inputs": [
        {
          "internalType": "address",
          "name": "",
          "type": "address"
        },
        {
          "internalType": "address",
          "name": "",
          "type": "address"
        }
      ],
      "name": "userTokenBalance",
      "outputs": [
        {
          "internalType": "uint256",
          "name": "",
          "type": "uint256"
        }
      ],
      "stateMutability": "view",
      "type": "function"
    },
    {
      "inputs": [
        {
          "internalType": "uint256",
          "name": "_amount",
          "type": "uint256"
        }
      ],
      "name": "withdraw",
      "outputs": [],
      "stateMutability": "nonpayable",
      "type": "function"
    }
  ],
  "bytecode": "0x60a034607057601f612e1938819003918201601f19168301916001600160401b0383118484101760755780849260209460405283398101031260705751600080546001600160a01b03191633179055608052604051612d8d908161008c823960805181818161012901526109780152f35b600080fd5b634e487b7160e01b600052604160045260246000fdfe608080604052600436101561001357600080fd5b60003560e01c908163031bd4c41461172a575080631fbc147b1461160c5780632a5c792a1461143b5780632e1a7d4d146113f25780634635256e146113cb5780634f64b2be146113895780636805d6ad146104c95780636c197ff51461118e57806378ff6ee3146108eb5780637e1c0c09146108cd5780637e309b92146108a65780638da5cb5b1461087d57806397f548f7146106735780639ae717811461064c5780639c0ad5ed1461051a578063b47064c8146104c9578063b575e12314610477578063cb24a72f14610453578063cc1f2afa1461042f578063cce7ec131461017c578063d146d31d146101515763ddca3f431461011157600080fd5b3461014c57600036600319011261014c5760206040517f00000000000000000000000000000000000000000000000000000000000000008152f35b600080fd5b3461014c57602036600319011261014c57602061017461016f61185e565b611f97565b604051908152f35b604036600319011261014c5761019061185e565b60243560018060a01b038216918260005260036020526040600020600981016101cb60ff82546101c1828216611d60565b60081c1615611dac565b6101d6841515611df8565b60068201928354926b0295be96e6406697200000006101f58786611bcf565b116103de576102048683611c1c565b9485341061039957610217878996611bcf565b90556008610235600783019361022e888654611bcf565b8555611f97565b910155826000526004602052604060002060018060a01b0333166000526020526040600020610265868254611bcf565b9055549068014d1120d7b1600000821015610358575b505060405163a9059cbb60e01b81523360048201526024810184905290506020816044816000885af180156103165761032b575b508034116102f7575b6040805133815260208101939093528201527f89f5adc174562e07c9c9b1cae7109bbecb21cf9d1b2847e550042b8653c54a0e9080606081015b0390a2005b60008080806103068534611bdc565b818115610322575b3390f16102b8575b6040513d6000823e3d90fd5b506108fc61030e565b61034c9060203d602011610351575b61034481836118d7565b810190611e43565b6102af565b503d61033a565b805461ffff19166101001790556040519081527f3a11b9c0ca38b86101cb9e6e1dd2f752c31467c6eaa353f931b801a338406de690602090a282848061027b565b60405162461bcd60e51b815260206004820152601960248201527f466163746f72793a20496e73756666696369656e7420455448000000000000006044820152606490fd5b60405162461bcd60e51b8152602060048201526024808201527f466163746f72793a204578636565647320626f6e64696e67206375727665206c6044820152631a5b5a5d60e21b6064820152608490fd5b3461014c57600036600319011261014c57602060405168014d1120d7b16000008152f35b3461014c57600036600319011261014c5760206040516801a055690d9db800008152f35b3461014c57602036600319011261014c5761049061185e565b6104a560018060a01b03600054163314611ac6565b6001600160a01b03166000908152600360205260409020600901805460ff19169055005b3461014c57604036600319011261014c576104e261185e565b6104ea611874565b6001600160a01b039182166000908152600460209081526040808320949093168252928352819020549051908152f35b3461014c57602036600319011261014c576001600160a01b0361053b61185e565b16600090815260036020526040902080546001600160a01b031661056160018301611994565b9161056e60028201611994565b61057a60038301611994565b9161058760048201611994565b92600160a01b60019003600583015416936006830154600784015490600885015492600986015494600a87015496600b0154976040519b8c9b8c5260208c016101a090526101a08c016105d99161174f565b8b810360408d01526105ea9161174f565b8a810360608c01526105fb9161174f565b89810360808b015261060c9161174f565b9660a089015260c088015260e087015261010086015260ff8116151561012086015260081c60ff1615156101408501526101608401526101808301520390f35b3461014c57604036600319011261014c57602061017461066a61185e565b60243590611e5b565b3461014c57602036600319011261014c576001600160a01b0361069461185e565b1680600052600360205260406000209060ff600983015460081c161561082857600582019160018060a01b03835416918233036107d8576040516370a0823160e01b815230600482015292602084602481855afa938415610316576000946107a4575b508361073b575b505060079150018054918261070f57005b546000926107389184918291829182916001600160a01b03165af1610732611b53565b50611b83565b55005b60405163a9059cbb60e01b81526001600160a01b039190911660048201526024810193909352602090839060449082906000905af191821561031657600792610785575b806106fe565b61079d9060203d6020116103515761034481836118d7565b508361077f565b9093506020813d6020116107d0575b816107c0602093836118d7565b8101031261014c575192856106f7565b3d91506107b3565b60405162461bcd60e51b815260206004820152602260248201527f466163746f72793a204f6e6c792063726561746f722063616e20677261647561604482015261746560f01b6064820152608490fd5b60405162461bcd60e51b815260206004820152602760248201527f466163746f72793a20546f6b656e206e6f7420726561647920666f7220677261604482015266323ab0ba34b7b760c91b6064820152608490fd5b3461014c57600036600319011261014c576000546040516001600160a01b039091168152602090f35b3461014c57600036600319011261014c5760206040516b037790968dc8efffd10000008152f35b3461014c57600036600319011261014c576020600154604051908152f35b608036600319011261014c576004356001600160401b03811161014c57610916903690600401611913565b6024356001600160401b03811161014c57610935903690600401611913565b906044356001600160401b03811161014c57610955903690600401611913565b916064356001600160401b03811161014c57610975903690600401611913565b927f000000000000000000000000000000000000000000000000000000000000000034106111495782511561110b578151156110c657604051610b3e8082018281106001600160401b03821117610e5157829161221a8339338152608060208201526b033b2e3c9fd0803ce80000006060610a046109f6608085018a61174f565b84810360408601528861174f565b92015203906000f080156103165760018060a01b03169360025468010000000000000000811015610e5157806001610a3f920160025561188a565b81546001600160a01b0360039290921b91821b19169087901b17905560015460001981146110b05760010160015560405190610a7a826118bb565b85825260208201928584526040830185815260608401918252608084019283523360a0850152600060c0850152600060e085015260006101008501526001610120850152600061014085015242610160850152600061018085015287600052600360205260406000209460018060a01b0360018060a01b03865116166bffffffffffffffffffffffff60a01b8754161786556001860190518051906001600160401b038211610e51578190610b2f845461195a565b601f811161105d575b50602090601f8311600114610ff857600092610fed575b50508160011b916000199060031b1c19161790555b51805160028601916001600160401b038211610e51578190610b86845461195a565b601f8111610f9a575b50602090601f8311600114610f3557600092610f2a575b50508160011b916000199060031b1c19161790555b51805160038501916001600160401b038211610e51578190610bdd845461195a565b601f8111610ed7575b50602090601f8311600114610e7257600092610e67575b50508160011b916000199060031b1c19161790555b518051906001600160401b038211610e5157610c31600485015461195a565b601f8111610e06575b50602090601f8311600114610d6757610180610d519484610d4398957fe0154c2812457c3175eafd0218aac83e6cdb6230a1ac0105a405e547dc20f4929a9895600b95600092610d5c575b50508160011b916000199060031b1c19161760048501555b60018060a01b0360a082015116600585019060018060a01b03166bffffffffffffffffffffffff60a01b82541617905560c0810151600685015560e08101516007850155610100810151600885015560098401610120820151151560ff80198354169116178155610140820151151561ff0082549160081b169061ff001916179055610160810151600a850155015191015560405193849360608552606085019061174f565b90838203602085015261174f565b3360408301520390a2005b015190508c80610c85565b9060048501600052806000209160005b601f1985168110610dee5750610d51946001857fe0154c2812457c3175eafd0218aac83e6cdb6230a1ac0105a405e547dc20f4929a9895600b9561018095610d439c99601f19811610610dd5575b505050811b016004850155610c9d565b015160001960f88460031b161c191690558c8080610dc5565b91926020600181928685015181550194019201610d77565b600485016000526020600020601f840160051c81019160208510610e47575b601f0160051c01905b818110610e3b5750610c3a565b60008155600101610e2e565b9091508190610e25565b634e487b7160e01b600052604160045260246000fd5b015190508980610bfd565b60008581528281209350601f198516905b818110610ebf5750908460019594939210610ea6575b505050811b019055610c12565b015160001960f88460031b161c19169055898080610e99565b92936020600181928786015181550195019301610e83565b909150836000526020600020601f840160051c81019160208510610f20575b90601f859493920160051c01905b818110610f115750610be6565b60008155849350600101610f04565b9091508190610ef6565b015190508a80610ba6565b60008581528281209350601f198516905b818110610f825750908460019594939210610f69575b505050811b019055610bbb565b015160001960f88460031b161c191690558a8080610f5c565b92936020600181928786015181550195019301610f46565b909150836000526020600020601f840160051c81019160208510610fe3575b90601f859493920160051c01905b818110610fd45750610b8f565b60008155849350600101610fc7565b9091508190610fb9565b015190508b80610b4f565b60008581528281209350601f198516905b818110611045575090846001959493921061102c575b505050811b019055610b64565b015160001960f88460031b161c191690558b808061101f565b92936020600181928786015181550195019301611009565b909150836000526020600020601f840160051c810191602085106110a6575b90601f859493920160051c01905b8181106110975750610b38565b6000815584935060010161108a565b909150819061107c565b634e487b7160e01b600052601160045260246000fd5b60405162461bcd60e51b815260206004820152601860248201527f466163746f72793a2053796d626f6c20726571756972656400000000000000006044820152606490fd5b60405162461bcd60e51b8152602060048201526016602482015275119858dd1bdc9e4e8813985b59481c995c5d5a5c995960521b6044820152606490fd5b60405162461bcd60e51b815260206004820152601c60248201527f466163746f72793a2043726561746f7220666565206e6f74206d6574000000006044820152606490fd5b3461014c57604036600319011261014c576111a761185e565b60243560018060a01b0382169182600052600360205260406000206111d760ff60098301546101c1828216611d60565b6111e2831515611df8565b836000526004602052604060002060018060a01b033316600052602052611210836040600020541015611b07565b61121a8383611e5b565b918247106113355761124f60089160068401611237878254611bdc565b905560078401611248868254611bdc565b9055611f97565b910155826000526004602052604060002060018060a01b033316600052602052604060002061127f838254611bdc565b90556040516323b872dd60e01b8152336004820152306024820152604481018390526020816064816000885af1801561031657611318575b50806000811561130f575b600080809381933390f115610316576040805133815260208101939093528201527fa082022e93cfcd9f1da5f9236718053910f7e840da080c789c7845698dc032ff9080606081016102f2565b506108fc6112c2565b6113309060203d6020116103515761034481836118d7565b6112b7565b60405162461bcd60e51b815260206004820152602660248201527f466163746f72793a20496e73756666696369656e7420636f6e74726163742062604482015265616c616e636560d01b6064820152608490fd5b3461014c57602036600319011261014c5760043560025481101561014c576113b260209161188a565b905460405160039290921b1c6001600160a01b03168152f35b3461014c57604036600319011261014c5760206101746113e961185e565b60243590611c1c565b3461014c57602036600319011261014c57611439600080808060043560018060a01b03825416611423813314611ac6565b61142f47831115611b07565b5af1610732611b53565b005b3461014c57600036600319011261014c5760015461145881611a9b565b9061146660405192836118d7565b808252601f1961147582611a9b565b0160005b8181106115f557505060005b8181106114f457826040518091602082016020835281518091526040830190602060408260051b8601019301916000905b8282106114c557505050500390f35b919360019193955060206114e48192603f198a82030186528851611790565b96019201920185949391926114b6565b8061150060019261188a565b838060a01b0391549060031b1c1660005260036020526040600020600b6040519161152a836118bb565b848060a01b038154168352611540858201611994565b602084015261155160028201611994565b604084015261156260038201611994565b606084015261157360048201611994565b6080840152848060a01b0360058201541660a0840152600681015460c0840152600781015460e0840152600881015461010084015260ff6009820154818116151561012086015260081c161515610140840152600a81015461016084015201546101808201526115e38286611ab2565b526115ee8185611ab2565b5001611485565b602090611600611a38565b82828701015201611479565b3461014c57602036600319011261014c57611625611a38565b5061163160043561188a565b60018060a01b0391549060031b1c1660005260036020526117266040600020600b6040519161165f836118bb565b80546001600160a01b0316835261167860018201611994565b602084015261168960028201611994565b604084015261169a60038201611994565b60608401526116ab60048201611994565b608084015260018060a01b0360058201541660a0840152600681015460c0840152600781015460e0840152600881015461010084015260ff6009820154818116151561012086015260081c161515610140840152600a8101546101608401520154610180820152604051918291602083526020830190611790565b0390f35b3461014c57600036600319011261014c57806b0295be96e64066972000000060209252f35b919082519283825260005b84811061177b575050826000602080949584010152601f8019910116010190565b8060208092840101518282860101520161175a565b9060018060a01b038251168152610180806117fb6117e96117d76117c560208801516101a060208901526101a088019061174f565b6040880151878203604089015261174f565b6060870151868203606088015261174f565b6080860151858203608087015261174f565b9360018060a01b0360a08201511660a085015260c081015160c085015260e081015160e085015261010081015161010085015261012081015115156101208501526101408101511515610140850152610160810151610160850152015191015290565b600435906001600160a01b038216820361014c57565b602435906001600160a01b038216820361014c57565b6002548110156118a557600260005260206000200190600090565b634e487b7160e01b600052603260045260246000fd5b6101a081019081106001600160401b03821117610e5157604052565b90601f801991011681019081106001600160401b03821117610e5157604052565b6001600160401b038111610e5157601f01601f191660200190565b81601f8201121561014c5780359061192a826118f8565b9261193860405194856118d7565b8284526020838301011161014c57816000926020809301838601378301015290565b90600182811c9216801561198a575b602083101461197457565b634e487b7160e01b600052602260045260246000fd5b91607f1691611969565b90604051918260008254926119a88461195a565b8084529360018116908115611a1657506001146119cf575b506119cd925003836118d7565b565b90506000929192526020600020906000915b8183106119fa5750509060206119cd92820101386119c0565b60209193508060019154838589010152019101909184926119e1565b9050602092506119cd94915060ff191682840152151560051b820101386119c0565b60405190611a45826118bb565b6000610180838281526060602082015260606040820152606080820152606060808201528260a08201528260c08201528260e0820152826101008201528261012082015282610140820152826101608201520152565b6001600160401b038111610e515760051b60200190565b80518210156118a55760209160051b010190565b15611acd57565b60405162461bcd60e51b81526020600482015260126024820152712330b1ba37b93c9d102737ba1037bbb732b960711b6044820152606490fd5b15611b0e57565b60405162461bcd60e51b815260206004820152601d60248201527f466163746f72793a20496e73756666696369656e742062616c616e63650000006044820152606490fd5b3d15611b7e573d90611b64826118f8565b91611b7260405193846118d7565b82523d6000602084013e565b606090565b15611b8a57565b60405162461bcd60e51b815260206004820152601c60248201527f466163746f72793a20455448207472616e73666572206661696c6564000000006044820152606490fd5b919082018092116110b057565b919082039182116110b057565b818102929181159184041417156110b057565b8115611c06570490565b634e487b7160e01b600052601260045260246000fd5b60018060a01b03166000526003602052604060002060405190611c3e826118bb565b80546001600160a01b03168252611c5760018201611994565b6020830152611c6860028201611994565b6040830152611c7960038201611994565b6060830152611c8a60048201611994565b608083015260018060a01b0360058201541660a083015260068101549160c08101928352610180600b6007840154938460e0850152600881015461010085015260ff6009820154818116151561012087015260081c161515610140850152600a81015461016085015201549101526801a055690d9db800000190816801a055690d9db80000116110b057516b037790968dc8efffd100000003916b037790968dc8efffd100000083116110b05782611d52611d5892611d4c611d5d9686611be9565b92611bdc565b90611bfc565b611bdc565b90565b15611d6757565b60405162461bcd60e51b815260206004820152601a60248201527f466163746f72793a20546f6b656e2073616c6520636c6f7365640000000000006044820152606490fd5b15611db357565b60405162461bcd60e51b815260206004820152601f60248201527f466163746f72793a20546f6b656e2067726164756174656420746f20444558006044820152606490fd5b15611dff57565b606460405162461bcd60e51b815260206004820152602060248201527f466163746f72793a20416d6f756e74206d75737420626520706f7369746976656044820152fd5b9081602091031261014c5751801515810361014c5790565b60018060a01b03166000526003602052604060002060405190611e7d826118bb565b80546001600160a01b03168252611e9660018201611994565b6020830152611ea760028201611994565b6040830152611eb860038201611994565b6060830152611ec960048201611994565b608083015260018060a01b0360058201541660a083015260068101549160c08101928352610180600b6007840154938460e0850152600881015461010085015260ff6009820154818116151561012087015260081c161515610140850152600a81015461016085015201549101526801a055690d9db800000190816801a055690d9db80000116110b057516b037790968dc8efffd100000003916b037790968dc8efffd100000083116110b05782611d52611f9192611f8b611d5d9686611be9565b92611bcf565b90611bdc565b6001600160a01b0316600081815260036020526040908190209051611fbb816118bb565b81546001600160a01b03168152611fd460018301611994565b6020820152611fe560028301611994565b6040820152611ff660038301611994565b606082015261200760048301611994565b608082015260018060a01b0360058301541660a0820152610180600b6006840154938460c0850152600781015460e0850152600881015461010085015260ff6009820154818116151561012087015260081c161515610140850152600a8101546101608501520154910152156122135760009081526003602052604081209060405191612093836118bb565b80546001600160a01b031683526120ac60018201611994565b60208401526120bd60028201611994565b60408401526120ce60038201611994565b60608401526120df60048201611994565b608084015260018060a01b0360058201541660a084015260068101549260c08101938452610180600b6007840154938460e0850152600881015461010085015260ff6009820154818116151561012087015260081c161515610140850152600a81015461016085015201549101526801a055690d9db800000191826801a055690d9db80000116121ff57516b037790968dc8efffd100000003906b037790968dc8efffd100000082116121eb576121968284611be9565b90670de0b6b3a763ffff1983019283116121eb57506121b99291611d5891611bfc565b806b033b2e3c9fd0803ce800000002906b033b2e3c9fd0803ce80000008204036110b057670de0b6b3a7640000900490565b634e487b7160e01b81526011600452602490fd5b634e487b7160e01b82526011600452602482fd5b5060009056fe6080604052346103ee57610b3e80380380610019816103f3565b9283398101906080818303126103ee5780516001600160a01b038116908190036103ee5760208201516001600160401b0381116103ee578361005c918401610418565b60408301519093906001600160401b0381116103ee57606091610080918501610418565b92015183519091906001600160401b0381116102f757600354600181811c911680156103e4575b60208210146102d757601f811161037f575b50602094601f82116001146103185794819293949560009261030d575b50508160011b916000199060031b1c1916176003555b82516001600160401b0381116102f757600454600181811c911680156102ed575b60208210146102d757601f8111610272575b506020601f821160011461020b5781929394600092610200575b50508160011b916000199060031b1c1916176004555b3360018060a01b0319600554161760055560018060a01b0319600654161760065533156101ea576002548181018091116101d457600255600033815280602052604081208281540190556040519182527fddf252ad1be2c89b69c2b068fc378daa952ba7f163c4a11628f55a4df523b3ef60203393a36040516106ba90816104848239f35b634e487b7160e01b600052601160045260246000fd5b63ec442f0560e01b600052600060045260246000fd5b015190503880610139565b601f198216906004600052806000209160005b81811061025a57509583600195969710610241575b505050811b0160045561014f565b015160001960f88460031b161c19169055388080610233565b9192602060018192868b01518155019401920161021e565b60046000527f8a35acfbc15ff81a39ae7d344fd709f28e8600b4aa8c65c6b64bfe7fe36bd19b601f830160051c810191602084106102cd575b601f0160051c01905b8181106102c1575061011f565b600081556001016102b4565b90915081906102ab565b634e487b7160e01b600052602260045260246000fd5b90607f169061010d565b634e487b7160e01b600052604160045260246000fd5b0151905038806100d6565b601f198216956003600052806000209160005b8881106103675750836001959697981061034e575b505050811b016003556100ec565b015160001960f88460031b161c19169055388080610340565b9192602060018192868501518155019401920161032b565b60036000527fc2575a0e9e593c00f959f8c92f12db2869c3395a3b0502d05e2516446f71f85b601f830160051c810191602084106103da575b601f0160051c01905b8181106103ce57506100b9565b600081556001016103c1565b90915081906103b8565b90607f16906100a7565b600080fd5b6040519190601f01601f191682016001600160401b038111838210176102f757604052565b81601f820112156103ee578051906001600160401b0382116102f757610447601f8301601f19166020016103f3565b92828452602083830101116103ee5760005b82811061046e57505060206000918301015290565b8060208092840101518282870101520161045956fe608080604052600436101561001357600080fd5b60003560e01c90816302d05d3f146105265750806306fdde0314610450578063095ea7b3146103ca57806318160ddd146103ac57806323b872dd146102bf578063313ce567146102a357806370a08231146102695780638da5cb5b1461024057806395d89b411461011f578063a9059cbb146100ee5763dd62ed3e1461009857600080fd5b346100e95760403660031901126100e9576100b1610593565b6100b96105a9565b6001600160a01b039182166000908152600160209081526040808320949093168252928352819020549051908152f35b600080fd5b346100e95760403660031901126100e95761011461010a610593565b60243590336105bf565b602060405160018152f35b346100e95760003660031901126100e95760405160006004548060011c90600181168015610236575b6020831081146102225782855290811561020657506001146101af575b50819003601f01601f191681019067ffffffffffffffff821181831017610199576101958291826040528261054a565b0390f35b634e487b7160e01b600052604160045260246000fd5b905060046000527f8a35acfbc15ff81a39ae7d344fd709f28e8600b4aa8c65c6b64bfe7fe36bd19b6000905b8282106101f057506020915082010182610165565b60018160209254838588010152019101906101db565b90506020925060ff191682840152151560051b82010182610165565b634e487b7160e01b84526022600452602484fd5b91607f1691610148565b346100e95760003660031901126100e9576005546040516001600160a01b039091168152602090f35b346100e95760203660031901126100e9576001600160a01b0361028a610593565b1660005260006020526020604060002054604051908152f35b346100e95760003660031901126100e957602060405160128152f35b346100e95760603660031901126100e9576102d8610593565b6102e06105a9565b6001600160a01b0382166000818152600160208181526040808420338552909152909120549193604435939290918101610320575b5061011493506105bf565b83811061038f57841561037957331561036357610114946000526001602052604060002060018060a01b0333166000526020528360406000209103905584610315565b634a1406b160e11b600052600060045260246000fd5b63e602df0560e01b600052600060045260246000fd5b8390637dc7a0d960e11b6000523360045260245260445260646000fd5b346100e95760003660031901126100e9576020600254604051908152f35b346100e95760403660031901126100e9576103e3610593565b602435903315610379576001600160a01b031690811561036357336000526001602052604060002082600052602052806040600020556040519081527f8c5be1e5ebec7d5bd14f71427d1e84f3dd0314c0f7b2291e5b200ac8c7c3b92560203392a3602060405160018152f35b346100e95760003660031901126100e95760405160006003548060011c9060018116801561051c575b6020831081146102225782855290811561020657506001146104c55750819003601f01601f191681019067ffffffffffffffff821181831017610199576101958291826040528261054a565b905060036000527fc2575a0e9e593c00f959f8c92f12db2869c3395a3b0502d05e2516446f71f85b6000905b82821061050657506020915082010182610165565b60018160209254838588010152019101906104f1565b91607f1691610479565b346100e95760003660031901126100e9576006546001600160a01b03168152602090f35b91909160208152825180602083015260005b81811061057d575060409293506000838284010152601f8019910116010190565b806020809287010151604082860101520161055c565b600435906001600160a01b03821682036100e957565b602435906001600160a01b03821682036100e957565b6001600160a01b031690811561066e576001600160a01b031691821561065857600082815280602052604081205482811061063e5791604082827fddf252ad1be2c89b69c2b068fc378daa952ba7f163c4a11628f55a4df523b3ef958760209652828652038282205586815280845220818154019055604051908152a3565b916064928463391434e360e21b8452600452602452604452fd5b63ec442f0560e01b600052600060045260246000fd5b634b637e8f60e11b600052600060045260246000fdfea26469706673582212208d91e63fabfafad95826757a5f90706118a2e0a59a1954ef0d5c8870b0d7af6f64736f6c634300081b0033a26469706673582212202b7c1adf4d973645e158982f53eae422cfb0fc51409e7102bcacfc255ade7af764736f6c634300081b0033",
  "linkReferences": {},
  "deployedLinkReferences": {}
}