{
  "_format": "hh-sol-artifact-1",
  "contractName": "Factory",
  "sourceName": "contracts/Factory.sol",
  "abi": [
    {
      "inputs": [
        {
          "internalType": "uint256",
          "name": "_fee",
          "type": "uint256"
        }
      ],
      "stateMutability": "nonpayable",
      "type": "constructor"
    },
    {
      "inputs": [],
      "name": "fee",
      "outputs": [
        {
          "internalType": "uint256",
          "name": "",
          "type": "uint256"
        }
      ],
      "stateMutability": "view",
      "type": "function"
    },
    {
      "inputs": [],
      "name": "owner",
      "outputs": [
        {
          "internalType": "address",
          "name": "",
          "type": "address"
        }
      ],
      "stateMutability": "view",
      "type": "function"
    }
  ],
  "bytecode": "0x60a060405234801561001057600080fd5b50604051610287380380610287833981810160405281019061003291906100bb565b336000806101000a81548173ffffffffffffffffffffffffffffffffffffffff021916908373ffffffffffffffffffffffffffffffffffffffff1602179055508060808181525050506100e8565b600080fd5b6000819050919050565b61009881610085565b81146100a357600080fd5b50565b6000815190506100b58161008f565b92915050565b6000602082840312156100d1576100d0610080565b5b60006100df848285016100a6565b91505092915050565b6080516101856101026000396000609d01526101856000f3fe608060405234801561001057600080fd5b50600436106100365760003560e01c80638da5cb5b1461003b578063ddca3f4314610059575b600080fd5b610043610077565b6040516100509190610100565b60405180910390f35b61006161009b565b60405161006e9190610134565b60405180910390f35b60008054906101000a900473ffffffffffffffffffffffffffffffffffffffff1681565b7f000000000000000000000000000000000000000000000000000000000000000081565b600073ffffffffffffffffffffffffffffffffffffffff82169050919050565b60006100ea826100bf565b9050919050565b6100fa816100df565b82525050565b600060208201905061011560008301846100f1565b92915050565b6000819050919050565b61012e8161011b565b82525050565b60006020820190506101496000830184610125565b9291505056fea26469706673582212206aca7cdecbe624f8be2efb00541d11f3ea83d46737050ebc265a9a7ae28cac3764736f6c634300081b0033",
  "linkReferences": {},
  "deployedLinkReferences": {}
}