{
  "_format": "hh-sol-artifact-1",
  "contractName": "Factory",
  "sourceName": "contracts/Factory.sol",
  "abi": [
    {
      "inputs": [
        {
          "internalType": "uint256",
          "name": "_fee",
          "type": "uint256"
        }
      ],
      "stateMutability": "nonpayable",
      "type": "constructor"
    },
    {
      "anonymous": false,
      "inputs": [
        {
          "indexed": true,
          "internalType": "address",
          "name": "token",
          "type": "address"
        }
      ],
      "name": "Created",
      "type": "event"
    },
    {
      "inputs": [
        {
          "internalType": "string",
          "name": "_name",
          "type": "string"
        },
        {
          "internalType": "string",
          "name": "_symbol",
          "type": "string"
        }
      ],
      "name": "create",
      "outputs": [],
      "stateMutability": "payable",
      "type": "function"
    },
    {
      "inputs": [],
      "name": "fee",
      "outputs": [
        {
          "internalType": "uint256",
          "name": "",
          "type": "uint256"
        }
      ],
      "stateMutability": "view",
      "type": "function"
    },
    {
      "inputs": [
        {
          "internalType": "uint256",
          "name": "_index",
          "type": "uint256"
        }
      ],
      "name": "getTokenSale",
      "outputs": [
        {
          "components": [
            {
              "internalType": "address",
              "name": "token",
              "type": "address"
            },
            {
              "internalType": "string",
              "name": "name",
              "type": "string"
            },
            {
              "internalType": "address",
              "name": "creator",
              "type": "address"
            },
            {
              "internalType": "uint256",
              "name": "sold",
              "type": "uint256"
            },
            {
              "internalType": "uint256",
              "name": "raised",
              "type": "uint256"
            },
            {
              "internalType": "bool",
              "name": "isOpen",
              "type": "bool"
            }
          ],
          "internalType": "struct Factory.TokenSale",
          "name": "",
          "type": "tuple"
        }
      ],
      "stateMutability": "view",
      "type": "function"
    },
    {
      "inputs": [],
      "name": "owner",
      "outputs": [
        {
          "internalType": "address",
          "name": "",
          "type": "address"
        }
      ],
      "stateMutability": "view",
      "type": "function"
    },
    {
      "inputs": [
        {
          "internalType": "address",
          "name": "",
          "type": "address"
        }
      ],
      "name": "tokenToSale",
      "outputs": [
        {
          "internalType": "address",
          "name": "token",
          "type": "address"
        },
        {
          "internalType": "string",
          "name": "name",
          "type": "string"
        },
        {
          "internalType": "address",
          "name": "creator",
          "type": "address"
        },
        {
          "internalType": "uint256",
          "name": "sold",
          "type": "uint256"
        },
        {
          "internalType": "uint256",
          "name": "raised",
          "type": "uint256"
        },
        {
          "internalType": "bool",
          "name": "isOpen",
          "type": "bool"
        }
      ],
      "stateMutability": "view",
      "type": "function"
    },
    {
      "inputs": [
        {
          "internalType": "uint256",
          "name": "",
          "type": "uint256"
        }
      ],
      "name": "tokens",
      "outputs": [
        {
          "internalType": "address",
          "name": "",
          "type": "address"
        }
      ],
      "stateMutability": "view",
      "type": "function"
    },
    {
      "inputs": [],
      "name": "totalTokens",
      "outputs": [
        {
          "internalType": "uint256",
          "name": "",
          "type": "uint256"
        }
      ],
      "stateMutability": "view",
      "type": "function"
    }
  ],
  "bytecode": "0x60a060405234801561001057600080fd5b50604051612d1e380380612d1e833981810160405281019061003291906100bb565b336000806101000a81548173ffffffffffffffffffffffffffffffffffffffff021916908373ffffffffffffffffffffffffffffffffffffffff1602179055508060808181525050506100e8565b600080fd5b6000819050919050565b61009881610085565b81146100a357600080fd5b50565b6000815190506100b58161008f565b92915050565b6000602082840312156100d1576100d0610080565b5b60006100df848285016100a6565b91505092915050565b608051612c1461010a600039600081816101d0015261083a0152612c146000f3fe6080604052600436106100705760003560e01c80637e1c0c091161004e5780637e1c0c091461010b5780638da5cb5b146101365780639c0ad5ed14610161578063ddca3f43146101a357610070565b8063198e2b8a146100755780631fbc147b146100915780634f64b2be146100ce575b600080fd5b61008f600480360381019061008a9190610a27565b6101ce565b005b34801561009d57600080fd5b506100b860048036038101906100b39190610ad5565b6104ba565b6040516100c59190610c75565b60405180910390f35b3480156100da57600080fd5b506100f560048036038101906100f09190610ad5565b6106be565b6040516101029190610ca6565b60405180910390f35b34801561011757600080fd5b506101206106fd565b60405161012d9190610cd0565b60405180910390f35b34801561014257600080fd5b5061014b610703565b6040516101589190610ca6565b60405180910390f35b34801561016d57600080fd5b5061018860048036038101906101839190610d17565b610727565b60405161019a96959493929190610d9d565b60405180910390f35b3480156101af57600080fd5b506101b8610838565b6040516101c59190610cd0565b60405180910390f35b7f0000000000000000000000000000000000000000000000000000000000000000341015610231576040517f08c379a000000000000000000000000000000000000000000000000000000000815260040161022890610e51565b60405180910390fd5b600033838369d3c21bcecceda100000060405161024d9061085c565b61025a9493929190610eb6565b604051809103906000f080158015610276573d6000803e3d6000fd5b5090506002819080600181540180825580915050600190039060005260206000200160009091909190916101000a81548173ffffffffffffffffffffffffffffffffffffffff021916908373ffffffffffffffffffffffffffffffffffffffff160217905550600160008154809291906102ef90610f38565b919050555060006040518060c001604052808373ffffffffffffffffffffffffffffffffffffffff1681526020018581526020013373ffffffffffffffffffffffffffffffffffffffff168152602001600081526020016000815260200160011515815250905080600360008473ffffffffffffffffffffffffffffffffffffffff1673ffffffffffffffffffffffffffffffffffffffff16815260200190815260200160002060008201518160000160006101000a81548173ffffffffffffffffffffffffffffffffffffffff021916908373ffffffffffffffffffffffffffffffffffffffff16021790555060208201518160010190816103f29190611182565b5060408201518160020160006101000a81548173ffffffffffffffffffffffffffffffffffffffff021916908373ffffffffffffffffffffffffffffffffffffffff160217905550606082015181600301556080820151816004015560a08201518160050160006101000a81548160ff0219169083151502179055509050508173ffffffffffffffffffffffffffffffffffffffff167f1449abf21e49fd025f33495e77f7b1461caefdd3d4bb646424a3f445c4576a5b60405160405180910390a250505050565b6104c2610869565b60036000600284815481106104da576104d9611254565b5b9060005260206000200160009054906101000a900473ffffffffffffffffffffffffffffffffffffffff1673ffffffffffffffffffffffffffffffffffffffff1673ffffffffffffffffffffffffffffffffffffffff1681526020019081526020016000206040518060c00160405290816000820160009054906101000a900473ffffffffffffffffffffffffffffffffffffffff1673ffffffffffffffffffffffffffffffffffffffff1673ffffffffffffffffffffffffffffffffffffffff1681526020016001820180546105b090610faf565b80601f01602080910402602001604051908101604052809291908181526020018280546105dc90610faf565b80156106295780601f106105fe57610100808354040283529160200191610629565b820191906000526020600020905b81548152906001019060200180831161060c57829003601f168201915b505050505081526020016002820160009054906101000a900473ffffffffffffffffffffffffffffffffffffffff1673ffffffffffffffffffffffffffffffffffffffff1673ffffffffffffffffffffffffffffffffffffffff16815260200160038201548152602001600482015481526020016005820160009054906101000a900460ff1615151515815250509050919050565b600281815481106106ce57600080fd5b906000526020600020016000915054906101000a900473ffffffffffffffffffffffffffffffffffffffff1681565b60015481565b60008054906101000a900473ffffffffffffffffffffffffffffffffffffffff1681565b60036020528060005260406000206000915090508060000160009054906101000a900473ffffffffffffffffffffffffffffffffffffffff169080600101805461077090610faf565b80601f016020809104026020016040519081016040528092919081815260200182805461079c90610faf565b80156107e95780601f106107be576101008083540402835291602001916107e9565b820191906000526020600020905b8154815290600101906020018083116107cc57829003601f168201915b5050505050908060020160009054906101000a900473ffffffffffffffffffffffffffffffffffffffff16908060030154908060040154908060050160009054906101000a900460ff16905086565b7f000000000000000000000000000000000000000000000000000000000000000081565b61195b8061128483390190565b6040518060c00160405280600073ffffffffffffffffffffffffffffffffffffffff16815260200160608152602001600073ffffffffffffffffffffffffffffffffffffffff16815260200160008152602001600081526020016000151581525090565b6000604051905090565b600080fd5b600080fd5b600080fd5b600080fd5b6000601f19601f8301169050919050565b7f4e487b7100000000000000000000000000000000000000000000000000000000600052604160045260246000fd5b610934826108eb565b810181811067ffffffffffffffff82111715610953576109526108fc565b5b80604052505050565b60006109666108cd565b9050610972828261092b565b919050565b600067ffffffffffffffff821115610992576109916108fc565b5b61099b826108eb565b9050602081019050919050565b82818337600083830152505050565b60006109ca6109c584610977565b61095c565b9050828152602081018484840111156109e6576109e56108e6565b5b6109f18482856109a8565b509392505050565b600082601f830112610a0e57610a0d6108e1565b5b8135610a1e8482602086016109b7565b91505092915050565b60008060408385031215610a3e57610a3d6108d7565b5b600083013567ffffffffffffffff811115610a5c57610a5b6108dc565b5b610a68858286016109f9565b925050602083013567ffffffffffffffff811115610a8957610a886108dc565b5b610a95858286016109f9565b9150509250929050565b6000819050919050565b610ab281610a9f565b8114610abd57600080fd5b50565b600081359050610acf81610aa9565b92915050565b600060208284031215610aeb57610aea6108d7565b5b6000610af984828501610ac0565b91505092915050565b600073ffffffffffffffffffffffffffffffffffffffff82169050919050565b6000610b2d82610b02565b9050919050565b610b3d81610b22565b82525050565b600081519050919050565b600082825260208201905092915050565b60005b83811015610b7d578082015181840152602081019050610b62565b60008484015250505050565b6000610b9482610b43565b610b9e8185610b4e565b9350610bae818560208601610b5f565b610bb7816108eb565b840191505092915050565b610bcb81610a9f565b82525050565b60008115159050919050565b610be681610bd1565b82525050565b600060c083016000830151610c046000860182610b34565b5060208301518482036020860152610c1c8282610b89565b9150506040830151610c316040860182610b34565b506060830151610c446060860182610bc2565b506080830151610c576080860182610bc2565b5060a0830151610c6a60a0860182610bdd565b508091505092915050565b60006020820190508181036000830152610c8f8184610bec565b905092915050565b610ca081610b22565b82525050565b6000602082019050610cbb6000830184610c97565b92915050565b610cca81610a9f565b82525050565b6000602082019050610ce56000830184610cc1565b92915050565b610cf481610b22565b8114610cff57600080fd5b50565b600081359050610d1181610ceb565b92915050565b600060208284031215610d2d57610d2c6108d7565b5b6000610d3b84828501610d02565b91505092915050565b600082825260208201905092915050565b6000610d6082610b43565b610d6a8185610d44565b9350610d7a818560208601610b5f565b610d83816108eb565b840191505092915050565b610d9781610bd1565b82525050565b600060c082019050610db26000830189610c97565b8181036020830152610dc48188610d55565b9050610dd36040830187610c97565b610de06060830186610cc1565b610ded6080830185610cc1565b610dfa60a0830184610d8e565b979650505050505050565b7f466163746f72793a2043726561746f7220666565206e6f74206d657400000000600082015250565b6000610e3b601c83610d44565b9150610e4682610e05565b602082019050919050565b60006020820190508181036000830152610e6a81610e2e565b9050919050565b6000819050919050565b6000819050919050565b6000610ea0610e9b610e9684610e71565b610e7b565b610a9f565b9050919050565b610eb081610e85565b82525050565b6000608082019050610ecb6000830187610c97565b8181036020830152610edd8186610d55565b90508181036040830152610ef18185610d55565b9050610f006060830184610ea7565b95945050505050565b7f4e487b7100000000000000000000000000000000000000000000000000000000600052601160045260246000fd5b6000610f4382610a9f565b91507fffffffffffffffffffffffffffffffffffffffffffffffffffffffffffffffff8203610f7557610f74610f09565b5b600182019050919050565b7f4e487b7100000000000000000000000000000000000000000000000000000000600052602260045260246000fd5b60006002820490506001821680610fc757607f821691505b602082108103610fda57610fd9610f80565b5b50919050565b60008190508160005260206000209050919050565b60006020601f8301049050919050565b600082821b905092915050565b6000600883026110427fffffffffffffffffffffffffffffffffffffffffffffffffffffffffffffffff82611005565b61104c8683611005565b95508019841693508086168417925050509392505050565b600061107f61107a61107584610a9f565b610e7b565b610a9f565b9050919050565b6000819050919050565b61109983611064565b6110ad6110a582611086565b848454611012565b825550505050565b600090565b6110c26110b5565b6110cd818484611090565b505050565b5b818110156110f1576110e66000826110ba565b6001810190506110d3565b5050565b601f8211156111365761110781610fe0565b61111084610ff5565b8101602085101561111f578190505b61113361112b85610ff5565b8301826110d2565b50505b505050565b600082821c905092915050565b60006111596000198460080261113b565b1980831691505092915050565b60006111728383611148565b9150826002028217905092915050565b61118b82610b43565b67ffffffffffffffff8111156111a4576111a36108fc565b5b6111ae8254610faf565b6111b98282856110f5565b600060209050601f8311600181146111ec57600084156111da578287015190505b6111e48582611166565b86555061124c565b601f1984166111fa86610fe0565b60005b82811015611222578489015182556001820191506020850194506020810190506111fd565b8683101561123f578489015161123b601f891682611148565b8355505b6001600288020188555050505b505050505050565b7f4e487b7100000000000000000000000000000000000000000000000000000000600052603260045260246000fdfe608060405234801561001057600080fd5b5060405161195b38038061195b833981810160405281019061003291906105a7565b82828160039081610043919061085d565b508060049081610053919061085d565b50505033600560006101000a81548173ffffffffffffffffffffffffffffffffffffffff021916908373ffffffffffffffffffffffffffffffffffffffff16021790555083600660006101000a81548173ffffffffffffffffffffffffffffffffffffffff021916908373ffffffffffffffffffffffffffffffffffffffff1602179055506100e833826100f160201b60201c565b50505050610a1d565b600073ffffffffffffffffffffffffffffffffffffffff168273ffffffffffffffffffffffffffffffffffffffff16036101635760006040517fec442f0500000000000000000000000000000000000000000000000000000000815260040161015a919061093e565b60405180910390fd5b6101756000838361017960201b60201c565b5050565b600073ffffffffffffffffffffffffffffffffffffffff168373ffffffffffffffffffffffffffffffffffffffff16036101cb5780600260008282546101bf9190610988565b9250508190555061029e565b60008060008573ffffffffffffffffffffffffffffffffffffffff1673ffffffffffffffffffffffffffffffffffffffff16815260200190815260200160002054905081811015610257578381836040517fe450d38c00000000000000000000000000000000000000000000000000000000815260040161024e939291906109cb565b60405180910390fd5b8181036000808673ffffffffffffffffffffffffffffffffffffffff1673ffffffffffffffffffffffffffffffffffffffff16815260200190815260200160002081905550505b600073ffffffffffffffffffffffffffffffffffffffff168273ffffffffffffffffffffffffffffffffffffffff16036102e75780600260008282540392505081905550610334565b806000808473ffffffffffffffffffffffffffffffffffffffff1673ffffffffffffffffffffffffffffffffffffffff168152602001908152602001600020600082825401925050819055505b8173ffffffffffffffffffffffffffffffffffffffff168373ffffffffffffffffffffffffffffffffffffffff167fddf252ad1be2c89b69c2b068fc378daa952ba7f163c4a11628f55a4df523b3ef836040516103919190610a02565b60405180910390a3505050565b6000604051905090565b600080fd5b600080fd5b600073ffffffffffffffffffffffffffffffffffffffff82169050919050565b60006103dd826103b2565b9050919050565b6103ed816103d2565b81146103f857600080fd5b50565b60008151905061040a816103e4565b92915050565b600080fd5b600080fd5b6000601f19601f8301169050919050565b7f4e487b7100000000000000000000000000000000000000000000000000000000600052604160045260246000fd5b6104638261041a565b810181811067ffffffffffffffff821117156104825761048161042b565b5b80604052505050565b600061049561039e565b90506104a1828261045a565b919050565b600067ffffffffffffffff8211156104c1576104c061042b565b5b6104ca8261041a565b9050602081019050919050565b60005b838110156104f55780820151818401526020810190506104da565b60008484015250505050565b600061051461050f846104a6565b61048b565b9050828152602081018484840111156105305761052f610415565b5b61053b8482856104d7565b509392505050565b600082601f83011261055857610557610410565b5b8151610568848260208601610501565b91505092915050565b6000819050919050565b61058481610571565b811461058f57600080fd5b50565b6000815190506105a18161057b565b92915050565b600080600080608085870312156105c1576105c06103a8565b5b60006105cf878288016103fb565b945050602085015167ffffffffffffffff8111156105f0576105ef6103ad565b5b6105fc87828801610543565b935050604085015167ffffffffffffffff81111561061d5761061c6103ad565b5b61062987828801610543565b925050606061063a87828801610592565b91505092959194509250565b600081519050919050565b7f4e487b7100000000000000000000000000000000000000000000000000000000600052602260045260246000fd5b6000600282049050600182168061069857607f821691505b6020821081036106ab576106aa610651565b5b50919050565b60008190508160005260206000209050919050565b60006020601f8301049050919050565b600082821b905092915050565b6000600883026107137fffffffffffffffffffffffffffffffffffffffffffffffffffffffffffffffff826106d6565b61071d86836106d6565b95508019841693508086168417925050509392505050565b6000819050919050565b600061075a61075561075084610571565b610735565b610571565b9050919050565b6000819050919050565b6107748361073f565b61078861078082610761565b8484546106e3565b825550505050565b600090565b61079d610790565b6107a881848461076b565b505050565b5b818110156107cc576107c1600082610795565b6001810190506107ae565b5050565b601f821115610811576107e2816106b1565b6107eb846106c6565b810160208510156107fa578190505b61080e610806856106c6565b8301826107ad565b50505b505050565b600082821c905092915050565b600061083460001984600802610816565b1980831691505092915050565b600061084d8383610823565b9150826002028217905092915050565b61086682610646565b67ffffffffffffffff81111561087f5761087e61042b565b5b6108898254610680565b6108948282856107d0565b600060209050601f8311600181146108c757600084156108b5578287015190505b6108bf8582610841565b865550610927565b601f1984166108d5866106b1565b60005b828110156108fd578489015182556001820191506020850194506020810190506108d8565b8683101561091a5784890151610916601f891682610823565b8355505b6001600288020188555050505b505050505050565b610938816103d2565b82525050565b6000602082019050610953600083018461092f565b92915050565b7f4e487b7100000000000000000000000000000000000000000000000000000000600052601160045260246000fd5b600061099382610571565b915061099e83610571565b92508282019050808211156109b6576109b5610959565b5b92915050565b6109c581610571565b82525050565b60006060820190506109e0600083018661092f565b6109ed60208301856109bc565b6109fa60408301846109bc565b949350505050565b6000602082019050610a1760008301846109bc565b92915050565b610f2f80610a2c6000396000f3fe608060405234801561001057600080fd5b50600436106100a95760003560e01c8063313ce56711610071578063313ce5671461016857806370a08231146101865780638da5cb5b146101b657806395d89b41146101d4578063a9059cbb146101f2578063dd62ed3e14610222576100a9565b806302d05d3f146100ae57806306fdde03146100cc578063095ea7b3146100ea57806318160ddd1461011a57806323b872dd14610138575b600080fd5b6100b6610252565b6040516100c39190610af8565b60405180910390f35b6100d4610278565b6040516100e19190610ba3565b60405180910390f35b61010460048036038101906100ff9190610c2c565b61030a565b6040516101119190610c87565b60405180910390f35b61012261032d565b60405161012f9190610cb1565b60405180910390f35b610152600480360381019061014d9190610ccc565b610337565b60405161015f9190610c87565b60405180910390f35b610170610366565b60405161017d9190610d3b565b60405180910390f35b6101a0600480360381019061019b9190610d56565b61036f565b6040516101ad9190610cb1565b60405180910390f35b6101be6103b7565b6040516101cb9190610da4565b60405180910390f35b6101dc6103dd565b6040516101e99190610ba3565b60405180910390f35b61020c60048036038101906102079190610c2c565b61046f565b6040516102199190610c87565b60405180910390f35b61023c60048036038101906102379190610dbf565b610492565b6040516102499190610cb1565b60405180910390f35b600660009054906101000a900473ffffffffffffffffffffffffffffffffffffffff1681565b60606003805461028790610e2e565b80601f01602080910402602001604051908101604052809291908181526020018280546102b390610e2e565b80156103005780601f106102d557610100808354040283529160200191610300565b820191906000526020600020905b8154815290600101906020018083116102e357829003601f168201915b5050505050905090565b600080610315610519565b9050610322818585610521565b600191505092915050565b6000600254905090565b600080610342610519565b905061034f858285610533565b61035a8585856105c7565b60019150509392505050565b60006012905090565b60008060008373ffffffffffffffffffffffffffffffffffffffff1673ffffffffffffffffffffffffffffffffffffffff168152602001908152602001600020549050919050565b600560009054906101000a900473ffffffffffffffffffffffffffffffffffffffff1681565b6060600480546103ec90610e2e565b80601f016020809104026020016040519081016040528092919081815260200182805461041890610e2e565b80156104655780601f1061043a57610100808354040283529160200191610465565b820191906000526020600020905b81548152906001019060200180831161044857829003601f168201915b5050505050905090565b60008061047a610519565b90506104878185856105c7565b600191505092915050565b6000600160008473ffffffffffffffffffffffffffffffffffffffff1673ffffffffffffffffffffffffffffffffffffffff16815260200190815260200160002060008373ffffffffffffffffffffffffffffffffffffffff1673ffffffffffffffffffffffffffffffffffffffff16815260200190815260200160002054905092915050565b600033905090565b61052e83838360016106bb565b505050565b600061053f8484610492565b90507fffffffffffffffffffffffffffffffffffffffffffffffffffffffffffffffff81146105c157818110156105b1578281836040517ffb8f41b20000000000000000000000000000000000000000000000000000000081526004016105a893929190610e5f565b60405180910390fd5b6105c0848484840360006106bb565b5b50505050565b600073ffffffffffffffffffffffffffffffffffffffff168373ffffffffffffffffffffffffffffffffffffffff16036106395760006040517f96c6fd1e0000000000000000000000000000000000000000000000000000000081526004016106309190610af8565b60405180910390fd5b600073ffffffffffffffffffffffffffffffffffffffff168273ffffffffffffffffffffffffffffffffffffffff16036106ab5760006040517fec442f050000000000000000000000000000000000000000000000000000000081526004016106a29190610af8565b60405180910390fd5b6106b6838383610892565b505050565b600073ffffffffffffffffffffffffffffffffffffffff168473ffffffffffffffffffffffffffffffffffffffff160361072d5760006040517fe602df050000000000000000000000000000000000000000000000000000000081526004016107249190610af8565b60405180910390fd5b600073ffffffffffffffffffffffffffffffffffffffff168373ffffffffffffffffffffffffffffffffffffffff160361079f5760006040517f94280d620000000000000000000000000000000000000000000000000000000081526004016107969190610af8565b60405180910390fd5b81600160008673ffffffffffffffffffffffffffffffffffffffff1673ffffffffffffffffffffffffffffffffffffffff16815260200190815260200160002060008573ffffffffffffffffffffffffffffffffffffffff1673ffffffffffffffffffffffffffffffffffffffff16815260200190815260200160002081905550801561088c578273ffffffffffffffffffffffffffffffffffffffff168473ffffffffffffffffffffffffffffffffffffffff167f8c5be1e5ebec7d5bd14f71427d1e84f3dd0314c0f7b2291e5b200ac8c7c3b925846040516108839190610cb1565b60405180910390a35b50505050565b600073ffffffffffffffffffffffffffffffffffffffff168373ffffffffffffffffffffffffffffffffffffffff16036108e45780600260008282546108d89190610ec5565b925050819055506109b7565b60008060008573ffffffffffffffffffffffffffffffffffffffff1673ffffffffffffffffffffffffffffffffffffffff16815260200190815260200160002054905081811015610970578381836040517fe450d38c00000000000000000000000000000000000000000000000000000000815260040161096793929190610e5f565b60405180910390fd5b8181036000808673ffffffffffffffffffffffffffffffffffffffff1673ffffffffffffffffffffffffffffffffffffffff16815260200190815260200160002081905550505b600073ffffffffffffffffffffffffffffffffffffffff168273ffffffffffffffffffffffffffffffffffffffff1603610a005780600260008282540392505081905550610a4d565b806000808473ffffffffffffffffffffffffffffffffffffffff1673ffffffffffffffffffffffffffffffffffffffff168152602001908152602001600020600082825401925050819055505b8173ffffffffffffffffffffffffffffffffffffffff168373ffffffffffffffffffffffffffffffffffffffff167fddf252ad1be2c89b69c2b068fc378daa952ba7f163c4a11628f55a4df523b3ef83604051610aaa9190610cb1565b60405180910390a3505050565b600073ffffffffffffffffffffffffffffffffffffffff82169050919050565b6000610ae282610ab7565b9050919050565b610af281610ad7565b82525050565b6000602082019050610b0d6000830184610ae9565b92915050565b600081519050919050565b600082825260208201905092915050565b60005b83811015610b4d578082015181840152602081019050610b32565b60008484015250505050565b6000601f19601f8301169050919050565b6000610b7582610b13565b610b7f8185610b1e565b9350610b8f818560208601610b2f565b610b9881610b59565b840191505092915050565b60006020820190508181036000830152610bbd8184610b6a565b905092915050565b600080fd5b610bd381610ad7565b8114610bde57600080fd5b50565b600081359050610bf081610bca565b92915050565b6000819050919050565b610c0981610bf6565b8114610c1457600080fd5b50565b600081359050610c2681610c00565b92915050565b60008060408385031215610c4357610c42610bc5565b5b6000610c5185828601610be1565b9250506020610c6285828601610c17565b9150509250929050565b60008115159050919050565b610c8181610c6c565b82525050565b6000602082019050610c9c6000830184610c78565b92915050565b610cab81610bf6565b82525050565b6000602082019050610cc66000830184610ca2565b92915050565b600080600060608486031215610ce557610ce4610bc5565b5b6000610cf386828701610be1565b9350506020610d0486828701610be1565b9250506040610d1586828701610c17565b9150509250925092565b600060ff82169050919050565b610d3581610d1f565b82525050565b6000602082019050610d506000830184610d2c565b92915050565b600060208284031215610d6c57610d6b610bc5565b5b6000610d7a84828501610be1565b91505092915050565b6000610d8e82610ab7565b9050919050565b610d9e81610d83565b82525050565b6000602082019050610db96000830184610d95565b92915050565b60008060408385031215610dd657610dd5610bc5565b5b6000610de485828601610be1565b9250506020610df585828601610be1565b9150509250929050565b7f4e487b7100000000000000000000000000000000000000000000000000000000600052602260045260246000fd5b60006002820490506001821680610e4657607f821691505b602082108103610e5957610e58610dff565b5b50919050565b6000606082019050610e746000830186610ae9565b610e816020830185610ca2565b610e8e6040830184610ca2565b949350505050565b7f4e487b7100000000000000000000000000000000000000000000000000000000600052601160045260246000fd5b6000610ed082610bf6565b9150610edb83610bf6565b9250828201905080821115610ef357610ef2610e96565b5b9291505056fea26469706673582212204dcf9b493f44e9f49464aedb6ab3149fd4df54714163f5526d9e0344754a600a64736f6c634300081b0033a2646970667358221220da95fa2cb9ae20c5edea2784b5918d525bf1c2f470c339f6912416961cb4c71364736f6c634300081b0033",
  "linkReferences": {},
  "deployedLinkReferences": {}
}