{
  "_format": "hh-sol-artifact-1",
  "contractName": "Token",
  "sourceName": "contracts/Token.sol",
  "abi": [
    {
      "inputs": [
        {
          "internalType": "address",
          "name": "_creator",
          "type": "address"
        },
        {
          "internalType": "string",
          "name": "_name",
          "type": "string"
        },
        {
          "internalType": "string",
          "name": "_symbol",
          "type": "string"
        },
        {
          "internalType": "uint256",
          "name": "_totalSupply",
          "type": "uint256"
        }
      ],
      "stateMutability": "nonpayable",
      "type": "constructor"
    },
    {
      "inputs": [
        {
          "internalType": "address",
          "name": "spender",
          "type": "address"
        },
        {
          "internalType": "uint256",
          "name": "allowance",
          "type": "uint256"
        },
        {
          "internalType": "uint256",
          "name": "needed",
          "type": "uint256"
        }
      ],
      "name": "ERC20InsufficientAllowance",
      "type": "error"
    },
    {
      "inputs": [
        {
          "internalType": "address",
          "name": "sender",
          "type": "address"
        },
        {
          "internalType": "uint256",
          "name": "balance",
          "type": "uint256"
        },
        {
          "internalType": "uint256",
          "name": "needed",
          "type": "uint256"
        }
      ],
      "name": "ERC20InsufficientBalance",
      "type": "error"
    },
    {
      "inputs": [
        {
          "internalType": "address",
          "name": "approver",
          "type": "address"
        }
      ],
      "name": "ERC20InvalidApprover",
      "type": "error"
    },
    {
      "inputs": [
        {
          "internalType": "address",
          "name": "receiver",
          "type": "address"
        }
      ],
      "name": "ERC20InvalidReceiver",
      "type": "error"
    },
    {
      "inputs": [
        {
          "internalType": "address",
          "name": "sender",
          "type": "address"
        }
      ],
      "name": "ERC20InvalidSender",
      "type": "error"
    },
    {
      "inputs": [
        {
          "internalType": "address",
          "name": "spender",
          "type": "address"
        }
      ],
      "name": "ERC20InvalidSpender",
      "type": "error"
    },
    {
      "anonymous": false,
      "inputs": [
        {
          "indexed": true,
          "internalType": "address",
          "name": "owner",
          "type": "address"
        },
        {
          "indexed": true,
          "internalType": "address",
          "name": "spender",
          "type": "address"
        },
        {
          "indexed": false,
          "internalType": "uint256",
          "name": "value",
          "type": "uint256"
        }
      ],
      "name": "Approval",
      "type": "event"
    },
    {
      "anonymous": false,
      "inputs": [
        {
          "indexed": true,
          "internalType": "address",
          "name": "from",
          "type": "address"
        },
        {
          "indexed": true,
          "internalType": "address",
          "name": "to",
          "type": "address"
        },
        {
          "indexed": false,
          "internalType": "uint256",
          "name": "value",
          "type": "uint256"
        }
      ],
      "name": "Transfer",
      "type": "event"
    },
    {
      "inputs": [
        {
          "internalType": "address",
          "name": "owner",
          "type": "address"
        },
        {
          "internalType": "address",
          "name": "spender",
          "type": "address"
        }
      ],
      "name": "allowance",
      "outputs": [
        {
          "internalType": "uint256",
          "name": "",
          "type": "uint256"
        }
      ],
      "stateMutability": "view",
      "type": "function"
    },
    {
      "inputs": [
        {
          "internalType": "address",
          "name": "spender",
          "type": "address"
        },
        {
          "internalType": "uint256",
          "name": "value",
          "type": "uint256"
        }
      ],
      "name": "approve",
      "outputs": [
        {
          "internalType": "bool",
          "name": "",
          "type": "bool"
        }
      ],
      "stateMutability": "nonpayable",
      "type": "function"
    },
    {
      "inputs": [
        {
          "internalType": "address",
          "name": "account",
          "type": "address"
        }
      ],
      "name": "balanceOf",
      "outputs": [
        {
          "internalType": "uint256",
          "name": "",
          "type": "uint256"
        }
      ],
      "stateMutability": "view",
      "type": "function"
    },
    {
      "inputs": [],
      "name": "creator",
      "outputs": [
        {
          "internalType": "address",
          "name": "",
          "type": "address"
        }
      ],
      "stateMutability": "view",
      "type": "function"
    },
    {
      "inputs": [],
      "name": "decimals",
      "outputs": [
        {
          "internalType": "uint8",
          "name": "",
          "type": "uint8"
        }
      ],
      "stateMutability": "view",
      "type": "function"
    },
    {
      "inputs": [],
      "name": "name",
      "outputs": [
        {
          "internalType": "string",
          "name": "",
          "type": "string"
        }
      ],
      "stateMutability": "view",
      "type": "function"
    },
    {
      "inputs": [],
      "name": "owner",
      "outputs": [
        {
          "internalType": "address payable",
          "name": "",
          "type": "address"
        }
      ],
      "stateMutability": "view",
      "type": "function"
    },
    {
      "inputs": [],
      "name": "symbol",
      "outputs": [
        {
          "internalType": "string",
          "name": "",
          "type": "string"
        }
      ],
      "stateMutability": "view",
      "type": "function"
    },
    {
      "inputs": [],
      "name": "totalSupply",
      "outputs": [
        {
          "internalType": "uint256",
          "name": "",
          "type": "uint256"
        }
      ],
      "stateMutability": "view",
      "type": "function"
    },
    {
      "inputs": [
        {
          "internalType": "address",
          "name": "to",
          "type": "address"
        },
        {
          "internalType": "uint256",
          "name": "value",
          "type": "uint256"
        }
      ],
      "name": "transfer",
      "outputs": [
        {
          "internalType": "bool",
          "name": "",
          "type": "bool"
        }
      ],
      "stateMutability": "nonpayable",
      "type": "function"
    },
    {
      "inputs": [
        {
          "internalType": "address",
          "name": "from",
          "type": "address"
        },
        {
          "internalType": "address",
          "name": "to",
          "type": "address"
        },
        {
          "internalType": "uint256",
          "name": "value",
          "type": "uint256"
        }
      ],
      "name": "transferFrom",
      "outputs": [
        {
          "internalType": "bool",
          "name": "",
          "type": "bool"
        }
      ],
      "stateMutability": "nonpayable",
      "type": "function"
    }
  ],
  "bytecode": "0x6080604052346103ee57610b3e80380380610019816103f3565b9283398101906080818303126103ee5780516001600160a01b038116908190036103ee5760208201516001600160401b0381116103ee578361005c918401610418565b60408301519093906001600160401b0381116103ee57606091610080918501610418565b92015183519091906001600160401b0381116102f757600354600181811c911680156103e4575b60208210146102d757601f811161037f575b50602094601f82116001146103185794819293949560009261030d575b50508160011b916000199060031b1c1916176003555b82516001600160401b0381116102f757600454600181811c911680156102ed575b60208210146102d757601f8111610272575b506020601f821160011461020b5781929394600092610200575b50508160011b916000199060031b1c1916176004555b3360018060a01b0319600554161760055560018060a01b0319600654161760065533156101ea576002548181018091116101d457600255600033815280602052604081208281540190556040519182527fddf252ad1be2c89b69c2b068fc378daa952ba7f163c4a11628f55a4df523b3ef60203393a36040516106ba90816104848239f35b634e487b7160e01b600052601160045260246000fd5b63ec442f0560e01b600052600060045260246000fd5b015190503880610139565b601f198216906004600052806000209160005b81811061025a57509583600195969710610241575b505050811b0160045561014f565b015160001960f88460031b161c19169055388080610233565b9192602060018192868b01518155019401920161021e565b60046000527f8a35acfbc15ff81a39ae7d344fd709f28e8600b4aa8c65c6b64bfe7fe36bd19b601f830160051c810191602084106102cd575b601f0160051c01905b8181106102c1575061011f565b600081556001016102b4565b90915081906102ab565b634e487b7160e01b600052602260045260246000fd5b90607f169061010d565b634e487b7160e01b600052604160045260246000fd5b0151905038806100d6565b601f198216956003600052806000209160005b8881106103675750836001959697981061034e575b505050811b016003556100ec565b015160001960f88460031b161c19169055388080610340565b9192602060018192868501518155019401920161032b565b60036000527fc2575a0e9e593c00f959f8c92f12db2869c3395a3b0502d05e2516446f71f85b601f830160051c810191602084106103da575b601f0160051c01905b8181106103ce57506100b9565b600081556001016103c1565b90915081906103b8565b90607f16906100a7565b600080fd5b6040519190601f01601f191682016001600160401b038111838210176102f757604052565b81601f820112156103ee578051906001600160401b0382116102f757610447601f8301601f19166020016103f3565b92828452602083830101116103ee5760005b82811061046e57505060206000918301015290565b8060208092840101518282870101520161045956fe608080604052600436101561001357600080fd5b60003560e01c90816302d05d3f146105265750806306fdde0314610450578063095ea7b3146103ca57806318160ddd146103ac57806323b872dd146102bf578063313ce567146102a357806370a08231146102695780638da5cb5b1461024057806395d89b411461011f578063a9059cbb146100ee5763dd62ed3e1461009857600080fd5b346100e95760403660031901126100e9576100b1610593565b6100b96105a9565b6001600160a01b039182166000908152600160209081526040808320949093168252928352819020549051908152f35b600080fd5b346100e95760403660031901126100e95761011461010a610593565b60243590336105bf565b602060405160018152f35b346100e95760003660031901126100e95760405160006004548060011c90600181168015610236575b6020831081146102225782855290811561020657506001146101af575b50819003601f01601f191681019067ffffffffffffffff821181831017610199576101958291826040528261054a565b0390f35b634e487b7160e01b600052604160045260246000fd5b905060046000527f8a35acfbc15ff81a39ae7d344fd709f28e8600b4aa8c65c6b64bfe7fe36bd19b6000905b8282106101f057506020915082010182610165565b60018160209254838588010152019101906101db565b90506020925060ff191682840152151560051b82010182610165565b634e487b7160e01b84526022600452602484fd5b91607f1691610148565b346100e95760003660031901126100e9576005546040516001600160a01b039091168152602090f35b346100e95760203660031901126100e9576001600160a01b0361028a610593565b1660005260006020526020604060002054604051908152f35b346100e95760003660031901126100e957602060405160128152f35b346100e95760603660031901126100e9576102d8610593565b6102e06105a9565b6001600160a01b0382166000818152600160208181526040808420338552909152909120549193604435939290918101610320575b5061011493506105bf565b83811061038f57841561037957331561036357610114946000526001602052604060002060018060a01b0333166000526020528360406000209103905584610315565b634a1406b160e11b600052600060045260246000fd5b63e602df0560e01b600052600060045260246000fd5b8390637dc7a0d960e11b6000523360045260245260445260646000fd5b346100e95760003660031901126100e9576020600254604051908152f35b346100e95760403660031901126100e9576103e3610593565b602435903315610379576001600160a01b031690811561036357336000526001602052604060002082600052602052806040600020556040519081527f8c5be1e5ebec7d5bd14f71427d1e84f3dd0314c0f7b2291e5b200ac8c7c3b92560203392a3602060405160018152f35b346100e95760003660031901126100e95760405160006003548060011c9060018116801561051c575b6020831081146102225782855290811561020657506001146104c55750819003601f01601f191681019067ffffffffffffffff821181831017610199576101958291826040528261054a565b905060036000527fc2575a0e9e593c00f959f8c92f12db2869c3395a3b0502d05e2516446f71f85b6000905b82821061050657506020915082010182610165565b60018160209254838588010152019101906104f1565b91607f1691610479565b346100e95760003660031901126100e9576006546001600160a01b03168152602090f35b91909160208152825180602083015260005b81811061057d575060409293506000838284010152601f8019910116010190565b806020809287010151604082860101520161055c565b600435906001600160a01b03821682036100e957565b602435906001600160a01b03821682036100e957565b6001600160a01b031690811561066e576001600160a01b031691821561065857600082815280602052604081205482811061063e5791604082827fddf252ad1be2c89b69c2b068fc378daa952ba7f163c4a11628f55a4df523b3ef958760209652828652038282205586815280845220818154019055604051908152a3565b916064928463391434e360e21b8452600452602452604452fd5b63ec442f0560e01b600052600060045260246000fd5b634b637e8f60e11b600052600060045260246000fdfea26469706673582212208d91e63fabfafad95826757a5f90706118a2e0a59a1954ef0d5c8870b0d7af6f64736f6c634300081b0033",
  "linkReferences": {},
  "deployedLinkReferences": {}
}